{"contracts/VenomRegistry.sol":{"VenomRegistry":{"abi":[{"inputs":[],"stateMutability":"nonpayable","type":"constructor"},{"inputs":[{"internalType":"address","name":"owner","type":"address"}],"name":"OwnableInvalidOwner","type":"error"},{"inputs":[{"internalType":"address","name":"account","type":"address"}],"name":"OwnableUnauthorizedAccount","type":"error"},{"anonymous":false,"inputs":[{"indexed":true,"internalType":"address","name":"operator","type":"address"},{"indexed":false,"internalType":"uint256","name":"stake","type":"uint256"},{"indexed":false,"internalType":"string","name":"multiaddr","type":"string"}],"name":"OracleRegistered","type":"event"},{"anonymous":false,"inputs":[{"indexed":true,"internalType":"address","name":"operator","type":"address"},{"indexed":false,"internalType":"uint256","name":"amount","type":"uint256"},{"indexed":false,"internalType":"string","name":"reason","type":"string"}],"name":"OracleSlashed","type":"event"},{"anonymous":false,"inputs":[{"indexed":true,"internalType":"address","name":"previousOwner","type":"address"},{"indexed":true,"internalType":"address","name":"newOwner","type":"address"}],"name":"OwnershipTransferred","type":"event"},{"anonymous":false,"inputs":[{"indexed":true,"internalType":"address","name":"pilotEscrow","type":"address"}],"name":"PilotEscrowSet","type":"event"},{"inputs":[],"name":"MAX_DEVIATION","outputs":[{"internalType":"uint256","name":"","type":"uint256"}],"stateMutability":"view","type":"function"},{"inputs":[],"name":"MIN_STAKE","outputs":[{"internalType":"uint256","name":"","type":"uint256"}],"stateMutability":"view","type":"function"},{"inputs":[],"name":"SLASH_PERCENT","outputs":[{"internalType":"uint256","name":"","type":"uint256"}],"stateMutability":"view","type":"function"},{"inputs":[],"name":"activeOracleCount","outputs":[{"internalType":"uint256","name":"count","type":"uint256"}],"stateMutability":"view","type":"function"},{"inputs":[],"name":"getActiveOracles","outputs":[{"internalType":"address[]","name":"operators","type":"address[]"},{"internalType":"string[]","name":"multiaddrs","type":"string[]"}],"stateMutability":"view","type":"function"},{"inputs":[{"internalType":"address","name":"operator","type":"address"}],"name":"isActiveOracle","outputs":[{"internalType":"bool","name":"","type":"bool"}],"stateMutability":"view","type":"function"},{"inputs":[{"internalType":"uint256","name":"","type":"uint256"}],"name":"oracleList","outputs":[{"internalType":"address","name":"","type":"address"}],"stateMutability":"view","type":"function"},{"inputs":[{"internalType":"address","name":"","type":"address"}],"name":"oracles","outputs":[{"internalType":"address","name":"operator","type":"address"},{"internalType":"uint256","name":"stake","type":"uint256"},{"internalType":"uint256","name":"scoreCount","type":"uint256"},{"internalType":"uint256","name":"lastActive","type":"uint256"},{"internalType":"bool","name":"active","type":"bool"},{"internalType":"string","name":"multiaddr","type":"string"}],"stateMutability":"view","type":"function"},{"inputs":[],"name":"owner","outputs":[{"internalType":"address","name":"","type":"address"}],"stateMutability":"view","type":"function"},{"inputs":[],"name":"pilotEscrow","outputs":[{"internalType":"address","name":"","type":"address"}],"stateMutability":"view","type":"function"},{"inputs":[{"internalType":"string","name":"_multiaddr","type":"string"}],"name":"registerOracle","outputs":[],"stateMutability":"payable","type":"function"},{"inputs":[],"name":"renounceOwnership","outputs":[],"stateMutability":"nonpayable","type":"function"},{"inputs":[{"internalType":"address","name":"operator","type":"address"},{"internalType":"uint256","name":"submittedScore","type":"uint256"},{"internalType":"uint256","name":"medianScore","type":"uint256"}],"name":"reportDeviation","outputs":[],"stateMutability":"nonpayable","type":"function"},{"inputs":[{"internalType":"address","name":"_pilotEscrow","type":"address"}],"name":"setPilotEscrow","outputs":[],"stateMutability":"nonpayable","type":"function"},{"inputs":[{"internalType":"address","name":"newOwner","type":"address"}],"name":"transferOwnership","outputs":[],"stateMutability":"nonpayable","type":"function"}],"evm":{"bytecode":{"linkReferences":{},"object":"6080806040523461007a5733156100645760008054336001600160a01b03198216811783556040519290916001600160a01b0316907f8be0079c531659141344cd1fd0a4f28419497f9722a3daafe3b4186f6b6457e09080a3610ef490816100808239f35b631e4fbdf760e01b815260006004820152602490fd5b600080fdfe608080604052600436101561001357600080fd5b60003560e01c90816318dbd27314610af257508063239aad0d14610ab0578063321c512b146106ae5780633ae9b8f11461066c5780636ccaa94614610446578063715018a6146103ed5780638da5cb5b146103c4578063920ee5941461039b578063998d6238146102c1578063addd509914610231578063b05f233a14610215578063bca86af814610196578063cb1c2b5c14610173578063f2fde38b146100e55763f6e8913d146100c457600080fd5b346100e05760003660031901126100e057602060405160058152f35b600080fd5b346100e05760203660031901126100e0576100fe610b66565b610106610d0b565b6001600160a01b0390811690811561015a57600054826bffffffffffffffffffffffff60a01b821617600055167f8be0079c531659141344cd1fd0a4f28419497f9722a3daafe3b4186f6b6457e0600080a3005b604051631e4fbdf760e01b815260006004820152602490fd5b346100e05760003660031901126100e0576020604051670de0b6b3a76400008152f35b346100e05760003660031901126100e057600080600254905b8181106101c157602083604051908152f35b6101ca81610b7c565b60018060a01b0391549060031b1c16600052600160205260ff60046040600020015416610200575b6101fb90610e83565b6101af565b9161020d6101fb91610e83565b9290506101f2565b346100e05760003660031901126100e057602060405160198152f35b346100e05760203660031901126100e0576001600160a01b0380610253610b66565b1660005260016020526040600020908154166102bd600183015492600281015490600381015461028d600560ff6004850154169301610c65565b9260405196879687526020870152604086015260608501521515608084015260c060a084015260c0830190610bc9565b0390f35b346100e05760203660031901126100e0576102da610b66565b6102e2610d0b565b600354906001600160a01b03908183166103685716908115610334576001600160a01b03191681176003557f29279890f1492ae275f30c5230eacdf09396c8ab51d9cb258b4ec1ce6151a47b600080a2005b60405162461bcd60e51b815260206004820152600c60248201526b5a65726f206164647265737360a01b6044820152606490fd5b60405162461bcd60e51b815260206004820152600b60248201526a105b1c9958591e481cd95d60aa1b6044820152606490fd5b346100e05760003660031901126100e0576003546040516001600160a01b039091168152602090f35b346100e05760003660031901126100e0576000546040516001600160a01b039091168152602090f35b346100e05760003660031901126100e057610406610d0b565b600080546001600160a01b0319811682556001600160a01b03167f8be0079c531659141344cd1fd0a4f28419497f9722a3daafe3b4186f6b6457e08280a3005b346100e05760003660031901126100e0576002546000805b828110610618575061046f81610e92565b9061047d6040519283610c43565b80825261048981610e92565b602083810194601f19928301368737826104bb6104a586610e92565b956104b36040519788610c43565b808752610e92565b0160005b8181106106095750506000805b82811061057257505050604051936040850190604086525180915260608501959060005b818110610555575050508385038185015282519081865280860181808460051b8901019501936000975b8489106105275787870388f35b9091929394958480610543838686600196030188528a51610bc9565b9801940198019791909493929461051a565b82516001600160a01b0316885296830196918301916001016104f0565b61057e81989598610b7c565b60018060a01b0391549060031b1c168060005260019081865260ff600460406000200154166105bb575b50506105b390610e83565b9693966104cc565b9261060191846105b394956105d0848d610eaa565b5260005286526105e66005604060002001610c65565b6105f0828a610eaa565b526105fb8189610eaa565b50610e83565b9190896105a8565b606086820185015283016104bf565b61062181610b7c565b60018060a01b0391549060031b1c16600052600160205260ff60046040600020015416610657575b61065290610e83565b61045e565b9061066461065291610e83565b919050610649565b346100e05760203660031901126100e0576001600160a01b0361068d610b66565b166000526001602052602060ff600460406000200154166040519015158152f35b60203660031901126100e05767ffffffffffffffff600435116100e0573660236004350112156100e05767ffffffffffffffff60043560040135116100e057366024600435600401356004350101116100e057670de0b6b3a76400003410610a765733600052600160205260ff60046040600020015416610a3c576004356004013515610a025760405160c0810181811067ffffffffffffffff82111761092857604052338152346020820152600060408201524260608201526001608082015260405161078c6020601f19601f6004356004013501160182610c43565b600480359081013580835290602401602083013760006020600435600401358301015260a0820190815233600052600160205260406000209160018060a01b038151166bffffffffffffffffffffffff60a01b845416178355602081015160018401556040810151600284015560608101516003840155608060048401910151151560ff801983541691161790555180519067ffffffffffffffff82116109285761083a6005840154610c09565b601f81116109b7575b50602090601f831160011461094957600592916000918361093e575b50508160011b916000199060031b1c1916179101555b60025468010000000000000000811015610928578060016108999201600255610b7c565b81549060031b9033821b9160018060a01b03901b1916179055604051348152604060208201526004356004013560408201526004356004013560246004350160608301376000606060043560040135830101527f208b7b377111d47497fe04896f412ac49c5bdfd48c73ed9debafabe0b06611683391606081601f19601f6004356004013501168101030190a2005b634e487b7160e01b600052604160045260246000fd5b01519050848061085f565b90601f198316916005850160005260206000209260005b81811061099f57509160019391856005969410610986575b505050811b01910155610875565b015160001960f88460031b161c19169055848080610978565b92936020600181928786015181550195019301610960565b600584016000526020600020601f840160051c810191602085106109f8575b601f0160051c01905b8181106109ec5750610843565b600081556001016109df565b90915081906109d6565b60405162461bcd60e51b8152602060048201526012602482015271135d5b1d1a5859191c881c995c5d5a5c995960721b6044820152606490fd5b60405162461bcd60e51b8152602060048201526012602482015271105b1c9958591e481c9959da5cdd195c995960721b6044820152606490fd5b60405162461bcd60e51b8152602060048201526012602482015271496e73756666696369656e74207374616b6560701b6044820152606490fd5b346100e05760203660031901126100e0576004356002548110156100e057610ad9602091610b7c565b905460405160039290921b1c6001600160a01b03168152f35b346100e05760603660031901126100e057610b0b610b66565b6003549091906001600160a01b03163303610b3157610b2f60443560243584610d5a565b005b62461bcd60e51b815260206004820152601060248201526f4f6e6c792050696c6f74457363726f7760801b6044820152606490fd5b600435906001600160a01b03821682036100e057565b600254811015610bb35760026000527f405787fa12a823e0f2b7631cc41b3ba8828b3321ca811111fa75cd3aa3bb5ace0190600090565b634e487b7160e01b600052603260045260246000fd5b919082519283825260005b848110610bf5575050826000602080949584010152601f8019910116010190565b602081830181015184830182015201610bd4565b90600182811c92168015610c39575b6020831014610c2357565b634e487b7160e01b600052602260045260246000fd5b91607f1691610c18565b90601f8019910116810190811067ffffffffffffffff82111761092857604052565b9060405191826000825492610c7984610c09565b908184526001948581169081600014610ce85750600114610ca5575b5050610ca392500383610c43565b565b9093915060005260209081600020936000915b818310610cd0575050610ca393508201013880610c95565b85548884018501529485019487945091830191610cb8565b915050610ca394506020925060ff191682840152151560051b8201013880610c95565b6000546001600160a01b03163303610d1f57565b60405163118cdaa760e01b8152336004820152602490fd5b91908203918211610d4457565b634e487b7160e01b600052601160045260246000fd5b60018060a01b03169160008381526001928360205260409260ff600485852001541615610e7b5760199181811115610e6d5790610d9691610d37565b11610da2575b50505050565b83815282602052828282200154600581029080820460051490151715610e59578260046080947fda4247d88dd9a845536e72b0c02526ceb5db850882b8cc9fd14673b70eaca30d969460646018950495898252806020528083832001610e09888254610d37565b9055898252602052200160ff19815416905580519283528060208401528201527f53636f726520646576696174696f6e20746f6f206869676800000000000000006060820152a238808080610d9c565b634e487b7160e01b82526011600452602482fd5b610e7691610d37565b610d96565b505050505050565b6000198114610d445760010190565b67ffffffffffffffff81116109285760051b60200190565b8051821015610bb35760209160051b01019056fea2646970667358221220f98c77f034f6446fb7e7ee1929bfad5ba310e5f52ec1e1e77b1f3e1d127fb43064736f6c63430008140033","opcodes":"PUSH1 0x80 DUP1 PUSH1 0x40 MSTORE CALLVALUE PUSH2 0x7A JUMPI CALLER ISZERO PUSH2 0x64 JUMPI PUSH1 0x0 DUP1 SLOAD CALLER PUSH1 0x1 PUSH1 0x1 PUSH1 0xA0 SHL SUB NOT DUP3 AND DUP2 OR DUP4 SSTORE PUSH1 0x40 MLOAD SWAP3 SWAP1 SWAP2 PUSH1 0x1 PUSH1 0x1 PUSH1 0xA0 SHL SUB AND SWAP1 PUSH32 0x8BE0079C531659141344CD1FD0A4F28419497F9722A3DAAFE3B4186F6B6457E0 SWAP1 DUP1 LOG3 PUSH2 0xEF4 SWAP1 DUP2 PUSH2 0x80 DUP3 CODECOPY RETURN JUMPDEST PUSH4 0x1E4FBDF7 PUSH1 0xE0 SHL DUP2 MSTORE PUSH1 0x0 PUSH1 0x4 DUP3 ADD MSTORE PUSH1 0x24 SWAP1 REVERT JUMPDEST PUSH1 0x0 DUP1 REVERT INVALID PUSH1 0x80 DUP1 PUSH1 0x40 MSTORE PUSH1 0x4 CALLDATASIZE LT ISZERO PUSH2 0x13 JUMPI PUSH1 0x0 DUP1 REVERT JUMPDEST PUSH1 0x0 CALLDATALOAD PUSH1 0xE0 SHR SWAP1 DUP2 PUSH4 0x18DBD273 EQ PUSH2 0xAF2 JUMPI POP DUP1 PUSH4 0x239AAD0D EQ PUSH2 0xAB0 JUMPI DUP1 PUSH4 0x321C512B EQ PUSH2 0x6AE JUMPI DUP1 PUSH4 0x3AE9B8F1 EQ PUSH2 0x66C JUMPI DUP1 PUSH4 0x6CCAA946 EQ PUSH2 0x446 JUMPI DUP1 PUSH4 0x715018A6 EQ PUSH2 0x3ED JUMPI DUP1 PUSH4 0x8DA5CB5B EQ PUSH2 0x3C4 JUMPI DUP1 PUSH4 0x920EE594 EQ PUSH2 0x39B JUMPI DUP1 PUSH4 0x998D6238 EQ PUSH2 0x2C1 JUMPI DUP1 PUSH4 0xADDD5099 EQ PUSH2 0x231 JUMPI DUP1 PUSH4 0xB05F233A EQ PUSH2 0x215 JUMPI DUP1 PUSH4 0xBCA86AF8 EQ PUSH2 0x196 JUMPI DUP1 PUSH4 0xCB1C2B5C EQ PUSH2 0x173 JUMPI DUP1 PUSH4 0xF2FDE38B EQ PUSH2 0xE5 JUMPI PUSH4 0xF6E8913D EQ PUSH2 0xC4 JUMPI PUSH1 0x0 DUP1 REVERT JUMPDEST CALLVALUE PUSH2 0xE0 JUMPI PUSH1 0x0 CALLDATASIZE PUSH1 0x3 NOT ADD SLT PUSH2 0xE0 JUMPI PUSH1 0x20 PUSH1 0x40 MLOAD PUSH1 0x5 DUP2 MSTORE RETURN JUMPDEST PUSH1 0x0 DUP1 REVERT JUMPDEST CALLVALUE PUSH2 0xE0 JUMPI PUSH1 0x20 CALLDATASIZE PUSH1 0x3 NOT ADD SLT PUSH2 0xE0 JUMPI PUSH2 0xFE PUSH2 0xB66 JUMP JUMPDEST PUSH2 0x106 PUSH2 0xD0B JUMP JUMPDEST PUSH1 0x1 PUSH1 0x1 PUSH1 0xA0 SHL SUB SWAP1 DUP2 AND SWAP1 DUP2 ISZERO PUSH2 0x15A JUMPI PUSH1 0x0 SLOAD DUP3 PUSH12 0xFFFFFFFFFFFFFFFFFFFFFFFF PUSH1 0xA0 SHL DUP3 AND OR PUSH1 0x0 SSTORE AND PUSH32 0x8BE0079C531659141344CD1FD0A4F28419497F9722A3DAAFE3B4186F6B6457E0 PUSH1 0x0 DUP1 LOG3 STOP JUMPDEST PUSH1 0x40 MLOAD PUSH4 0x1E4FBDF7 PUSH1 0xE0 SHL DUP2 MSTORE PUSH1 0x0 PUSH1 0x4 DUP3 ADD MSTORE PUSH1 0x24 SWAP1 REVERT JUMPDEST CALLVALUE PUSH2 0xE0 JUMPI PUSH1 0x0 CALLDATASIZE PUSH1 0x3 NOT ADD SLT PUSH2 0xE0 JUMPI PUSH1 0x20 PUSH1 0x40 MLOAD PUSH8 0xDE0B6B3A7640000 DUP2 MSTORE RETURN JUMPDEST CALLVALUE PUSH2 0xE0 JUMPI PUSH1 0x0 CALLDATASIZE PUSH1 0x3 NOT ADD SLT PUSH2 0xE0 JUMPI PUSH1 0x0 DUP1 PUSH1 0x2 SLOAD SWAP1 JUMPDEST DUP2 DUP2 LT PUSH2 0x1C1 JUMPI PUSH1 0x20 DUP4 PUSH1 0x40 MLOAD SWAP1 DUP2 MSTORE RETURN JUMPDEST PUSH2 0x1CA DUP2 PUSH2 0xB7C JUMP JUMPDEST PUSH1 0x1 DUP1 PUSH1 0xA0 SHL SUB SWAP2 SLOAD SWAP1 PUSH1 0x3 SHL SHR AND PUSH1 0x0 MSTORE PUSH1 0x1 PUSH1 0x20 MSTORE PUSH1 0xFF PUSH1 0x4 PUSH1 0x40 PUSH1 0x0 KECCAK256 ADD SLOAD AND PUSH2 0x200 JUMPI JUMPDEST PUSH2 0x1FB SWAP1 PUSH2 0xE83 JUMP JUMPDEST PUSH2 0x1AF JUMP JUMPDEST SWAP2 PUSH2 0x20D PUSH2 0x1FB SWAP2 PUSH2 0xE83 JUMP JUMPDEST SWAP3 SWAP1 POP PUSH2 0x1F2 JUMP JUMPDEST CALLVALUE PUSH2 0xE0 JUMPI PUSH1 0x0 CALLDATASIZE PUSH1 0x3 NOT ADD SLT PUSH2 0xE0 JUMPI PUSH1 0x20 PUSH1 0x40 MLOAD PUSH1 0x19 DUP2 MSTORE RETURN JUMPDEST CALLVALUE PUSH2 0xE0 JUMPI PUSH1 0x20 CALLDATASIZE PUSH1 0x3 NOT ADD SLT PUSH2 0xE0 JUMPI PUSH1 0x1 PUSH1 0x1 PUSH1 0xA0 SHL SUB DUP1 PUSH2 0x253 PUSH2 0xB66 JUMP JUMPDEST AND PUSH1 0x0 MSTORE PUSH1 0x1 PUSH1 0x20 MSTORE PUSH1 0x40 PUSH1 0x0 KECCAK256 SWAP1 DUP2 SLOAD AND PUSH2 0x2BD PUSH1 0x1 DUP4 ADD SLOAD SWAP3 PUSH1 0x2 DUP2 ADD SLOAD SWAP1 PUSH1 0x3 DUP2 ADD SLOAD PUSH2 0x28D PUSH1 0x5 PUSH1 0xFF PUSH1 0x4 DUP6 ADD SLOAD AND SWAP4 ADD PUSH2 0xC65 JUMP JUMPDEST SWAP3 PUSH1 0x40 MLOAD SWAP7 DUP8 SWAP7 DUP8 MSTORE PUSH1 0x20 DUP8 ADD MSTORE PUSH1 0x40 DUP7 ADD MSTORE PUSH1 0x60 DUP6 ADD MSTORE ISZERO ISZERO PUSH1 0x80 DUP5 ADD MSTORE PUSH1 0xC0 PUSH1 0xA0 DUP5 ADD MSTORE PUSH1 0xC0 DUP4 ADD SWAP1 PUSH2 0xBC9 JUMP JUMPDEST SUB SWAP1 RETURN JUMPDEST CALLVALUE PUSH2 0xE0 JUMPI PUSH1 0x20 CALLDATASIZE PUSH1 0x3 NOT ADD SLT PUSH2 0xE0 JUMPI PUSH2 0x2DA PUSH2 0xB66 JUMP JUMPDEST PUSH2 0x2E2 PUSH2 0xD0B JUMP JUMPDEST PUSH1 0x3 SLOAD SWAP1 PUSH1 0x1 PUSH1 0x1 PUSH1 0xA0 SHL SUB SWAP1 DUP2 DUP4 AND PUSH2 0x368 JUMPI AND SWAP1 DUP2 ISZERO PUSH2 0x334 JUMPI PUSH1 0x1 PUSH1 0x1 PUSH1 0xA0 SHL SUB NOT AND DUP2 OR PUSH1 0x3 SSTORE PUSH32 0x29279890F1492AE275F30C5230EACDF09396C8AB51D9CB258B4EC1CE6151A47B PUSH1 0x0 DUP1 LOG2 STOP JUMPDEST PUSH1 0x40 MLOAD PUSH3 0x461BCD PUSH1 0xE5 SHL DUP2 MSTORE PUSH1 0x20 PUSH1 0x4 DUP3 ADD MSTORE PUSH1 0xC PUSH1 0x24 DUP3 ADD MSTORE PUSH12 0x5A65726F2061646472657373 PUSH1 0xA0 SHL PUSH1 0x44 DUP3 ADD MSTORE PUSH1 0x64 SWAP1 REVERT JUMPDEST PUSH1 0x40 MLOAD PUSH3 0x461BCD PUSH1 0xE5 SHL DUP2 MSTORE PUSH1 0x20 PUSH1 0x4 DUP3 ADD MSTORE PUSH1 0xB PUSH1 0x24 DUP3 ADD MSTORE PUSH11 0x105B1C9958591E481CD95D PUSH1 0xAA SHL PUSH1 0x44 DUP3 ADD MSTORE PUSH1 0x64 SWAP1 REVERT JUMPDEST CALLVALUE PUSH2 0xE0 JUMPI PUSH1 0x0 CALLDATASIZE PUSH1 0x3 NOT ADD SLT PUSH2 0xE0 JUMPI PUSH1 0x3 SLOAD PUSH1 0x40 MLOAD PUSH1 0x1 PUSH1 0x1 PUSH1 0xA0 SHL SUB SWAP1 SWAP2 AND DUP2 MSTORE PUSH1 0x20 SWAP1 RETURN JUMPDEST CALLVALUE PUSH2 0xE0 JUMPI PUSH1 0x0 CALLDATASIZE PUSH1 0x3 NOT ADD SLT PUSH2 0xE0 JUMPI PUSH1 0x0 SLOAD PUSH1 0x40 MLOAD PUSH1 0x1 PUSH1 0x1 PUSH1 0xA0 SHL SUB SWAP1 SWAP2 AND DUP2 MSTORE PUSH1 0x20 SWAP1 RETURN JUMPDEST CALLVALUE PUSH2 0xE0 JUMPI PUSH1 0x0 CALLDATASIZE PUSH1 0x3 NOT ADD SLT PUSH2 0xE0 JUMPI PUSH2 0x406 PUSH2 0xD0B JUMP JUMPDEST PUSH1 0x0 DUP1 SLOAD PUSH1 0x1 PUSH1 0x1 PUSH1 0xA0 SHL SUB NOT DUP2 AND DUP3 SSTORE PUSH1 0x1 PUSH1 0x1 PUSH1 0xA0 SHL SUB AND PUSH32 0x8BE0079C531659141344CD1FD0A4F28419497F9722A3DAAFE3B4186F6B6457E0 DUP3 DUP1 LOG3 STOP JUMPDEST CALLVALUE PUSH2 0xE0 JUMPI PUSH1 0x0 CALLDATASIZE PUSH1 0x3 NOT ADD SLT PUSH2 0xE0 JUMPI PUSH1 0x2 SLOAD PUSH1 0x0 DUP1 JUMPDEST DUP3 DUP2 LT PUSH2 0x618 JUMPI POP PUSH2 0x46F DUP2 PUSH2 0xE92 JUMP JUMPDEST SWAP1 PUSH2 0x47D PUSH1 0x40 MLOAD SWAP3 DUP4 PUSH2 0xC43 JUMP JUMPDEST DUP1 DUP3 MSTORE PUSH2 0x489 DUP2 PUSH2 0xE92 JUMP JUMPDEST PUSH1 0x20 DUP4 DUP2 ADD SWAP5 PUSH1 0x1F NOT SWAP3 DUP4 ADD CALLDATASIZE DUP8 CALLDATACOPY DUP3 PUSH2 0x4BB PUSH2 0x4A5 DUP7 PUSH2 0xE92 JUMP JUMPDEST SWAP6 PUSH2 0x4B3 PUSH1 0x40 MLOAD SWAP8 DUP9 PUSH2 0xC43 JUMP JUMPDEST DUP1 DUP8 MSTORE PUSH2 0xE92 JUMP JUMPDEST ADD PUSH1 0x0 JUMPDEST DUP2 DUP2 LT PUSH2 0x609 JUMPI POP POP PUSH1 0x0 DUP1 JUMPDEST DUP3 DUP2 LT PUSH2 0x572 JUMPI POP POP POP PUSH1 0x40 MLOAD SWAP4 PUSH1 0x40 DUP6 ADD SWAP1 PUSH1 0x40 DUP7 MSTORE MLOAD DUP1 SWAP2 MSTORE PUSH1 0x60 DUP6 ADD SWAP6 SWAP1 PUSH1 0x0 JUMPDEST DUP2 DUP2 LT PUSH2 0x555 JUMPI POP POP POP DUP4 DUP6 SUB DUP2 DUP6 ADD MSTORE DUP3 MLOAD SWAP1 DUP2 DUP7 MSTORE DUP1 DUP7 ADD DUP2 DUP1 DUP5 PUSH1 0x5 SHL DUP10 ADD ADD SWAP6 ADD SWAP4 PUSH1 0x0 SWAP8 JUMPDEST DUP5 DUP10 LT PUSH2 0x527 JUMPI DUP8 DUP8 SUB DUP9 RETURN JUMPDEST SWAP1 SWAP2 SWAP3 SWAP4 SWAP5 SWAP6 DUP5 DUP1 PUSH2 0x543 DUP4 DUP7 DUP7 PUSH1 0x1 SWAP7 SUB ADD DUP9 MSTORE DUP11 MLOAD PUSH2 0xBC9 JUMP JUMPDEST SWAP9 ADD SWAP5 ADD SWAP9 ADD SWAP8 SWAP2 SWAP1 SWAP5 SWAP4 SWAP3 SWAP5 PUSH2 0x51A JUMP JUMPDEST DUP3 MLOAD PUSH1 0x1 PUSH1 0x1 PUSH1 0xA0 SHL SUB AND DUP9 MSTORE SWAP7 DUP4 ADD SWAP7 SWAP2 DUP4 ADD SWAP2 PUSH1 0x1 ADD PUSH2 0x4F0 JUMP JUMPDEST PUSH2 0x57E DUP2 SWAP9 SWAP6 SWAP9 PUSH2 0xB7C JUMP JUMPDEST PUSH1 0x1 DUP1 PUSH1 0xA0 SHL SUB SWAP2 SLOAD SWAP1 PUSH1 0x3 SHL SHR AND DUP1 PUSH1 0x0 MSTORE PUSH1 0x1 SWAP1 DUP2 DUP7 MSTORE PUSH1 0xFF PUSH1 0x4 PUSH1 0x40 PUSH1 0x0 KECCAK256 ADD SLOAD AND PUSH2 0x5BB JUMPI JUMPDEST POP POP PUSH2 0x5B3 SWAP1 PUSH2 0xE83 JUMP JUMPDEST SWAP7 SWAP4 SWAP7 PUSH2 0x4CC JUMP JUMPDEST SWAP3 PUSH2 0x601 SWAP2 DUP5 PUSH2 0x5B3 SWAP5 SWAP6 PUSH2 0x5D0 DUP5 DUP14 PUSH2 0xEAA JUMP JUMPDEST MSTORE PUSH1 0x0 MSTORE DUP7 MSTORE PUSH2 0x5E6 PUSH1 0x5 PUSH1 0x40 PUSH1 0x0 KECCAK256 ADD PUSH2 0xC65 JUMP JUMPDEST PUSH2 0x5F0 DUP3 DUP11 PUSH2 0xEAA JUMP JUMPDEST MSTORE PUSH2 0x5FB DUP2 DUP10 PUSH2 0xEAA JUMP JUMPDEST POP PUSH2 0xE83 JUMP JUMPDEST SWAP2 SWAP1 DUP10 PUSH2 0x5A8 JUMP JUMPDEST PUSH1 0x60 DUP7 DUP3 ADD DUP6 ADD MSTORE DUP4 ADD PUSH2 0x4BF JUMP JUMPDEST PUSH2 0x621 DUP2 PUSH2 0xB7C JUMP JUMPDEST PUSH1 0x1 DUP1 PUSH1 0xA0 SHL SUB SWAP2 SLOAD SWAP1 PUSH1 0x3 SHL SHR AND PUSH1 0x0 MSTORE PUSH1 0x1 PUSH1 0x20 MSTORE PUSH1 0xFF PUSH1 0x4 PUSH1 0x40 PUSH1 0x0 KECCAK256 ADD SLOAD AND PUSH2 0x657 JUMPI JUMPDEST PUSH2 0x652 SWAP1 PUSH2 0xE83 JUMP JUMPDEST PUSH2 0x45E JUMP JUMPDEST SWAP1 PUSH2 0x664 PUSH2 0x652 SWAP2 PUSH2 0xE83 JUMP JUMPDEST SWAP2 SWAP1 POP PUSH2 0x649 JUMP JUMPDEST CALLVALUE PUSH2 0xE0 JUMPI PUSH1 0x20 CALLDATASIZE PUSH1 0x3 NOT ADD SLT PUSH2 0xE0 JUMPI PUSH1 0x1 PUSH1 0x1 PUSH1 0xA0 SHL SUB PUSH2 0x68D PUSH2 0xB66 JUMP JUMPDEST AND PUSH1 0x0 MSTORE PUSH1 0x1 PUSH1 0x20 MSTORE PUSH1 0x20 PUSH1 0xFF PUSH1 0x4 PUSH1 0x40 PUSH1 0x0 KECCAK256 ADD SLOAD AND PUSH1 0x40 MLOAD SWAP1 ISZERO ISZERO DUP2 MSTORE RETURN JUMPDEST PUSH1 0x20 CALLDATASIZE PUSH1 0x3 NOT ADD SLT PUSH2 0xE0 JUMPI PUSH8 0xFFFFFFFFFFFFFFFF PUSH1 0x4 CALLDATALOAD GT PUSH2 0xE0 JUMPI CALLDATASIZE PUSH1 0x23 PUSH1 0x4 CALLDATALOAD ADD SLT ISZERO PUSH2 0xE0 JUMPI PUSH8 0xFFFFFFFFFFFFFFFF PUSH1 0x4 CALLDATALOAD PUSH1 0x4 ADD CALLDATALOAD GT PUSH2 0xE0 JUMPI CALLDATASIZE PUSH1 0x24 PUSH1 0x4 CALLDATALOAD PUSH1 0x4 ADD CALLDATALOAD PUSH1 0x4 CALLDATALOAD ADD ADD GT PUSH2 0xE0 JUMPI PUSH8 0xDE0B6B3A7640000 CALLVALUE LT PUSH2 0xA76 JUMPI CALLER PUSH1 0x0 MSTORE PUSH1 0x1 PUSH1 0x20 MSTORE PUSH1 0xFF PUSH1 0x4 PUSH1 0x40 PUSH1 0x0 KECCAK256 ADD SLOAD AND PUSH2 0xA3C JUMPI PUSH1 0x4 CALLDATALOAD PUSH1 0x4 ADD CALLDATALOAD ISZERO PUSH2 0xA02 JUMPI PUSH1 0x40 MLOAD PUSH1 0xC0 DUP2 ADD DUP2 DUP2 LT PUSH8 0xFFFFFFFFFFFFFFFF DUP3 GT OR PUSH2 0x928 JUMPI PUSH1 0x40 MSTORE CALLER DUP2 MSTORE CALLVALUE PUSH1 0x20 DUP3 ADD MSTORE PUSH1 0x0 PUSH1 0x40 DUP3 ADD MSTORE TIMESTAMP PUSH1 0x60 DUP3 ADD MSTORE PUSH1 0x1 PUSH1 0x80 DUP3 ADD MSTORE PUSH1 0x40 MLOAD PUSH2 0x78C PUSH1 0x20 PUSH1 0x1F NOT PUSH1 0x1F PUSH1 0x4 CALLDATALOAD PUSH1 0x4 ADD CALLDATALOAD ADD AND ADD DUP3 PUSH2 0xC43 JUMP JUMPDEST PUSH1 0x4 DUP1 CALLDATALOAD SWAP1 DUP2 ADD CALLDATALOAD DUP1 DUP4 MSTORE SWAP1 PUSH1 0x24 ADD PUSH1 0x20 DUP4 ADD CALLDATACOPY PUSH1 0x0 PUSH1 0x20 PUSH1 0x4 CALLDATALOAD PUSH1 0x4 ADD CALLDATALOAD DUP4 ADD ADD MSTORE PUSH1 0xA0 DUP3 ADD SWAP1 DUP2 MSTORE CALLER PUSH1 0x0 MSTORE PUSH1 0x1 PUSH1 0x20 MSTORE PUSH1 0x40 PUSH1 0x0 KECCAK256 SWAP2 PUSH1 0x1 DUP1 PUSH1 0xA0 SHL SUB DUP2 MLOAD AND PUSH12 0xFFFFFFFFFFFFFFFFFFFFFFFF PUSH1 0xA0 SHL DUP5 SLOAD AND OR DUP4 SSTORE PUSH1 0x20 DUP2 ADD MLOAD PUSH1 0x1 DUP5 ADD SSTORE PUSH1 0x40 DUP2 ADD MLOAD PUSH1 0x2 DUP5 ADD SSTORE PUSH1 0x60 DUP2 ADD MLOAD PUSH1 0x3 DUP5 ADD SSTORE PUSH1 0x80 PUSH1 0x4 DUP5 ADD SWAP2 ADD MLOAD ISZERO ISZERO PUSH1 0xFF DUP1 NOT DUP4 SLOAD AND SWAP2 AND OR SWAP1 SSTORE MLOAD DUP1 MLOAD SWAP1 PUSH8 0xFFFFFFFFFFFFFFFF DUP3 GT PUSH2 0x928 JUMPI PUSH2 0x83A PUSH1 0x5 DUP5 ADD SLOAD PUSH2 0xC09 JUMP JUMPDEST PUSH1 0x1F DUP2 GT PUSH2 0x9B7 JUMPI JUMPDEST POP PUSH1 0x20 SWAP1 PUSH1 0x1F DUP4 GT PUSH1 0x1 EQ PUSH2 0x949 JUMPI PUSH1 0x5 SWAP3 SWAP2 PUSH1 0x0 SWAP2 DUP4 PUSH2 0x93E JUMPI JUMPDEST POP POP DUP2 PUSH1 0x1 SHL SWAP2 PUSH1 0x0 NOT SWAP1 PUSH1 0x3 SHL SHR NOT AND OR SWAP2 ADD SSTORE JUMPDEST PUSH1 0x2 SLOAD PUSH9 0x10000000000000000 DUP2 LT ISZERO PUSH2 0x928 JUMPI DUP1 PUSH1 0x1 PUSH2 0x899 SWAP3 ADD PUSH1 0x2 SSTORE PUSH2 0xB7C JUMP JUMPDEST DUP2 SLOAD SWAP1 PUSH1 0x3 SHL SWAP1 CALLER DUP3 SHL SWAP2 PUSH1 0x1 DUP1 PUSH1 0xA0 SHL SUB SWAP1 SHL NOT AND OR SWAP1 SSTORE PUSH1 0x40 MLOAD CALLVALUE DUP2 MSTORE PUSH1 0x40 PUSH1 0x20 DUP3 ADD MSTORE PUSH1 0x4 CALLDATALOAD PUSH1 0x4 ADD CALLDATALOAD PUSH1 0x40 DUP3 ADD MSTORE PUSH1 0x4 CALLDATALOAD PUSH1 0x4 ADD CALLDATALOAD PUSH1 0x24 PUSH1 0x4 CALLDATALOAD ADD PUSH1 0x60 DUP4 ADD CALLDATACOPY PUSH1 0x0 PUSH1 0x60 PUSH1 0x4 CALLDATALOAD PUSH1 0x4 ADD CALLDATALOAD DUP4 ADD ADD MSTORE PUSH32 0x208B7B377111D47497FE04896F412AC49C5BDFD48C73ED9DEBAFABE0B0661168 CALLER SWAP2 PUSH1 0x60 DUP2 PUSH1 0x1F NOT PUSH1 0x1F PUSH1 0x4 CALLDATALOAD PUSH1 0x4 ADD CALLDATALOAD ADD AND DUP2 ADD SUB ADD SWAP1 LOG2 STOP JUMPDEST PUSH4 0x4E487B71 PUSH1 0xE0 SHL PUSH1 0x0 MSTORE PUSH1 0x41 PUSH1 0x4 MSTORE PUSH1 0x24 PUSH1 0x0 REVERT JUMPDEST ADD MLOAD SWAP1 POP DUP5 DUP1 PUSH2 0x85F JUMP JUMPDEST SWAP1 PUSH1 0x1F NOT DUP4 AND SWAP2 PUSH1 0x5 DUP6 ADD PUSH1 0x0 MSTORE PUSH1 0x20 PUSH1 0x0 KECCAK256 SWAP3 PUSH1 0x0 JUMPDEST DUP2 DUP2 LT PUSH2 0x99F JUMPI POP SWAP2 PUSH1 0x1 SWAP4 SWAP2 DUP6 PUSH1 0x5 SWAP7 SWAP5 LT PUSH2 0x986 JUMPI JUMPDEST POP POP POP DUP2 SHL ADD SWAP2 ADD SSTORE PUSH2 0x875 JUMP JUMPDEST ADD MLOAD PUSH1 0x0 NOT PUSH1 0xF8 DUP5 PUSH1 0x3 SHL AND SHR NOT AND SWAP1 SSTORE DUP5 DUP1 DUP1 PUSH2 0x978 JUMP JUMPDEST SWAP3 SWAP4 PUSH1 0x20 PUSH1 0x1 DUP2 SWAP3 DUP8 DUP7 ADD MLOAD DUP2 SSTORE ADD SWAP6 ADD SWAP4 ADD PUSH2 0x960 JUMP JUMPDEST PUSH1 0x5 DUP5 ADD PUSH1 0x0 MSTORE PUSH1 0x20 PUSH1 0x0 KECCAK256 PUSH1 0x1F DUP5 ADD PUSH1 0x5 SHR DUP2 ADD SWAP2 PUSH1 0x20 DUP6 LT PUSH2 0x9F8 JUMPI JUMPDEST PUSH1 0x1F ADD PUSH1 0x5 SHR ADD SWAP1 JUMPDEST DUP2 DUP2 LT PUSH2 0x9EC JUMPI POP PUSH2 0x843 JUMP JUMPDEST PUSH1 0x0 DUP2 SSTORE PUSH1 0x1 ADD PUSH2 0x9DF JUMP JUMPDEST SWAP1 SWAP2 POP DUP2 SWAP1 PUSH2 0x9D6 JUMP JUMPDEST PUSH1 0x40 MLOAD PUSH3 0x461BCD PUSH1 0xE5 SHL DUP2 MSTORE PUSH1 0x20 PUSH1 0x4 DUP3 ADD MSTORE PUSH1 0x12 PUSH1 0x24 DUP3 ADD MSTORE PUSH18 0x135D5B1D1A5859191C881C995C5D5A5C9959 PUSH1 0x72 SHL PUSH1 0x44 DUP3 ADD MSTORE PUSH1 0x64 SWAP1 REVERT JUMPDEST PUSH1 0x40 MLOAD PUSH3 0x461BCD PUSH1 0xE5 SHL DUP2 MSTORE PUSH1 0x20 PUSH1 0x4 DUP3 ADD MSTORE PUSH1 0x12 PUSH1 0x24 DUP3 ADD MSTORE PUSH18 0x105B1C9958591E481C9959DA5CDD195C9959 PUSH1 0x72 SHL PUSH1 0x44 DUP3 ADD MSTORE PUSH1 0x64 SWAP1 REVERT JUMPDEST PUSH1 0x40 MLOAD PUSH3 0x461BCD PUSH1 0xE5 SHL DUP2 MSTORE PUSH1 0x20 PUSH1 0x4 DUP3 ADD MSTORE PUSH1 0x12 PUSH1 0x24 DUP3 ADD MSTORE PUSH18 0x496E73756666696369656E74207374616B65 PUSH1 0x70 SHL PUSH1 0x44 DUP3 ADD MSTORE PUSH1 0x64 SWAP1 REVERT JUMPDEST CALLVALUE PUSH2 0xE0 JUMPI PUSH1 0x20 CALLDATASIZE PUSH1 0x3 NOT ADD SLT PUSH2 0xE0 JUMPI PUSH1 0x4 CALLDATALOAD PUSH1 0x2 SLOAD DUP2 LT ISZERO PUSH2 0xE0 JUMPI PUSH2 0xAD9 PUSH1 0x20 SWAP2 PUSH2 0xB7C JUMP JUMPDEST SWAP1 SLOAD PUSH1 0x40 MLOAD PUSH1 0x3 SWAP3 SWAP1 SWAP3 SHL SHR PUSH1 0x1 PUSH1 0x1 PUSH1 0xA0 SHL SUB AND DUP2 MSTORE RETURN JUMPDEST CALLVALUE PUSH2 0xE0 JUMPI PUSH1 0x60 CALLDATASIZE PUSH1 0x3 NOT ADD SLT PUSH2 0xE0 JUMPI PUSH2 0xB0B PUSH2 0xB66 JUMP JUMPDEST PUSH1 0x3 SLOAD SWAP1 SWAP2 SWAP1 PUSH1 0x1 PUSH1 0x1 PUSH1 0xA0 SHL SUB AND CALLER SUB PUSH2 0xB31 JUMPI PUSH2 0xB2F PUSH1 0x44 CALLDATALOAD PUSH1 0x24 CALLDATALOAD DUP5 PUSH2 0xD5A JUMP JUMPDEST STOP JUMPDEST PUSH3 0x461BCD PUSH1 0xE5 SHL DUP2 MSTORE PUSH1 0x20 PUSH1 0x4 DUP3 ADD MSTORE PUSH1 0x10 PUSH1 0x24 DUP3 ADD MSTORE PUSH16 0x4F6E6C792050696C6F74457363726F77 PUSH1 0x80 SHL PUSH1 0x44 DUP3 ADD MSTORE PUSH1 0x64 SWAP1 REVERT JUMPDEST PUSH1 0x4 CALLDATALOAD SWAP1 PUSH1 0x1 PUSH1 0x1 PUSH1 0xA0 SHL SUB DUP3 AND DUP3 SUB PUSH2 0xE0 JUMPI JUMP JUMPDEST PUSH1 0x2 SLOAD DUP2 LT ISZERO PUSH2 0xBB3 JUMPI PUSH1 0x2 PUSH1 0x0 MSTORE PUSH32 0x405787FA12A823E0F2B7631CC41B3BA8828B3321CA811111FA75CD3AA3BB5ACE ADD SWAP1 PUSH1 0x0 SWAP1 JUMP JUMPDEST PUSH4 0x4E487B71 PUSH1 0xE0 SHL PUSH1 0x0 MSTORE PUSH1 0x32 PUSH1 0x4 MSTORE PUSH1 0x24 PUSH1 0x0 REVERT JUMPDEST SWAP2 SWAP1 DUP3 MLOAD SWAP3 DUP4 DUP3 MSTORE PUSH1 0x0 JUMPDEST DUP5 DUP2 LT PUSH2 0xBF5 JUMPI POP POP DUP3 PUSH1 0x0 PUSH1 0x20 DUP1 SWAP5 SWAP6 DUP5 ADD ADD MSTORE PUSH1 0x1F DUP1 NOT SWAP2 ADD AND ADD ADD SWAP1 JUMP JUMPDEST PUSH1 0x20 DUP2 DUP4 ADD DUP2 ADD MLOAD DUP5 DUP4 ADD DUP3 ADD MSTORE ADD PUSH2 0xBD4 JUMP JUMPDEST SWAP1 PUSH1 0x1 DUP3 DUP2 SHR SWAP3 AND DUP1 ISZERO PUSH2 0xC39 JUMPI JUMPDEST PUSH1 0x20 DUP4 LT EQ PUSH2 0xC23 JUMPI JUMP JUMPDEST PUSH4 0x4E487B71 PUSH1 0xE0 SHL PUSH1 0x0 MSTORE PUSH1 0x22 PUSH1 0x4 MSTORE PUSH1 0x24 PUSH1 0x0 REVERT JUMPDEST SWAP2 PUSH1 0x7F AND SWAP2 PUSH2 0xC18 JUMP JUMPDEST SWAP1 PUSH1 0x1F DUP1 NOT SWAP2 ADD AND DUP2 ADD SWAP1 DUP2 LT PUSH8 0xFFFFFFFFFFFFFFFF DUP3 GT OR PUSH2 0x928 JUMPI PUSH1 0x40 MSTORE JUMP JUMPDEST SWAP1 PUSH1 0x40 MLOAD SWAP2 DUP3 PUSH1 0x0 DUP3 SLOAD SWAP3 PUSH2 0xC79 DUP5 PUSH2 0xC09 JUMP JUMPDEST SWAP1 DUP2 DUP5 MSTORE PUSH1 0x1 SWAP5 DUP6 DUP2 AND SWAP1 DUP2 PUSH1 0x0 EQ PUSH2 0xCE8 JUMPI POP PUSH1 0x1 EQ PUSH2 0xCA5 JUMPI JUMPDEST POP POP PUSH2 0xCA3 SWAP3 POP SUB DUP4 PUSH2 0xC43 JUMP JUMPDEST JUMP JUMPDEST SWAP1 SWAP4 SWAP2 POP PUSH1 0x0 MSTORE PUSH1 0x20 SWAP1 DUP2 PUSH1 0x0 KECCAK256 SWAP4 PUSH1 0x0 SWAP2 JUMPDEST DUP2 DUP4 LT PUSH2 0xCD0 JUMPI POP POP PUSH2 0xCA3 SWAP4 POP DUP3 ADD ADD CODESIZE DUP1 PUSH2 0xC95 JUMP JUMPDEST DUP6 SLOAD DUP9 DUP5 ADD DUP6 ADD MSTORE SWAP5 DUP6 ADD SWAP5 DUP8 SWAP5 POP SWAP2 DUP4 ADD SWAP2 PUSH2 0xCB8 JUMP JUMPDEST SWAP2 POP POP PUSH2 0xCA3 SWAP5 POP PUSH1 0x20 SWAP3 POP PUSH1 0xFF NOT AND DUP3 DUP5 ADD MSTORE ISZERO ISZERO PUSH1 0x5 SHL DUP3 ADD ADD CODESIZE DUP1 PUSH2 0xC95 JUMP JUMPDEST PUSH1 0x0 SLOAD PUSH1 0x1 PUSH1 0x1 PUSH1 0xA0 SHL SUB AND CALLER SUB PUSH2 0xD1F JUMPI JUMP JUMPDEST PUSH1 0x40 MLOAD PUSH4 0x118CDAA7 PUSH1 0xE0 SHL DUP2 MSTORE CALLER PUSH1 0x4 DUP3 ADD MSTORE PUSH1 0x24 SWAP1 REVERT JUMPDEST SWAP2 SWAP1 DUP3 SUB SWAP2 DUP3 GT PUSH2 0xD44 JUMPI JUMP JUMPDEST PUSH4 0x4E487B71 PUSH1 0xE0 SHL PUSH1 0x0 MSTORE PUSH1 0x11 PUSH1 0x4 MSTORE PUSH1 0x24 PUSH1 0x0 REVERT JUMPDEST PUSH1 0x1 DUP1 PUSH1 0xA0 SHL SUB AND SWAP2 PUSH1 0x0 DUP4 DUP2 MSTORE PUSH1 0x1 SWAP3 DUP4 PUSH1 0x20 MSTORE PUSH1 0x40 SWAP3 PUSH1 0xFF PUSH1 0x4 DUP6 DUP6 KECCAK256 ADD SLOAD AND ISZERO PUSH2 0xE7B JUMPI PUSH1 0x19 SWAP2 DUP2 DUP2 GT ISZERO PUSH2 0xE6D JUMPI SWAP1 PUSH2 0xD96 SWAP2 PUSH2 0xD37 JUMP JUMPDEST GT PUSH2 0xDA2 JUMPI JUMPDEST POP POP POP POP JUMP JUMPDEST DUP4 DUP2 MSTORE DUP3 PUSH1 0x20 MSTORE DUP3 DUP3 DUP3 KECCAK256 ADD SLOAD PUSH1 0x5 DUP2 MUL SWAP1 DUP1 DUP3 DIV PUSH1 0x5 EQ SWAP1 ISZERO OR ISZERO PUSH2 0xE59 JUMPI DUP3 PUSH1 0x4 PUSH1 0x80 SWAP5 PUSH32 0xDA4247D88DD9A845536E72B0C02526CEB5DB850882B8CC9FD14673B70EACA30D SWAP7 SWAP5 PUSH1 0x64 PUSH1 0x18 SWAP6 DIV SWAP6 DUP10 DUP3 MSTORE DUP1 PUSH1 0x20 MSTORE DUP1 DUP4 DUP4 KECCAK256 ADD PUSH2 0xE09 DUP9 DUP3 SLOAD PUSH2 0xD37 JUMP JUMPDEST SWAP1 SSTORE DUP10 DUP3 MSTORE PUSH1 0x20 MSTORE KECCAK256 ADD PUSH1 0xFF NOT DUP2 SLOAD AND SWAP1 SSTORE DUP1 MLOAD SWAP3 DUP4 MSTORE DUP1 PUSH1 0x20 DUP5 ADD MSTORE DUP3 ADD MSTORE PUSH32 0x53636F726520646576696174696F6E20746F6F20686967680000000000000000 PUSH1 0x60 DUP3 ADD MSTORE LOG2 CODESIZE DUP1 DUP1 DUP1 PUSH2 0xD9C JUMP JUMPDEST PUSH4 0x4E487B71 PUSH1 0xE0 SHL DUP3 MSTORE PUSH1 0x11 PUSH1 0x4 MSTORE PUSH1 0x24 DUP3 REVERT JUMPDEST PUSH2 0xE76 SWAP2 PUSH2 0xD37 JUMP JUMPDEST PUSH2 0xD96 JUMP JUMPDEST POP POP POP POP POP POP JUMP JUMPDEST PUSH1 0x0 NOT DUP2 EQ PUSH2 0xD44 JUMPI PUSH1 0x1 ADD SWAP1 JUMP JUMPDEST PUSH8 0xFFFFFFFFFFFFFFFF DUP2 GT PUSH2 0x928 JUMPI PUSH1 0x5 SHL PUSH1 0x20 ADD SWAP1 JUMP JUMPDEST DUP1 MLOAD DUP3 LT ISZERO PUSH2 0xBB3 JUMPI PUSH1 0x20 SWAP2 PUSH1 0x5 SHL ADD ADD SWAP1 JUMP INVALID LOG2 PUSH5 0x6970667358 0x22 SLT KECCAK256 0xF9 DUP13 PUSH24 0xF034F6446FB7E7EE1929BFAD5BA310E5F52EC1E1E77B1F3E SAR SLT PUSH32 0xB43064736F6C6343000814003300000000000000000000000000000000000000 "},"methodIdentifiers":{"MAX_DEVIATION()":"b05f233a","MIN_STAKE()":"cb1c2b5c","SLASH_PERCENT()":"f6e8913d","activeOracleCount()":"bca86af8","getActiveOracles()":"6ccaa946","isActiveOracle(address)":"3ae9b8f1","oracleList(uint256)":"239aad0d","oracles(address)":"addd5099","owner()":"8da5cb5b","pilotEscrow()":"920ee594","registerOracle(string)":"321c512b","renounceOwnership()":"715018a6","reportDeviation(address,uint256,uint256)":"18dbd273","setPilotEscrow(address)":"998d6238","transferOwnership(address)":"f2fde38b"}}}}}