{"contracts/PilotEscrow.sol":{"PilotEscrow":{"abi":[{"inputs":[{"internalType":"address","name":"_registry","type":"address"}],"stateMutability":"nonpayable","type":"constructor"},{"inputs":[{"internalType":"address","name":"owner","type":"address"}],"name":"OwnableInvalidOwner","type":"error"},{"inputs":[{"internalType":"address","name":"account","type":"address"}],"name":"OwnableUnauthorizedAccount","type":"error"},{"anonymous":false,"inputs":[{"indexed":true,"internalType":"bytes32","name":"campaignUid","type":"bytes32"},{"indexed":true,"internalType":"address","name":"funder","type":"address"},{"indexed":false,"internalType":"uint256","name":"refund","type":"uint256"},{"indexed":false,"internalType":"uint256","name":"fee","type":"uint256"}],"name":"CampaignCancelled","type":"event"},{"anonymous":false,"inputs":[{"indexed":true,"internalType":"bytes32","name":"campaignUid","type":"bytes32"},{"indexed":true,"internalType":"address","name":"recipient","type":"address"},{"indexed":false,"internalType":"uint256","name":"bounty","type":"uint256"},{"indexed":false,"internalType":"uint256","name":"medianScore","type":"uint256"}],"name":"CampaignClosed","type":"event"},{"anonymous":false,"inputs":[{"indexed":true,"internalType":"bytes32","name":"campaignUid","type":"bytes32"},{"indexed":true,"internalType":"address","name":"funder","type":"address"},{"indexed":false,"internalType":"uint256","name":"amount","type":"uint256"}],"name":"CampaignFunded","type":"event"},{"anonymous":false,"inputs":[{"indexed":false,"internalType":"uint256","name":"amount","type":"uint256"},{"indexed":false,"internalType":"string","name":"reason","type":"string"}],"name":"InsurancePoolDeposit","type":"event"},{"anonymous":false,"inputs":[{"indexed":true,"internalType":"address","name":"previousOwner","type":"address"},{"indexed":true,"internalType":"address","name":"newOwner","type":"address"}],"name":"OwnershipTransferred","type":"event"},{"inputs":[],"name":"ABSTAIN_TYPEHASH","outputs":[{"internalType":"bytes32","name":"","type":"bytes32"}],"stateMutability":"view","type":"function"},{"inputs":[],"name":"CAMPAIGN_TIMEOUT_BLOCKS","outputs":[{"internalType":"uint256","name":"","type":"uint256"}],"stateMutability":"view","type":"function"},{"inputs":[],"name":"CANCEL_FEE_BPS","outputs":[{"internalType":"uint256","name":"","type":"uint256"}],"stateMutability":"view","type":"function"},{"inputs":[],"name":"DOMAIN_SEPARATOR","outputs":[{"internalType":"bytes32","name":"","type":"bytes32"}],"stateMutability":"view","type":"function"},{"inputs":[],"name":"DOMAIN_TYPEHASH","outputs":[{"internalType":"bytes32","name":"","type":"bytes32"}],"stateMutability":"view","type":"function"},{"inputs":[],"name":"MAX_DEVIATION","outputs":[{"internalType":"uint256","name":"","type":"uint256"}],"stateMutability":"view","type":"function"},{"inputs":[],"name":"NAME","outputs":[{"internalType":"string","name":"","type":"string"}],"stateMutability":"view","type":"function"},{"inputs":[],"name":"PARTICIPATION_FLOOR_PCT","outputs":[{"internalType":"uint256","name":"","type":"uint256"}],"stateMutability":"view","type":"function"},{"inputs":[],"name":"PASS_THRESHOLD","outputs":[{"internalType":"uint256","name":"","type":"uint256"}],"stateMutability":"view","type":"function"},{"inputs":[],"name":"REQUIRED_ORACLES","outputs":[{"internalType":"uint256","name":"","type":"uint256"}],"stateMutability":"view","type":"function"},{"inputs":[],"name":"SCORE_QUORUM_PCT","outputs":[{"internalType":"uint256","name":"","type":"uint256"}],"stateMutability":"view","type":"function"},{"inputs":[],"name":"SCORE_TYPEHASH","outputs":[{"internalType":"bytes32","name":"","type":"bytes32"}],"stateMutability":"view","type":"function"},{"inputs":[],"name":"VERSION","outputs":[{"internalType":"string","name":"","type":"string"}],"stateMutability":"view","type":"function"},{"inputs":[{"internalType":"bytes32","name":"","type":"bytes32"}],"name":"campaigns","outputs":[{"internalType":"address","name":"recipient","type":"address"},{"internalType":"uint256","name":"bounty","type":"uint256"},{"internalType":"bool","name":"closed","type":"bool"},{"internalType":"uint256","name":"fundedBlock","type":"uint256"}],"stateMutability":"view","type":"function"},{"inputs":[{"internalType":"bytes32","name":"campaignUid","type":"bytes32"}],"name":"cancelCampaign","outputs":[],"stateMutability":"nonpayable","type":"function"},{"inputs":[{"internalType":"bytes32","name":"campaignUid","type":"bytes32"},{"internalType":"uint256[]","name":"scores","type":"uint256[]"},{"internalType":"bytes[]","name":"scoreSignatures","type":"bytes[]"},{"internalType":"uint8[]","name":"abstainReasons","type":"uint8[]"},{"internalType":"bytes[]","name":"abstainSignatures","type":"bytes[]"}],"name":"closeCampaign","outputs":[],"stateMutability":"nonpayable","type":"function"},{"inputs":[{"internalType":"bytes32","name":"campaignUid","type":"bytes32"}],"name":"fundCampaign","outputs":[],"stateMutability":"payable","type":"function"},{"inputs":[],"name":"insurancePool","outputs":[{"internalType":"uint256","name":"","type":"uint256"}],"stateMutability":"view","type":"function"},{"inputs":[],"name":"owner","outputs":[{"internalType":"address","name":"","type":"address"}],"stateMutability":"view","type":"function"},{"inputs":[],"name":"registry","outputs":[{"internalType":"contract VenomRegistry","name":"","type":"address"}],"stateMutability":"view","type":"function"},{"inputs":[],"name":"renounceOwnership","outputs":[],"stateMutability":"nonpayable","type":"function"},{"inputs":[{"internalType":"address","name":"newOwner","type":"address"}],"name":"transferOwnership","outputs":[],"stateMutability":"nonpayable","type":"function"}],"evm":{"bytecode":{"linkReferences":{},"object":"60c034620001b5576001600160401b0390601f62001b4e38819003918201601f1916830192919084841183851017620001ba578160209284926040968752833981010312620001b557516001600160a01b039081811690819003620001b55733156200019d5760008054336001600160a01b03198216811783559193167f8be0079c531659141344cd1fd0a4f28419497f9722a3daafe3b4186f6b6457e08480a3608052601160208351620000b481620001d0565b828152017056454e4f4d2050696c6f74457363726f7760781b81522091600160208251620000e281620001d0565b82815201603160f81b8152209181519260208401947f8b73c3c69bb8fe3d512ecc4cf759cc79239f7b179b0ffacaa9a75d522b39400f86528385015260608401524660808401523060a084015260a0835260c08301948386109086111762000189575083905251902060a0526119619081620001ed82396080518181816102e601528181610edc015281816113f3015261150f015260a05181818161021701526117490152f35b634e487b7160e01b81526041600452602490fd5b8251631e4fbdf760e01b815260006004820152602490fd5b600080fd5b634e487b7160e01b600052604160045260246000fd5b604081019081106001600160401b03821117620001ba5760405256fe6080604052600436101561001257600080fd5b60003560e01c8063041365461461017757806320606b701461017257806333f78d591461016d5780633644e515146101685780634e4aa858146101635780635201ae291461015e578063715018a6146101595780637b103999146101545780638da5cb5b1461014f5780639034cebf1461014a578063944303a8146101455780639eca2f1e146101405780639f5593191461013b578063a3f4df7e14610136578063aa41c3b314610131578063ab2adc001461012c578063ae5b47cb14610127578063b05f233a14610122578063bc9d87f31461011d578063df8bb14014610118578063f2fde38b146101135763ffa1ad741461010e57600080fd5b6109bf565b610934565b6107c4565b61068d565b610671565b6105e2565b610593565b610576565b610528565b61040f565b6103b4565b610379565b61033e565b610315565b6102d0565b610272565b610256565b61023a565b6101ff565b6101e3565b6101a8565b61018c565b600091031261018757565b600080fd5b3461018757600036600319011261018757602060405160648152f35b346101875760003660031901126101875760206040517f8b73c3c69bb8fe3d512ecc4cf759cc79239f7b179b0ffacaa9a75d522b39400f8152f35b34610187576000366003190112610187576020604051603c8152f35b346101875760003660031901126101875760206040517f00000000000000000000000000000000000000000000000000000000000000008152f35b3461018757600036600319011261018757602060405160328152f35b3461018757600036600319011261018757602060405160058152f35b34610187576000806003193601126102cd5761028c6109f9565b80546001600160a01b03198116825581906001600160a01b03167f8be0079c531659141344cd1fd0a4f28419497f9722a3daafe3b4186f6b6457e08280a380f35b80fd5b34610187576000366003190112610187576040517f00000000000000000000000000000000000000000000000000000000000000006001600160a01b03168152602090f35b34610187576000366003190112610187576000546040516001600160a01b039091168152602090f35b346101875760003660031901126101875760206040517fa104a56070cf2f6cab1c33c03f12fd2684ea8ac92ac84ae5a79e349b6c4034568152f35b346101875760003660031901126101875760206040517f8268c934b1199325bd73b5a56815a80f530848c86aa4a1f743ed9ad6d89cc08f8152f35b346101875760203660031901126101875760043560005260026020526080604060002060018060a01b0381541690600181015490600360ff600283015416910154916040519384526020840152151560408301526060820152f35b3461018757600036600319011261018757602060405160438152f35b634e487b7160e01b600052604160045260246000fd5b67ffffffffffffffff811161045557604052565b61042b565b6080810190811067ffffffffffffffff82111761045557604052565b6040810190811067ffffffffffffffff82111761045557604052565b90601f8019910116810190811067ffffffffffffffff82111761045557604052565b604051906104c18261045a565b565b67ffffffffffffffff811161045557601f01601f191660200190565b6020808252825181830181905290939260005b82811061051457505060409293506000838284010152601f8019910116010190565b8181018601518482016040015285016104f2565b346101875760003660031901126101875761057260405161054881610476565b601181527056454e4f4d2050696c6f74457363726f7760781b6020820152604051918291826104df565b0390f35b34610187576000366003190112610187576020604051611c208152f35b34610187576000366003190112610187576020600154604051908152f35b9181601f840112156101875782359167ffffffffffffffff8311610187576020808501948460051b01011161018757565b346101875760a03660031901126101875767ffffffffffffffff602435818111610187576106149036906004016105b1565b906044358381116101875761062d9036906004016105b1565b90606435858111610187576106469036906004016105b1565b9290916084359687116101875761066461066f9736906004016105b1565b969095600435610e57565b005b3461018757600036600319011261018757602060405160198152f35b602036600319011261018757600435341561078a5760008181526002602052604090206106d6906001600160a01b03906106cf905b546001600160a01b031690565b1615610a25565b6107596106e16104b4565b3381523460208201526000604082015243606082015261070b836000526002602052604060002090565b90606060039160018060a01b038151166bffffffffffffffffffffffff60a01b85541617845560208101516001850155600284016040820151151560ff801983541691161790550151910155565b6040513481523391907ff5317246b1280f9cdfa4e36ed4cf0d02b1f02180e7ea02f9271cb356eb37469e90602090a3005b60405162461bcd60e51b81526020600482015260126024820152710426f756e7479206d757374206265203e20360741b6044820152606490fd5b34610187576020366003190112610187576004356107ec816000526002602052604060002090565b6001600282019161080d610808610804855460ff1690565b1590565b61117a565b805461082b906001600160a01b03163390848060a01b0316146111b7565b61084361083b6003830154610cd4565b4310156111f0565b01549061087561086761086061085885610c4c565b612710900490565b8094610ddc565b825460ff1916600117909255565b61088961088483600154610cf1565b600155565b6000926108a58480808086335af161089f610de9565b50611232565b604080519283526020830184905233927f5943943aef3c1e82bac1c27b3c6c60626e71a3cd8b8f043ae90d81f9ce5620459190a3806108e2575080f35b6040805191825260208201819052600c908201526b31b0b731b2b63630ba34b7b760a11b60608201527f6e1c1ee1a957869ae438f34b318915839a2c3475e6f699881555a4140747fd7d90608090a180f35b34610187576020366003190112610187576001600160a01b0360043581811690819003610187576109636109f9565b80156109a657600080546001600160a01b03198116831782559092167f8be0079c531659141344cd1fd0a4f28419497f9722a3daafe3b4186f6b6457e08380a380f35b604051631e4fbdf760e01b815260006004820152602490fd5b34610187576000366003190112610187576105726040516109df81610476565b60018152603160f81b6020820152604051918291826104df565b6000546001600160a01b03163303610a0d57565b60405163118cdaa760e01b8152336004820152602490fd5b15610a2c57565b60405162461bcd60e51b815260206004820152601760248201527f43616d706169676e20616c7265616479206578697374730000000000000000006044820152606490fd5b15610a7857565b60405162461bcd60e51b815260206004820152601760248201527f43616d706169676e20616c726561647920636c6f7365640000000000000000006044820152606490fd5b15610ac457565b60405162461bcd60e51b815260206004820152601360248201527210d85b5c185a59db881b9bdd08199d5b991959606a1b6044820152606490fd5b15610b0657565b60405162461bcd60e51b81526020600482015260156024820152740a6c6dee4ca40d8cadccee8d040dad2e6dac2e8c6d605b1b6044820152606490fd5b15610b4a57565b60405162461bcd60e51b815260206004820152601760248201527f4162737461696e206c656e677468206d69736d617463680000000000000000006044820152606490fd5b90816020910312610187575190565b6040513d6000823e3d90fd5b15610bb157565b60405162461bcd60e51b81526020600482015260116024820152704e6f20616374697665206f7261636c657360781b6044820152606490fd5b15610bf157565b60405162461bcd60e51b815260206004820152601a60248201527f42656c6f77206162736f6c7574652073636f726520666c6f6f720000000000006044820152606490fd5b634e487b7160e01b600052601160045260246000fd5b90606482029180830460641490151715610c6257565b610c36565b90603282029180830460321490151715610c6257565b90604382029180830460431490151715610c6257565b15610c9a57565b60405162461bcd60e51b815260206004820152601260248201527142656c6f772073636f72652071756f72756d60701b6044820152606490fd5b90611c208201809211610c6257565b9060018201809211610c6257565b91908201809211610c6257565b15610d0557565b60405162461bcd60e51b815260206004820152601960248201527f42656c6f772070617274696369706174696f6e20666c6f6f72000000000000006044820152606490fd5b15610d5157565b60405162461bcd60e51b81526020600482015260166024820152751359591a585b8818995b1bddc81d1a1c995cda1bdb1960521b6044820152606490fd5b6000198114610c625760010190565b634e487b7160e01b600052603260045260246000fd5b8051821015610dc85760209160051b010190565b610d9e565b600019810191908211610c6257565b91908203918211610c6257565b3d15610e14573d90610dfa826104c3565b91610e086040519384610492565b82523d6000602084013e565b606090565b15610e2057565b60405162461bcd60e51b815260206004820152600f60248201526e151c985b9cd9995c8819985a5b1959608a1b6044820152606490fd5b9697929394919590610e73886000526002602052604060002090565b9560028701958654610e859060ff1690565b15610e8f90610a71565b87546001600160a01b039990610ea8908b161515610abd565b610eb3818414610aff565b610ebe858814610b43565b610ec8938b611359565b94819a610ed8948794968c6114ea565b90857f0000000000000000000000000000000000000000000000000000000000000000169060409889516317950d5f60e31b8152600494848287815a93602094fa90811561111e57610f839260009261113e575b50610f76610f71610f7c92610f42851515610baa565b610f4f60058c1015610bea565b610f6b610f5b8c610c4c565b610f6487610c67565b1115610c93565b8a610cf1565b610c4c565b91610c7d565b1115610cfe565b610fab610f908684611831565b96610f9e603c891015610d4a565b805460ff19166001179055565b60005b85811061104657505050505050906110417f52451b0c080b6bee6b75806ca36bd4cdd6dacc3c3834b1ea4962b37a24cbc18c9392611028611007610ffb610ffb865460018060a01b031690565b6001600160a01b031690565b936106c2600080808060018601998a54905af1611022610de9565b50610e19565b9254965196875260208701529116939081906040820190565b0390a3565b866110518285610db4565b51111561112357601961106e886110688487610db4565b51610ddc565b11611082575b61107d90610d8f565b610fae565b61109c61108f8284610db4565b516001600160a01b031690565b906110a78185610db4565b5191853b15610187578c516318dbd27360e01b81526001600160a01b039091168782019081526020810193909352604083018990529160009083908190606001038183895af191821561111e5761107d92611105575b509050611074565b8061111261111892610441565b8061017c565b386110fd565b610b9e565b60196111396111328386610db4565b5189610ddc565b61106e565b610f7c919250610f7161116a610f769260203d8111611173575b6111628183610492565b810190610b8f565b93925050610f2c565b503d611158565b1561118157565b60405162461bcd60e51b815260206004820152600e60248201526d105b1c9958591e4818db1bdcd95960921b6044820152606490fd5b156111be57565b60405162461bcd60e51b815260206004820152600a6024820152692737ba10333ab73232b960b11b6044820152606490fd5b156111f757565b60405162461bcd60e51b8152602060048201526013602482015272151a5b595bdd5d081b9bdd081c995858da1959606a1b6044820152606490fd5b1561123957565b60405162461bcd60e51b815260206004820152600d60248201526c1499599d5b990819985a5b1959609a1b6044820152606490fd5b67ffffffffffffffff81116104555760051b60200190565b906112908261126e565b61129d6040519182610492565b82815280926112ae601f199161126e565b0190602036910137565b9190811015610dc85760051b0190565b9190811015610dc85760051b81013590601e198136030182121561018757019081359167ffffffffffffffff8311610187576020018236038113610187579190565b929192611316826104c3565b916113246040519384610492565b829481845281830111610187578281602093846000960137010152565b90816020910312610187575180151581036101875790565b93929094919460009361136b87611286565b9661137581611286565b966000945b82861061138957505050505050565b9091929394966113ba61139d8986896112b8565b356113b36113ac8b89876112c8565b369161130a565b908561167e565b6001600160a01b038116156114a457604051633ae9b8f160e01b81526001600160a01b03821660048201526020908181806024810103817f00000000000000000000000000000000000000000000000000000000000000006001600160a01b03165afa91821561111e576000926114af575b5050156114a457898b611440838584611634565b6114975761148792611473858094611482948f61148d998f61146d928f611466926112b8565b3592610db4565b52610db4565b6001600160a01b039091169052565b610d8f565b97610d8f565b949392919061137a565b5050509661148d90610d8f565b509661148d90610d8f565b6114ce9250803d106114d5575b6114c68183610492565b810190611341565b388061142c565b503d6114bc565b3560ff811681036101875790565b909294969593919360009760009561150181611286565b93879860018060a01b0396877f000000000000000000000000000000000000000000000000000000000000000016935b808c1061154657505050505050505050505050565b909192939495969798999a9c61157f8e6115786113ac6115708f848861156b926112b8565b6114dc565b9287896112c8565b90876116d1565b8a81161561160c57604051633ae9b8f160e01b81526001600160a01b038216600482015260209081816024818c5afa91821561111e578f92611617575b50501561160c576115ce818a8a611634565b61160c576115dd81838c611634565b61160c57816114826115f6926114736115fc958e610db4565b9d610d8f565b9a99989796959493929190611531565b509c6115fc90610d8f565b61162d9250803d106114d5576114c68183610492565b38806115bc565b91909160005b83811061164a5750505050600090565b6001600160a01b038061165d8385610db4565b5116908416146116755761167090610d8f565b61163a565b50505050600190565b6116ce92916040519060208201927f8268c934b1199325bd73b5a56815a80f530848c86aa4a1f743ed9ad6d89cc08f845260408301526060820152606081526116c68161045a565b51902061172e565b90565b6116ce929160ff6040519160208301937fa104a56070cf2f6cab1c33c03f12fd2684ea8ac92ac84ae5a79e349b6c40345685526040840152166060820152606081526116c68161045a565b60ff601b9116019060ff8211610c6257565b604182510361182a5760405161190160f01b602082019081527f00000000000000000000000000000000000000000000000000000000000000006022830152604280830193909352918152611784606282610492565b5190209060009160208201519260606040840151930151901a90601b821061181a575b7f7fffffffffffffffffffffffffffffff5d576e7357a4501ddfe92f46681b20a08311611811576117fd600093602095604051948594859094939260ff6060936080840197845216602083015260408201520152565b838052039060015afa1561111e5760005190565b50505050600090565b906118249061171c565b906117a7565b5050600090565b61183a82611286565b9060005b83811061190d5750506000925b61185483610dcd565b8410156118fa5760005b61187061186b8686610ddc565b610dcd565b8110156118e957806118856118a39285610db4565b5161189861189283610ce3565b86610db4565b51106118a857610d8f565b61185e565b6118ba6118b482610ce3565b85610db4565b516118c58286610db4565b516118d86118d284610ce3565b87610db4565b526118e38286610db4565b52610d8f565b50926118f490610d8f565b9261184b565b92506119099160011c90610db4565b5190565b8061191b6119269284610db4565b516118e38286610db4565b61183e56fea26469706673582212200fddc852f7ebffe9dac82ba1cb0fe2e440c00bdde1ca4f51a1e44163a3e32d0664736f6c63430008140033","opcodes":"PUSH1 0xC0 CALLVALUE PUSH3 0x1B5 JUMPI PUSH1 0x1 PUSH1 0x1 PUSH1 0x40 SHL SUB SWAP1 PUSH1 0x1F PUSH3 0x1B4E CODESIZE DUP2 SWAP1 SUB SWAP2 DUP3 ADD PUSH1 0x1F NOT AND DUP4 ADD SWAP3 SWAP2 SWAP1 DUP5 DUP5 GT DUP4 DUP6 LT OR PUSH3 0x1BA JUMPI DUP2 PUSH1 0x20 SWAP3 DUP5 SWAP3 PUSH1 0x40 SWAP7 DUP8 MSTORE DUP4 CODECOPY DUP2 ADD SUB SLT PUSH3 0x1B5 JUMPI MLOAD PUSH1 0x1 PUSH1 0x1 PUSH1 0xA0 SHL SUB SWAP1 DUP2 DUP2 AND SWAP1 DUP2 SWAP1 SUB PUSH3 0x1B5 JUMPI CALLER ISZERO PUSH3 0x19D JUMPI PUSH1 0x0 DUP1 SLOAD CALLER PUSH1 0x1 PUSH1 0x1 PUSH1 0xA0 SHL SUB NOT DUP3 AND DUP2 OR DUP4 SSTORE SWAP2 SWAP4 AND PUSH32 0x8BE0079C531659141344CD1FD0A4F28419497F9722A3DAAFE3B4186F6B6457E0 DUP5 DUP1 LOG3 PUSH1 0x80 MSTORE PUSH1 0x11 PUSH1 0x20 DUP4 MLOAD PUSH3 0xB4 DUP2 PUSH3 0x1D0 JUMP JUMPDEST DUP3 DUP2 MSTORE ADD PUSH17 0x56454E4F4D2050696C6F74457363726F77 PUSH1 0x78 SHL DUP2 MSTORE KECCAK256 SWAP2 PUSH1 0x1 PUSH1 0x20 DUP3 MLOAD PUSH3 0xE2 DUP2 PUSH3 0x1D0 JUMP JUMPDEST DUP3 DUP2 MSTORE ADD PUSH1 0x31 PUSH1 0xF8 SHL DUP2 MSTORE KECCAK256 SWAP2 DUP2 MLOAD SWAP3 PUSH1 0x20 DUP5 ADD SWAP5 PUSH32 0x8B73C3C69BB8FE3D512ECC4CF759CC79239F7B179B0FFACAA9A75D522B39400F DUP7 MSTORE DUP4 DUP6 ADD MSTORE PUSH1 0x60 DUP5 ADD MSTORE CHAINID PUSH1 0x80 DUP5 ADD MSTORE ADDRESS PUSH1 0xA0 DUP5 ADD MSTORE PUSH1 0xA0 DUP4 MSTORE PUSH1 0xC0 DUP4 ADD SWAP5 DUP4 DUP7 LT SWAP1 DUP7 GT OR PUSH3 0x189 JUMPI POP DUP4 SWAP1 MSTORE MLOAD SWAP1 KECCAK256 PUSH1 0xA0 MSTORE PUSH2 0x1961 SWAP1 DUP2 PUSH3 0x1ED DUP3 CODECOPY PUSH1 0x80 MLOAD DUP2 DUP2 DUP2 PUSH2 0x2E6 ADD MSTORE DUP2 DUP2 PUSH2 0xEDC ADD MSTORE DUP2 DUP2 PUSH2 0x13F3 ADD MSTORE PUSH2 0x150F ADD MSTORE PUSH1 0xA0 MLOAD DUP2 DUP2 DUP2 PUSH2 0x217 ADD MSTORE PUSH2 0x1749 ADD MSTORE RETURN JUMPDEST PUSH4 0x4E487B71 PUSH1 0xE0 SHL DUP2 MSTORE PUSH1 0x41 PUSH1 0x4 MSTORE PUSH1 0x24 SWAP1 REVERT JUMPDEST DUP3 MLOAD PUSH4 0x1E4FBDF7 PUSH1 0xE0 SHL DUP2 MSTORE PUSH1 0x0 PUSH1 0x4 DUP3 ADD MSTORE PUSH1 0x24 SWAP1 REVERT JUMPDEST PUSH1 0x0 DUP1 REVERT JUMPDEST PUSH4 0x4E487B71 PUSH1 0xE0 SHL PUSH1 0x0 MSTORE PUSH1 0x41 PUSH1 0x4 MSTORE PUSH1 0x24 PUSH1 0x0 REVERT JUMPDEST PUSH1 0x40 DUP2 ADD SWAP1 DUP2 LT PUSH1 0x1 PUSH1 0x1 PUSH1 0x40 SHL SUB DUP3 GT OR PUSH3 0x1BA JUMPI PUSH1 0x40 MSTORE JUMP INVALID PUSH1 0x80 PUSH1 0x40 MSTORE PUSH1 0x4 CALLDATASIZE LT ISZERO PUSH2 0x12 JUMPI PUSH1 0x0 DUP1 REVERT JUMPDEST PUSH1 0x0 CALLDATALOAD PUSH1 0xE0 SHR DUP1 PUSH4 0x4136546 EQ PUSH2 0x177 JUMPI DUP1 PUSH4 0x20606B70 EQ PUSH2 0x172 JUMPI DUP1 PUSH4 0x33F78D59 EQ PUSH2 0x16D JUMPI DUP1 PUSH4 0x3644E515 EQ PUSH2 0x168 JUMPI DUP1 PUSH4 0x4E4AA858 EQ PUSH2 0x163 JUMPI DUP1 PUSH4 0x5201AE29 EQ PUSH2 0x15E JUMPI DUP1 PUSH4 0x715018A6 EQ PUSH2 0x159 JUMPI DUP1 PUSH4 0x7B103999 EQ PUSH2 0x154 JUMPI DUP1 PUSH4 0x8DA5CB5B EQ PUSH2 0x14F JUMPI DUP1 PUSH4 0x9034CEBF EQ PUSH2 0x14A JUMPI DUP1 PUSH4 0x944303A8 EQ PUSH2 0x145 JUMPI DUP1 PUSH4 0x9ECA2F1E EQ PUSH2 0x140 JUMPI DUP1 PUSH4 0x9F559319 EQ PUSH2 0x13B JUMPI DUP1 PUSH4 0xA3F4DF7E EQ PUSH2 0x136 JUMPI DUP1 PUSH4 0xAA41C3B3 EQ PUSH2 0x131 JUMPI DUP1 PUSH4 0xAB2ADC00 EQ PUSH2 0x12C JUMPI DUP1 PUSH4 0xAE5B47CB EQ PUSH2 0x127 JUMPI DUP1 PUSH4 0xB05F233A EQ PUSH2 0x122 JUMPI DUP1 PUSH4 0xBC9D87F3 EQ PUSH2 0x11D JUMPI DUP1 PUSH4 0xDF8BB140 EQ PUSH2 0x118 JUMPI DUP1 PUSH4 0xF2FDE38B EQ PUSH2 0x113 JUMPI PUSH4 0xFFA1AD74 EQ PUSH2 0x10E JUMPI PUSH1 0x0 DUP1 REVERT JUMPDEST PUSH2 0x9BF JUMP JUMPDEST PUSH2 0x934 JUMP JUMPDEST PUSH2 0x7C4 JUMP JUMPDEST PUSH2 0x68D JUMP JUMPDEST PUSH2 0x671 JUMP JUMPDEST PUSH2 0x5E2 JUMP JUMPDEST PUSH2 0x593 JUMP JUMPDEST PUSH2 0x576 JUMP JUMPDEST PUSH2 0x528 JUMP JUMPDEST PUSH2 0x40F JUMP JUMPDEST PUSH2 0x3B4 JUMP JUMPDEST PUSH2 0x379 JUMP JUMPDEST PUSH2 0x33E JUMP JUMPDEST PUSH2 0x315 JUMP JUMPDEST PUSH2 0x2D0 JUMP JUMPDEST PUSH2 0x272 JUMP JUMPDEST PUSH2 0x256 JUMP JUMPDEST PUSH2 0x23A JUMP JUMPDEST PUSH2 0x1FF JUMP JUMPDEST PUSH2 0x1E3 JUMP JUMPDEST PUSH2 0x1A8 JUMP JUMPDEST PUSH2 0x18C JUMP JUMPDEST PUSH1 0x0 SWAP2 SUB SLT PUSH2 0x187 JUMPI JUMP JUMPDEST PUSH1 0x0 DUP1 REVERT JUMPDEST CALLVALUE PUSH2 0x187 JUMPI PUSH1 0x0 CALLDATASIZE PUSH1 0x3 NOT ADD SLT PUSH2 0x187 JUMPI PUSH1 0x20 PUSH1 0x40 MLOAD PUSH1 0x64 DUP2 MSTORE RETURN JUMPDEST CALLVALUE PUSH2 0x187 JUMPI PUSH1 0x0 CALLDATASIZE PUSH1 0x3 NOT ADD SLT PUSH2 0x187 JUMPI PUSH1 0x20 PUSH1 0x40 MLOAD PUSH32 0x8B73C3C69BB8FE3D512ECC4CF759CC79239F7B179B0FFACAA9A75D522B39400F DUP2 MSTORE RETURN JUMPDEST CALLVALUE PUSH2 0x187 JUMPI PUSH1 0x0 CALLDATASIZE PUSH1 0x3 NOT ADD SLT PUSH2 0x187 JUMPI PUSH1 0x20 PUSH1 0x40 MLOAD PUSH1 0x3C DUP2 MSTORE RETURN JUMPDEST CALLVALUE PUSH2 0x187 JUMPI PUSH1 0x0 CALLDATASIZE PUSH1 0x3 NOT ADD SLT PUSH2 0x187 JUMPI PUSH1 0x20 PUSH1 0x40 MLOAD PUSH32 0x0 DUP2 MSTORE RETURN JUMPDEST CALLVALUE PUSH2 0x187 JUMPI PUSH1 0x0 CALLDATASIZE PUSH1 0x3 NOT ADD SLT PUSH2 0x187 JUMPI PUSH1 0x20 PUSH1 0x40 MLOAD PUSH1 0x32 DUP2 MSTORE RETURN JUMPDEST CALLVALUE PUSH2 0x187 JUMPI PUSH1 0x0 CALLDATASIZE PUSH1 0x3 NOT ADD SLT PUSH2 0x187 JUMPI PUSH1 0x20 PUSH1 0x40 MLOAD PUSH1 0x5 DUP2 MSTORE RETURN JUMPDEST CALLVALUE PUSH2 0x187 JUMPI PUSH1 0x0 DUP1 PUSH1 0x3 NOT CALLDATASIZE ADD SLT PUSH2 0x2CD JUMPI PUSH2 0x28C PUSH2 0x9F9 JUMP JUMPDEST DUP1 SLOAD PUSH1 0x1 PUSH1 0x1 PUSH1 0xA0 SHL SUB NOT DUP2 AND DUP3 SSTORE DUP2 SWAP1 PUSH1 0x1 PUSH1 0x1 PUSH1 0xA0 SHL SUB AND PUSH32 0x8BE0079C531659141344CD1FD0A4F28419497F9722A3DAAFE3B4186F6B6457E0 DUP3 DUP1 LOG3 DUP1 RETURN JUMPDEST DUP1 REVERT JUMPDEST CALLVALUE PUSH2 0x187 JUMPI PUSH1 0x0 CALLDATASIZE PUSH1 0x3 NOT ADD SLT PUSH2 0x187 JUMPI PUSH1 0x40 MLOAD PUSH32 0x0 PUSH1 0x1 PUSH1 0x1 PUSH1 0xA0 SHL SUB AND DUP2 MSTORE PUSH1 0x20 SWAP1 RETURN JUMPDEST CALLVALUE PUSH2 0x187 JUMPI PUSH1 0x0 CALLDATASIZE PUSH1 0x3 NOT ADD SLT PUSH2 0x187 JUMPI PUSH1 0x0 SLOAD PUSH1 0x40 MLOAD PUSH1 0x1 PUSH1 0x1 PUSH1 0xA0 SHL SUB SWAP1 SWAP2 AND DUP2 MSTORE PUSH1 0x20 SWAP1 RETURN JUMPDEST CALLVALUE PUSH2 0x187 JUMPI PUSH1 0x0 CALLDATASIZE PUSH1 0x3 NOT ADD SLT PUSH2 0x187 JUMPI PUSH1 0x20 PUSH1 0x40 MLOAD PUSH32 0xA104A56070CF2F6CAB1C33C03F12FD2684EA8AC92AC84AE5A79E349B6C403456 DUP2 MSTORE RETURN JUMPDEST CALLVALUE PUSH2 0x187 JUMPI PUSH1 0x0 CALLDATASIZE PUSH1 0x3 NOT ADD SLT PUSH2 0x187 JUMPI PUSH1 0x20 PUSH1 0x40 MLOAD PUSH32 0x8268C934B1199325BD73B5A56815A80F530848C86AA4A1F743ED9AD6D89CC08F DUP2 MSTORE RETURN JUMPDEST CALLVALUE PUSH2 0x187 JUMPI PUSH1 0x20 CALLDATASIZE PUSH1 0x3 NOT ADD SLT PUSH2 0x187 JUMPI PUSH1 0x4 CALLDATALOAD PUSH1 0x0 MSTORE PUSH1 0x2 PUSH1 0x20 MSTORE PUSH1 0x80 PUSH1 0x40 PUSH1 0x0 KECCAK256 PUSH1 0x1 DUP1 PUSH1 0xA0 SHL SUB DUP2 SLOAD AND SWAP1 PUSH1 0x1 DUP2 ADD SLOAD SWAP1 PUSH1 0x3 PUSH1 0xFF PUSH1 0x2 DUP4 ADD SLOAD AND SWAP2 ADD SLOAD SWAP2 PUSH1 0x40 MLOAD SWAP4 DUP5 MSTORE PUSH1 0x20 DUP5 ADD MSTORE ISZERO ISZERO PUSH1 0x40 DUP4 ADD MSTORE PUSH1 0x60 DUP3 ADD MSTORE RETURN JUMPDEST CALLVALUE PUSH2 0x187 JUMPI PUSH1 0x0 CALLDATASIZE PUSH1 0x3 NOT ADD SLT PUSH2 0x187 JUMPI PUSH1 0x20 PUSH1 0x40 MLOAD PUSH1 0x43 DUP2 MSTORE RETURN JUMPDEST PUSH4 0x4E487B71 PUSH1 0xE0 SHL PUSH1 0x0 MSTORE PUSH1 0x41 PUSH1 0x4 MSTORE PUSH1 0x24 PUSH1 0x0 REVERT JUMPDEST PUSH8 0xFFFFFFFFFFFFFFFF DUP2 GT PUSH2 0x455 JUMPI PUSH1 0x40 MSTORE JUMP JUMPDEST PUSH2 0x42B JUMP JUMPDEST PUSH1 0x80 DUP2 ADD SWAP1 DUP2 LT PUSH8 0xFFFFFFFFFFFFFFFF DUP3 GT OR PUSH2 0x455 JUMPI PUSH1 0x40 MSTORE JUMP JUMPDEST PUSH1 0x40 DUP2 ADD SWAP1 DUP2 LT PUSH8 0xFFFFFFFFFFFFFFFF DUP3 GT OR PUSH2 0x455 JUMPI PUSH1 0x40 MSTORE JUMP JUMPDEST SWAP1 PUSH1 0x1F DUP1 NOT SWAP2 ADD AND DUP2 ADD SWAP1 DUP2 LT PUSH8 0xFFFFFFFFFFFFFFFF DUP3 GT OR PUSH2 0x455 JUMPI PUSH1 0x40 MSTORE JUMP JUMPDEST PUSH1 0x40 MLOAD SWAP1 PUSH2 0x4C1 DUP3 PUSH2 0x45A JUMP JUMPDEST JUMP JUMPDEST PUSH8 0xFFFFFFFFFFFFFFFF DUP2 GT PUSH2 0x455 JUMPI PUSH1 0x1F ADD PUSH1 0x1F NOT AND PUSH1 0x20 ADD SWAP1 JUMP JUMPDEST PUSH1 0x20 DUP1 DUP3 MSTORE DUP3 MLOAD DUP2 DUP4 ADD DUP2 SWAP1 MSTORE SWAP1 SWAP4 SWAP3 PUSH1 0x0 JUMPDEST DUP3 DUP2 LT PUSH2 0x514 JUMPI POP POP PUSH1 0x40 SWAP3 SWAP4 POP PUSH1 0x0 DUP4 DUP3 DUP5 ADD ADD MSTORE PUSH1 0x1F DUP1 NOT SWAP2 ADD AND ADD ADD SWAP1 JUMP JUMPDEST DUP2 DUP2 ADD DUP7 ADD MLOAD DUP5 DUP3 ADD PUSH1 0x40 ADD MSTORE DUP6 ADD PUSH2 0x4F2 JUMP JUMPDEST CALLVALUE PUSH2 0x187 JUMPI PUSH1 0x0 CALLDATASIZE PUSH1 0x3 NOT ADD SLT PUSH2 0x187 JUMPI PUSH2 0x572 PUSH1 0x40 MLOAD PUSH2 0x548 DUP2 PUSH2 0x476 JUMP JUMPDEST PUSH1 0x11 DUP2 MSTORE PUSH17 0x56454E4F4D2050696C6F74457363726F77 PUSH1 0x78 SHL PUSH1 0x20 DUP3 ADD MSTORE PUSH1 0x40 MLOAD SWAP2 DUP3 SWAP2 DUP3 PUSH2 0x4DF JUMP JUMPDEST SUB SWAP1 RETURN JUMPDEST CALLVALUE PUSH2 0x187 JUMPI PUSH1 0x0 CALLDATASIZE PUSH1 0x3 NOT ADD SLT PUSH2 0x187 JUMPI PUSH1 0x20 PUSH1 0x40 MLOAD PUSH2 0x1C20 DUP2 MSTORE RETURN JUMPDEST CALLVALUE PUSH2 0x187 JUMPI PUSH1 0x0 CALLDATASIZE PUSH1 0x3 NOT ADD SLT PUSH2 0x187 JUMPI PUSH1 0x20 PUSH1 0x1 SLOAD PUSH1 0x40 MLOAD SWAP1 DUP2 MSTORE RETURN JUMPDEST SWAP2 DUP2 PUSH1 0x1F DUP5 ADD SLT ISZERO PUSH2 0x187 JUMPI DUP3 CALLDATALOAD SWAP2 PUSH8 0xFFFFFFFFFFFFFFFF DUP4 GT PUSH2 0x187 JUMPI PUSH1 0x20 DUP1 DUP6 ADD SWAP5 DUP5 PUSH1 0x5 SHL ADD ADD GT PUSH2 0x187 JUMPI JUMP JUMPDEST CALLVALUE PUSH2 0x187 JUMPI PUSH1 0xA0 CALLDATASIZE PUSH1 0x3 NOT ADD SLT PUSH2 0x187 JUMPI PUSH8 0xFFFFFFFFFFFFFFFF PUSH1 0x24 CALLDATALOAD DUP2 DUP2 GT PUSH2 0x187 JUMPI PUSH2 0x614 SWAP1 CALLDATASIZE SWAP1 PUSH1 0x4 ADD PUSH2 0x5B1 JUMP JUMPDEST SWAP1 PUSH1 0x44 CALLDATALOAD DUP4 DUP2 GT PUSH2 0x187 JUMPI PUSH2 0x62D SWAP1 CALLDATASIZE SWAP1 PUSH1 0x4 ADD PUSH2 0x5B1 JUMP JUMPDEST SWAP1 PUSH1 0x64 CALLDATALOAD DUP6 DUP2 GT PUSH2 0x187 JUMPI PUSH2 0x646 SWAP1 CALLDATASIZE SWAP1 PUSH1 0x4 ADD PUSH2 0x5B1 JUMP JUMPDEST SWAP3 SWAP1 SWAP2 PUSH1 0x84 CALLDATALOAD SWAP7 DUP8 GT PUSH2 0x187 JUMPI PUSH2 0x664 PUSH2 0x66F SWAP8 CALLDATASIZE SWAP1 PUSH1 0x4 ADD PUSH2 0x5B1 JUMP JUMPDEST SWAP7 SWAP1 SWAP6 PUSH1 0x4 CALLDATALOAD PUSH2 0xE57 JUMP JUMPDEST STOP JUMPDEST CALLVALUE PUSH2 0x187 JUMPI PUSH1 0x0 CALLDATASIZE PUSH1 0x3 NOT ADD SLT PUSH2 0x187 JUMPI PUSH1 0x20 PUSH1 0x40 MLOAD PUSH1 0x19 DUP2 MSTORE RETURN JUMPDEST PUSH1 0x20 CALLDATASIZE PUSH1 0x3 NOT ADD SLT PUSH2 0x187 JUMPI PUSH1 0x4 CALLDATALOAD CALLVALUE ISZERO PUSH2 0x78A JUMPI PUSH1 0x0 DUP2 DUP2 MSTORE PUSH1 0x2 PUSH1 0x20 MSTORE PUSH1 0x40 SWAP1 KECCAK256 PUSH2 0x6D6 SWAP1 PUSH1 0x1 PUSH1 0x1 PUSH1 0xA0 SHL SUB SWAP1 PUSH2 0x6CF SWAP1 JUMPDEST SLOAD PUSH1 0x1 PUSH1 0x1 PUSH1 0xA0 SHL SUB AND SWAP1 JUMP JUMPDEST AND ISZERO PUSH2 0xA25 JUMP JUMPDEST PUSH2 0x759 PUSH2 0x6E1 PUSH2 0x4B4 JUMP JUMPDEST CALLER DUP2 MSTORE CALLVALUE PUSH1 0x20 DUP3 ADD MSTORE PUSH1 0x0 PUSH1 0x40 DUP3 ADD MSTORE NUMBER PUSH1 0x60 DUP3 ADD MSTORE PUSH2 0x70B DUP4 PUSH1 0x0 MSTORE PUSH1 0x2 PUSH1 0x20 MSTORE PUSH1 0x40 PUSH1 0x0 KECCAK256 SWAP1 JUMP JUMPDEST SWAP1 PUSH1 0x60 PUSH1 0x3 SWAP2 PUSH1 0x1 DUP1 PUSH1 0xA0 SHL SUB DUP2 MLOAD AND PUSH12 0xFFFFFFFFFFFFFFFFFFFFFFFF PUSH1 0xA0 SHL DUP6 SLOAD AND OR DUP5 SSTORE PUSH1 0x20 DUP2 ADD MLOAD PUSH1 0x1 DUP6 ADD SSTORE PUSH1 0x2 DUP5 ADD PUSH1 0x40 DUP3 ADD MLOAD ISZERO ISZERO PUSH1 0xFF DUP1 NOT DUP4 SLOAD AND SWAP2 AND OR SWAP1 SSTORE ADD MLOAD SWAP2 ADD SSTORE JUMP JUMPDEST PUSH1 0x40 MLOAD CALLVALUE DUP2 MSTORE CALLER SWAP2 SWAP1 PUSH32 0xF5317246B1280F9CDFA4E36ED4CF0D02B1F02180E7EA02F9271CB356EB37469E SWAP1 PUSH1 0x20 SWAP1 LOG3 STOP JUMPDEST PUSH1 0x40 MLOAD PUSH3 0x461BCD PUSH1 0xE5 SHL DUP2 MSTORE PUSH1 0x20 PUSH1 0x4 DUP3 ADD MSTORE PUSH1 0x12 PUSH1 0x24 DUP3 ADD MSTORE PUSH18 0x426F756E7479206D757374206265203E203 PUSH1 0x74 SHL PUSH1 0x44 DUP3 ADD MSTORE PUSH1 0x64 SWAP1 REVERT JUMPDEST CALLVALUE PUSH2 0x187 JUMPI PUSH1 0x20 CALLDATASIZE PUSH1 0x3 NOT ADD SLT PUSH2 0x187 JUMPI PUSH1 0x4 CALLDATALOAD PUSH2 0x7EC DUP2 PUSH1 0x0 MSTORE PUSH1 0x2 PUSH1 0x20 MSTORE PUSH1 0x40 PUSH1 0x0 KECCAK256 SWAP1 JUMP JUMPDEST PUSH1 0x1 PUSH1 0x2 DUP3 ADD SWAP2 PUSH2 0x80D PUSH2 0x808 PUSH2 0x804 DUP6 SLOAD PUSH1 0xFF AND SWAP1 JUMP JUMPDEST ISZERO SWAP1 JUMP JUMPDEST PUSH2 0x117A JUMP JUMPDEST DUP1 SLOAD PUSH2 0x82B SWAP1 PUSH1 0x1 PUSH1 0x1 PUSH1 0xA0 SHL SUB AND CALLER SWAP1 DUP5 DUP1 PUSH1 0xA0 SHL SUB AND EQ PUSH2 0x11B7 JUMP JUMPDEST PUSH2 0x843 PUSH2 0x83B PUSH1 0x3 DUP4 ADD SLOAD PUSH2 0xCD4 JUMP JUMPDEST NUMBER LT ISZERO PUSH2 0x11F0 JUMP JUMPDEST ADD SLOAD SWAP1 PUSH2 0x875 PUSH2 0x867 PUSH2 0x860 PUSH2 0x858 DUP6 PUSH2 0xC4C JUMP JUMPDEST PUSH2 0x2710 SWAP1 DIV SWAP1 JUMP JUMPDEST DUP1 SWAP5 PUSH2 0xDDC JUMP JUMPDEST DUP3 SLOAD PUSH1 0xFF NOT AND PUSH1 0x1 OR SWAP1 SWAP3 SSTORE JUMP JUMPDEST PUSH2 0x889 PUSH2 0x884 DUP4 PUSH1 0x1 SLOAD PUSH2 0xCF1 JUMP JUMPDEST PUSH1 0x1 SSTORE JUMP JUMPDEST PUSH1 0x0 SWAP3 PUSH2 0x8A5 DUP5 DUP1 DUP1 DUP1 DUP7 CALLER GAS CALL PUSH2 0x89F PUSH2 0xDE9 JUMP JUMPDEST POP PUSH2 0x1232 JUMP JUMPDEST PUSH1 0x40 DUP1 MLOAD SWAP3 DUP4 MSTORE PUSH1 0x20 DUP4 ADD DUP5 SWAP1 MSTORE CALLER SWAP3 PUSH32 0x5943943AEF3C1E82BAC1C27B3C6C60626E71A3CD8B8F043AE90D81F9CE562045 SWAP2 SWAP1 LOG3 DUP1 PUSH2 0x8E2 JUMPI POP DUP1 RETURN JUMPDEST PUSH1 0x40 DUP1 MLOAD SWAP2 DUP3 MSTORE PUSH1 0x20 DUP3 ADD DUP2 SWAP1 MSTORE PUSH1 0xC SWAP1 DUP3 ADD MSTORE PUSH12 0x31B0B731B2B63630BA34B7B7 PUSH1 0xA1 SHL PUSH1 0x60 DUP3 ADD MSTORE PUSH32 0x6E1C1EE1A957869AE438F34B318915839A2C3475E6F699881555A4140747FD7D SWAP1 PUSH1 0x80 SWAP1 LOG1 DUP1 RETURN JUMPDEST CALLVALUE PUSH2 0x187 JUMPI PUSH1 0x20 CALLDATASIZE PUSH1 0x3 NOT ADD SLT PUSH2 0x187 JUMPI PUSH1 0x1 PUSH1 0x1 PUSH1 0xA0 SHL SUB PUSH1 0x4 CALLDATALOAD DUP2 DUP2 AND SWAP1 DUP2 SWAP1 SUB PUSH2 0x187 JUMPI PUSH2 0x963 PUSH2 0x9F9 JUMP JUMPDEST DUP1 ISZERO PUSH2 0x9A6 JUMPI PUSH1 0x0 DUP1 SLOAD PUSH1 0x1 PUSH1 0x1 PUSH1 0xA0 SHL SUB NOT DUP2 AND DUP4 OR DUP3 SSTORE SWAP1 SWAP3 AND PUSH32 0x8BE0079C531659141344CD1FD0A4F28419497F9722A3DAAFE3B4186F6B6457E0 DUP4 DUP1 LOG3 DUP1 RETURN JUMPDEST PUSH1 0x40 MLOAD PUSH4 0x1E4FBDF7 PUSH1 0xE0 SHL DUP2 MSTORE PUSH1 0x0 PUSH1 0x4 DUP3 ADD MSTORE PUSH1 0x24 SWAP1 REVERT JUMPDEST CALLVALUE PUSH2 0x187 JUMPI PUSH1 0x0 CALLDATASIZE PUSH1 0x3 NOT ADD SLT PUSH2 0x187 JUMPI PUSH2 0x572 PUSH1 0x40 MLOAD PUSH2 0x9DF DUP2 PUSH2 0x476 JUMP JUMPDEST PUSH1 0x1 DUP2 MSTORE PUSH1 0x31 PUSH1 0xF8 SHL PUSH1 0x20 DUP3 ADD MSTORE PUSH1 0x40 MLOAD SWAP2 DUP3 SWAP2 DUP3 PUSH2 0x4DF JUMP JUMPDEST PUSH1 0x0 SLOAD PUSH1 0x1 PUSH1 0x1 PUSH1 0xA0 SHL SUB AND CALLER SUB PUSH2 0xA0D JUMPI JUMP JUMPDEST PUSH1 0x40 MLOAD PUSH4 0x118CDAA7 PUSH1 0xE0 SHL DUP2 MSTORE CALLER PUSH1 0x4 DUP3 ADD MSTORE PUSH1 0x24 SWAP1 REVERT JUMPDEST ISZERO PUSH2 0xA2C JUMPI JUMP JUMPDEST PUSH1 0x40 MLOAD PUSH3 0x461BCD PUSH1 0xE5 SHL DUP2 MSTORE PUSH1 0x20 PUSH1 0x4 DUP3 ADD MSTORE PUSH1 0x17 PUSH1 0x24 DUP3 ADD MSTORE PUSH32 0x43616D706169676E20616C726561647920657869737473000000000000000000 PUSH1 0x44 DUP3 ADD MSTORE PUSH1 0x64 SWAP1 REVERT JUMPDEST ISZERO PUSH2 0xA78 JUMPI JUMP JUMPDEST PUSH1 0x40 MLOAD PUSH3 0x461BCD PUSH1 0xE5 SHL DUP2 MSTORE PUSH1 0x20 PUSH1 0x4 DUP3 ADD MSTORE PUSH1 0x17 PUSH1 0x24 DUP3 ADD MSTORE PUSH32 0x43616D706169676E20616C726561647920636C6F736564000000000000000000 PUSH1 0x44 DUP3 ADD MSTORE PUSH1 0x64 SWAP1 REVERT JUMPDEST ISZERO PUSH2 0xAC4 JUMPI JUMP JUMPDEST PUSH1 0x40 MLOAD PUSH3 0x461BCD PUSH1 0xE5 SHL DUP2 MSTORE PUSH1 0x20 PUSH1 0x4 DUP3 ADD MSTORE PUSH1 0x13 PUSH1 0x24 DUP3 ADD MSTORE PUSH19 0x10D85B5C185A59DB881B9BDD08199D5B991959 PUSH1 0x6A SHL PUSH1 0x44 DUP3 ADD MSTORE PUSH1 0x64 SWAP1 REVERT JUMPDEST ISZERO PUSH2 0xB06 JUMPI JUMP JUMPDEST PUSH1 0x40 MLOAD PUSH3 0x461BCD PUSH1 0xE5 SHL DUP2 MSTORE PUSH1 0x20 PUSH1 0x4 DUP3 ADD MSTORE PUSH1 0x15 PUSH1 0x24 DUP3 ADD MSTORE PUSH21 0xA6C6DEE4CA40D8CADCCEE8D040DAD2E6DAC2E8C6D PUSH1 0x5B SHL PUSH1 0x44 DUP3 ADD MSTORE PUSH1 0x64 SWAP1 REVERT JUMPDEST ISZERO PUSH2 0xB4A JUMPI JUMP JUMPDEST PUSH1 0x40 MLOAD PUSH3 0x461BCD PUSH1 0xE5 SHL DUP2 MSTORE PUSH1 0x20 PUSH1 0x4 DUP3 ADD MSTORE PUSH1 0x17 PUSH1 0x24 DUP3 ADD MSTORE PUSH32 0x4162737461696E206C656E677468206D69736D61746368000000000000000000 PUSH1 0x44 DUP3 ADD MSTORE PUSH1 0x64 SWAP1 REVERT JUMPDEST SWAP1 DUP2 PUSH1 0x20 SWAP2 SUB SLT PUSH2 0x187 JUMPI MLOAD SWAP1 JUMP JUMPDEST PUSH1 0x40 MLOAD RETURNDATASIZE PUSH1 0x0 DUP3 RETURNDATACOPY RETURNDATASIZE SWAP1 REVERT JUMPDEST ISZERO PUSH2 0xBB1 JUMPI JUMP JUMPDEST PUSH1 0x40 MLOAD PUSH3 0x461BCD PUSH1 0xE5 SHL DUP2 MSTORE PUSH1 0x20 PUSH1 0x4 DUP3 ADD MSTORE PUSH1 0x11 PUSH1 0x24 DUP3 ADD MSTORE PUSH17 0x4E6F20616374697665206F7261636C6573 PUSH1 0x78 SHL PUSH1 0x44 DUP3 ADD MSTORE PUSH1 0x64 SWAP1 REVERT JUMPDEST ISZERO PUSH2 0xBF1 JUMPI JUMP JUMPDEST PUSH1 0x40 MLOAD PUSH3 0x461BCD PUSH1 0xE5 SHL DUP2 MSTORE PUSH1 0x20 PUSH1 0x4 DUP3 ADD MSTORE PUSH1 0x1A PUSH1 0x24 DUP3 ADD MSTORE PUSH32 0x42656C6F77206162736F6C7574652073636F726520666C6F6F72000000000000 PUSH1 0x44 DUP3 ADD MSTORE PUSH1 0x64 SWAP1 REVERT JUMPDEST PUSH4 0x4E487B71 PUSH1 0xE0 SHL PUSH1 0x0 MSTORE PUSH1 0x11 PUSH1 0x4 MSTORE PUSH1 0x24 PUSH1 0x0 REVERT JUMPDEST SWAP1 PUSH1 0x64 DUP3 MUL SWAP2 DUP1 DUP4 DIV PUSH1 0x64 EQ SWAP1 ISZERO OR ISZERO PUSH2 0xC62 JUMPI JUMP JUMPDEST PUSH2 0xC36 JUMP JUMPDEST SWAP1 PUSH1 0x32 DUP3 MUL SWAP2 DUP1 DUP4 DIV PUSH1 0x32 EQ SWAP1 ISZERO OR ISZERO PUSH2 0xC62 JUMPI JUMP JUMPDEST SWAP1 PUSH1 0x43 DUP3 MUL SWAP2 DUP1 DUP4 DIV PUSH1 0x43 EQ SWAP1 ISZERO OR ISZERO PUSH2 0xC62 JUMPI JUMP JUMPDEST ISZERO PUSH2 0xC9A JUMPI JUMP JUMPDEST PUSH1 0x40 MLOAD PUSH3 0x461BCD PUSH1 0xE5 SHL DUP2 MSTORE PUSH1 0x20 PUSH1 0x4 DUP3 ADD MSTORE PUSH1 0x12 PUSH1 0x24 DUP3 ADD MSTORE PUSH18 0x42656C6F772073636F72652071756F72756D PUSH1 0x70 SHL PUSH1 0x44 DUP3 ADD MSTORE PUSH1 0x64 SWAP1 REVERT JUMPDEST SWAP1 PUSH2 0x1C20 DUP3 ADD DUP1 SWAP3 GT PUSH2 0xC62 JUMPI JUMP JUMPDEST SWAP1 PUSH1 0x1 DUP3 ADD DUP1 SWAP3 GT PUSH2 0xC62 JUMPI JUMP JUMPDEST SWAP2 SWAP1 DUP3 ADD DUP1 SWAP3 GT PUSH2 0xC62 JUMPI JUMP JUMPDEST ISZERO PUSH2 0xD05 JUMPI JUMP JUMPDEST PUSH1 0x40 MLOAD PUSH3 0x461BCD PUSH1 0xE5 SHL DUP2 MSTORE PUSH1 0x20 PUSH1 0x4 DUP3 ADD MSTORE PUSH1 0x19 PUSH1 0x24 DUP3 ADD MSTORE PUSH32 0x42656C6F772070617274696369706174696F6E20666C6F6F7200000000000000 PUSH1 0x44 DUP3 ADD MSTORE PUSH1 0x64 SWAP1 REVERT JUMPDEST ISZERO PUSH2 0xD51 JUMPI JUMP JUMPDEST PUSH1 0x40 MLOAD PUSH3 0x461BCD PUSH1 0xE5 SHL DUP2 MSTORE PUSH1 0x20 PUSH1 0x4 DUP3 ADD MSTORE PUSH1 0x16 PUSH1 0x24 DUP3 ADD MSTORE PUSH22 0x1359591A585B8818995B1BDDC81D1A1C995CDA1BDB19 PUSH1 0x52 SHL PUSH1 0x44 DUP3 ADD MSTORE PUSH1 0x64 SWAP1 REVERT JUMPDEST PUSH1 0x0 NOT DUP2 EQ PUSH2 0xC62 JUMPI PUSH1 0x1 ADD SWAP1 JUMP JUMPDEST PUSH4 0x4E487B71 PUSH1 0xE0 SHL PUSH1 0x0 MSTORE PUSH1 0x32 PUSH1 0x4 MSTORE PUSH1 0x24 PUSH1 0x0 REVERT JUMPDEST DUP1 MLOAD DUP3 LT ISZERO PUSH2 0xDC8 JUMPI PUSH1 0x20 SWAP2 PUSH1 0x5 SHL ADD ADD SWAP1 JUMP JUMPDEST PUSH2 0xD9E JUMP JUMPDEST PUSH1 0x0 NOT DUP2 ADD SWAP2 SWAP1 DUP3 GT PUSH2 0xC62 JUMPI JUMP JUMPDEST SWAP2 SWAP1 DUP3 SUB SWAP2 DUP3 GT PUSH2 0xC62 JUMPI JUMP JUMPDEST RETURNDATASIZE ISZERO PUSH2 0xE14 JUMPI RETURNDATASIZE SWAP1 PUSH2 0xDFA DUP3 PUSH2 0x4C3 JUMP JUMPDEST SWAP2 PUSH2 0xE08 PUSH1 0x40 MLOAD SWAP4 DUP5 PUSH2 0x492 JUMP JUMPDEST DUP3 MSTORE RETURNDATASIZE PUSH1 0x0 PUSH1 0x20 DUP5 ADD RETURNDATACOPY JUMP JUMPDEST PUSH1 0x60 SWAP1 JUMP JUMPDEST ISZERO PUSH2 0xE20 JUMPI JUMP JUMPDEST PUSH1 0x40 MLOAD PUSH3 0x461BCD PUSH1 0xE5 SHL DUP2 MSTORE PUSH1 0x20 PUSH1 0x4 DUP3 ADD MSTORE PUSH1 0xF PUSH1 0x24 DUP3 ADD MSTORE PUSH15 0x151C985B9CD9995C8819985A5B1959 PUSH1 0x8A SHL PUSH1 0x44 DUP3 ADD MSTORE PUSH1 0x64 SWAP1 REVERT JUMPDEST SWAP7 SWAP8 SWAP3 SWAP4 SWAP5 SWAP2 SWAP6 SWAP1 PUSH2 0xE73 DUP9 PUSH1 0x0 MSTORE PUSH1 0x2 PUSH1 0x20 MSTORE PUSH1 0x40 PUSH1 0x0 KECCAK256 SWAP1 JUMP JUMPDEST SWAP6 PUSH1 0x2 DUP8 ADD SWAP6 DUP7 SLOAD PUSH2 0xE85 SWAP1 PUSH1 0xFF AND SWAP1 JUMP JUMPDEST ISZERO PUSH2 0xE8F SWAP1 PUSH2 0xA71 JUMP JUMPDEST DUP8 SLOAD PUSH1 0x1 PUSH1 0x1 PUSH1 0xA0 SHL SUB SWAP10 SWAP1 PUSH2 0xEA8 SWAP1 DUP12 AND ISZERO ISZERO PUSH2 0xABD JUMP JUMPDEST PUSH2 0xEB3 DUP2 DUP5 EQ PUSH2 0xAFF JUMP JUMPDEST PUSH2 0xEBE DUP6 DUP9 EQ PUSH2 0xB43 JUMP JUMPDEST PUSH2 0xEC8 SWAP4 DUP12 PUSH2 0x1359 JUMP JUMPDEST SWAP5 DUP2 SWAP11 PUSH2 0xED8 SWAP5 DUP8 SWAP5 SWAP7 DUP13 PUSH2 0x14EA JUMP JUMPDEST SWAP1 DUP6 PUSH32 0x0 AND SWAP1 PUSH1 0x40 SWAP9 DUP10 MLOAD PUSH4 0x17950D5F PUSH1 0xE3 SHL DUP2 MSTORE PUSH1 0x4 SWAP5 DUP5 DUP3 DUP8 DUP2 GAS SWAP4 PUSH1 0x20 SWAP5 STATICCALL SWAP1 DUP2 ISZERO PUSH2 0x111E JUMPI PUSH2 0xF83 SWAP3 PUSH1 0x0 SWAP3 PUSH2 0x113E JUMPI JUMPDEST POP PUSH2 0xF76 PUSH2 0xF71 PUSH2 0xF7C SWAP3 PUSH2 0xF42 DUP6 ISZERO ISZERO PUSH2 0xBAA JUMP JUMPDEST PUSH2 0xF4F PUSH1 0x5 DUP13 LT ISZERO PUSH2 0xBEA JUMP JUMPDEST PUSH2 0xF6B PUSH2 0xF5B DUP13 PUSH2 0xC4C JUMP JUMPDEST PUSH2 0xF64 DUP8 PUSH2 0xC67 JUMP JUMPDEST GT ISZERO PUSH2 0xC93 JUMP JUMPDEST DUP11 PUSH2 0xCF1 JUMP JUMPDEST PUSH2 0xC4C JUMP JUMPDEST SWAP2 PUSH2 0xC7D JUMP JUMPDEST GT ISZERO PUSH2 0xCFE JUMP JUMPDEST PUSH2 0xFAB PUSH2 0xF90 DUP7 DUP5 PUSH2 0x1831 JUMP JUMPDEST SWAP7 PUSH2 0xF9E PUSH1 0x3C DUP10 LT ISZERO PUSH2 0xD4A JUMP JUMPDEST DUP1 SLOAD PUSH1 0xFF NOT AND PUSH1 0x1 OR SWAP1 SSTORE JUMP JUMPDEST PUSH1 0x0 JUMPDEST DUP6 DUP2 LT PUSH2 0x1046 JUMPI POP POP POP POP POP POP SWAP1 PUSH2 0x1041 PUSH32 0x52451B0C080B6BEE6B75806CA36BD4CDD6DACC3C3834B1EA4962B37A24CBC18C SWAP4 SWAP3 PUSH2 0x1028 PUSH2 0x1007 PUSH2 0xFFB PUSH2 0xFFB DUP7 SLOAD PUSH1 0x1 DUP1 PUSH1 0xA0 SHL SUB AND SWAP1 JUMP JUMPDEST PUSH1 0x1 PUSH1 0x1 PUSH1 0xA0 SHL SUB AND SWAP1 JUMP JUMPDEST SWAP4 PUSH2 0x6C2 PUSH1 0x0 DUP1 DUP1 DUP1 PUSH1 0x1 DUP7 ADD SWAP10 DUP11 SLOAD SWAP1 GAS CALL PUSH2 0x1022 PUSH2 0xDE9 JUMP JUMPDEST POP PUSH2 0xE19 JUMP JUMPDEST SWAP3 SLOAD SWAP7 MLOAD SWAP7 DUP8 MSTORE PUSH1 0x20 DUP8 ADD MSTORE SWAP2 AND SWAP4 SWAP1 DUP2 SWAP1 PUSH1 0x40 DUP3 ADD SWAP1 JUMP JUMPDEST SUB SWAP1 LOG3 JUMP JUMPDEST DUP7 PUSH2 0x1051 DUP3 DUP6 PUSH2 0xDB4 JUMP JUMPDEST MLOAD GT ISZERO PUSH2 0x1123 JUMPI PUSH1 0x19 PUSH2 0x106E DUP9 PUSH2 0x1068 DUP5 DUP8 PUSH2 0xDB4 JUMP JUMPDEST MLOAD PUSH2 0xDDC JUMP JUMPDEST GT PUSH2 0x1082 JUMPI JUMPDEST PUSH2 0x107D SWAP1 PUSH2 0xD8F JUMP JUMPDEST PUSH2 0xFAE JUMP JUMPDEST PUSH2 0x109C PUSH2 0x108F DUP3 DUP5 PUSH2 0xDB4 JUMP JUMPDEST MLOAD PUSH1 0x1 PUSH1 0x1 PUSH1 0xA0 SHL SUB AND SWAP1 JUMP JUMPDEST SWAP1 PUSH2 0x10A7 DUP2 DUP6 PUSH2 0xDB4 JUMP JUMPDEST MLOAD SWAP2 DUP6 EXTCODESIZE ISZERO PUSH2 0x187 JUMPI DUP13 MLOAD PUSH4 0x18DBD273 PUSH1 0xE0 SHL DUP2 MSTORE PUSH1 0x1 PUSH1 0x1 PUSH1 0xA0 SHL SUB SWAP1 SWAP2 AND DUP8 DUP3 ADD SWAP1 DUP2 MSTORE PUSH1 0x20 DUP2 ADD SWAP4 SWAP1 SWAP4 MSTORE PUSH1 0x40 DUP4 ADD DUP10 SWAP1 MSTORE SWAP2 PUSH1 0x0 SWAP1 DUP4 SWAP1 DUP2 SWAP1 PUSH1 0x60 ADD SUB DUP2 DUP4 DUP10 GAS CALL SWAP2 DUP3 ISZERO PUSH2 0x111E JUMPI PUSH2 0x107D SWAP3 PUSH2 0x1105 JUMPI JUMPDEST POP SWAP1 POP PUSH2 0x1074 JUMP JUMPDEST DUP1 PUSH2 0x1112 PUSH2 0x1118 SWAP3 PUSH2 0x441 JUMP JUMPDEST DUP1 PUSH2 0x17C JUMP JUMPDEST CODESIZE PUSH2 0x10FD JUMP JUMPDEST PUSH2 0xB9E JUMP JUMPDEST PUSH1 0x19 PUSH2 0x1139 PUSH2 0x1132 DUP4 DUP7 PUSH2 0xDB4 JUMP JUMPDEST MLOAD DUP10 PUSH2 0xDDC JUMP JUMPDEST PUSH2 0x106E JUMP JUMPDEST PUSH2 0xF7C SWAP2 SWAP3 POP PUSH2 0xF71 PUSH2 0x116A PUSH2 0xF76 SWAP3 PUSH1 0x20 RETURNDATASIZE DUP2 GT PUSH2 0x1173 JUMPI JUMPDEST PUSH2 0x1162 DUP2 DUP4 PUSH2 0x492 JUMP JUMPDEST DUP2 ADD SWAP1 PUSH2 0xB8F JUMP JUMPDEST SWAP4 SWAP3 POP POP PUSH2 0xF2C JUMP JUMPDEST POP RETURNDATASIZE PUSH2 0x1158 JUMP JUMPDEST ISZERO PUSH2 0x1181 JUMPI JUMP JUMPDEST PUSH1 0x40 MLOAD PUSH3 0x461BCD PUSH1 0xE5 SHL DUP2 MSTORE PUSH1 0x20 PUSH1 0x4 DUP3 ADD MSTORE PUSH1 0xE PUSH1 0x24 DUP3 ADD MSTORE PUSH14 0x105B1C9958591E4818DB1BDCD959 PUSH1 0x92 SHL PUSH1 0x44 DUP3 ADD MSTORE PUSH1 0x64 SWAP1 REVERT JUMPDEST ISZERO PUSH2 0x11BE JUMPI JUMP JUMPDEST PUSH1 0x40 MLOAD PUSH3 0x461BCD PUSH1 0xE5 SHL DUP2 MSTORE PUSH1 0x20 PUSH1 0x4 DUP3 ADD MSTORE PUSH1 0xA PUSH1 0x24 DUP3 ADD MSTORE PUSH10 0x2737BA10333AB73232B9 PUSH1 0xB1 SHL PUSH1 0x44 DUP3 ADD MSTORE PUSH1 0x64 SWAP1 REVERT JUMPDEST ISZERO PUSH2 0x11F7 JUMPI JUMP JUMPDEST PUSH1 0x40 MLOAD PUSH3 0x461BCD PUSH1 0xE5 SHL DUP2 MSTORE PUSH1 0x20 PUSH1 0x4 DUP3 ADD MSTORE PUSH1 0x13 PUSH1 0x24 DUP3 ADD MSTORE PUSH19 0x151A5B595BDD5D081B9BDD081C995858DA1959 PUSH1 0x6A SHL PUSH1 0x44 DUP3 ADD MSTORE PUSH1 0x64 SWAP1 REVERT JUMPDEST ISZERO PUSH2 0x1239 JUMPI JUMP JUMPDEST PUSH1 0x40 MLOAD PUSH3 0x461BCD PUSH1 0xE5 SHL DUP2 MSTORE PUSH1 0x20 PUSH1 0x4 DUP3 ADD MSTORE PUSH1 0xD PUSH1 0x24 DUP3 ADD MSTORE PUSH13 0x1499599D5B990819985A5B1959 PUSH1 0x9A SHL PUSH1 0x44 DUP3 ADD MSTORE PUSH1 0x64 SWAP1 REVERT JUMPDEST PUSH8 0xFFFFFFFFFFFFFFFF DUP2 GT PUSH2 0x455 JUMPI PUSH1 0x5 SHL PUSH1 0x20 ADD SWAP1 JUMP JUMPDEST SWAP1 PUSH2 0x1290 DUP3 PUSH2 0x126E JUMP JUMPDEST PUSH2 0x129D PUSH1 0x40 MLOAD SWAP2 DUP3 PUSH2 0x492 JUMP JUMPDEST DUP3 DUP2 MSTORE DUP1 SWAP3 PUSH2 0x12AE PUSH1 0x1F NOT SWAP2 PUSH2 0x126E JUMP JUMPDEST ADD SWAP1 PUSH1 0x20 CALLDATASIZE SWAP2 ADD CALLDATACOPY JUMP JUMPDEST SWAP2 SWAP1 DUP2 LT ISZERO PUSH2 0xDC8 JUMPI PUSH1 0x5 SHL ADD SWAP1 JUMP JUMPDEST SWAP2 SWAP1 DUP2 LT ISZERO PUSH2 0xDC8 JUMPI PUSH1 0x5 SHL DUP2 ADD CALLDATALOAD SWAP1 PUSH1 0x1E NOT DUP2 CALLDATASIZE SUB ADD DUP3 SLT ISZERO PUSH2 0x187 JUMPI ADD SWAP1 DUP2 CALLDATALOAD SWAP2 PUSH8 0xFFFFFFFFFFFFFFFF DUP4 GT PUSH2 0x187 JUMPI PUSH1 0x20 ADD DUP3 CALLDATASIZE SUB DUP2 SGT PUSH2 0x187 JUMPI SWAP2 SWAP1 JUMP JUMPDEST SWAP3 SWAP2 SWAP3 PUSH2 0x1316 DUP3 PUSH2 0x4C3 JUMP JUMPDEST SWAP2 PUSH2 0x1324 PUSH1 0x40 MLOAD SWAP4 DUP5 PUSH2 0x492 JUMP JUMPDEST DUP3 SWAP5 DUP2 DUP5 MSTORE DUP2 DUP4 ADD GT PUSH2 0x187 JUMPI DUP3 DUP2 PUSH1 0x20 SWAP4 DUP5 PUSH1 0x0 SWAP7 ADD CALLDATACOPY ADD ADD MSTORE JUMP JUMPDEST SWAP1 DUP2 PUSH1 0x20 SWAP2 SUB SLT PUSH2 0x187 JUMPI MLOAD DUP1 ISZERO ISZERO DUP2 SUB PUSH2 0x187 JUMPI SWAP1 JUMP JUMPDEST SWAP4 SWAP3 SWAP1 SWAP5 SWAP2 SWAP5 PUSH1 0x0 SWAP4 PUSH2 0x136B DUP8 PUSH2 0x1286 JUMP JUMPDEST SWAP7 PUSH2 0x1375 DUP2 PUSH2 0x1286 JUMP JUMPDEST SWAP7 PUSH1 0x0 SWAP5 JUMPDEST DUP3 DUP7 LT PUSH2 0x1389 JUMPI POP POP POP POP POP POP JUMP JUMPDEST SWAP1 SWAP2 SWAP3 SWAP4 SWAP5 SWAP7 PUSH2 0x13BA PUSH2 0x139D DUP10 DUP7 DUP10 PUSH2 0x12B8 JUMP JUMPDEST CALLDATALOAD PUSH2 0x13B3 PUSH2 0x13AC DUP12 DUP10 DUP8 PUSH2 0x12C8 JUMP JUMPDEST CALLDATASIZE SWAP2 PUSH2 0x130A JUMP JUMPDEST SWAP1 DUP6 PUSH2 0x167E JUMP JUMPDEST PUSH1 0x1 PUSH1 0x1 PUSH1 0xA0 SHL SUB DUP2 AND ISZERO PUSH2 0x14A4 JUMPI PUSH1 0x40 MLOAD PUSH4 0x3AE9B8F1 PUSH1 0xE0 SHL DUP2 MSTORE PUSH1 0x1 PUSH1 0x1 PUSH1 0xA0 SHL SUB DUP3 AND PUSH1 0x4 DUP3 ADD MSTORE PUSH1 0x20 SWAP1 DUP2 DUP2 DUP1 PUSH1 0x24 DUP2 ADD SUB DUP2 PUSH32 0x0 PUSH1 0x1 PUSH1 0x1 PUSH1 0xA0 SHL SUB AND GAS STATICCALL SWAP2 DUP3 ISZERO PUSH2 0x111E JUMPI PUSH1 0x0 SWAP3 PUSH2 0x14AF JUMPI JUMPDEST POP POP ISZERO PUSH2 0x14A4 JUMPI DUP10 DUP12 PUSH2 0x1440 DUP4 DUP6 DUP5 PUSH2 0x1634 JUMP JUMPDEST PUSH2 0x1497 JUMPI PUSH2 0x1487 SWAP3 PUSH2 0x1473 DUP6 DUP1 SWAP5 PUSH2 0x1482 SWAP5 DUP16 PUSH2 0x148D SWAP10 DUP16 PUSH2 0x146D SWAP3 DUP16 PUSH2 0x1466 SWAP3 PUSH2 0x12B8 JUMP JUMPDEST CALLDATALOAD SWAP3 PUSH2 0xDB4 JUMP JUMPDEST MSTORE PUSH2 0xDB4 JUMP JUMPDEST PUSH1 0x1 PUSH1 0x1 PUSH1 0xA0 SHL SUB SWAP1 SWAP2 AND SWAP1 MSTORE JUMP JUMPDEST PUSH2 0xD8F JUMP JUMPDEST SWAP8 PUSH2 0xD8F JUMP JUMPDEST SWAP5 SWAP4 SWAP3 SWAP2 SWAP1 PUSH2 0x137A JUMP JUMPDEST POP POP POP SWAP7 PUSH2 0x148D SWAP1 PUSH2 0xD8F JUMP JUMPDEST POP SWAP7 PUSH2 0x148D SWAP1 PUSH2 0xD8F JUMP JUMPDEST PUSH2 0x14CE SWAP3 POP DUP1 RETURNDATASIZE LT PUSH2 0x14D5 JUMPI JUMPDEST PUSH2 0x14C6 DUP2 DUP4 PUSH2 0x492 JUMP JUMPDEST DUP2 ADD SWAP1 PUSH2 0x1341 JUMP JUMPDEST CODESIZE DUP1 PUSH2 0x142C JUMP JUMPDEST POP RETURNDATASIZE PUSH2 0x14BC JUMP JUMPDEST CALLDATALOAD PUSH1 0xFF DUP2 AND DUP2 SUB PUSH2 0x187 JUMPI SWAP1 JUMP JUMPDEST SWAP1 SWAP3 SWAP5 SWAP7 SWAP6 SWAP4 SWAP2 SWAP4 PUSH1 0x0 SWAP8 PUSH1 0x0 SWAP6 PUSH2 0x1501 DUP2 PUSH2 0x1286 JUMP JUMPDEST SWAP4 DUP8 SWAP9 PUSH1 0x1 DUP1 PUSH1 0xA0 SHL SUB SWAP7 DUP8 PUSH32 0x0 AND SWAP4 JUMPDEST DUP1 DUP13 LT PUSH2 0x1546 JUMPI POP POP POP POP POP POP POP POP POP POP POP POP JUMP JUMPDEST SWAP1 SWAP2 SWAP3 SWAP4 SWAP5 SWAP6 SWAP7 SWAP8 SWAP9 SWAP10 SWAP11 SWAP13 PUSH2 0x157F DUP15 PUSH2 0x1578 PUSH2 0x13AC PUSH2 0x1570 DUP16 DUP5 DUP9 PUSH2 0x156B SWAP3 PUSH2 0x12B8 JUMP JUMPDEST PUSH2 0x14DC JUMP JUMPDEST SWAP3 DUP8 DUP10 PUSH2 0x12C8 JUMP JUMPDEST SWAP1 DUP8 PUSH2 0x16D1 JUMP JUMPDEST DUP11 DUP2 AND ISZERO PUSH2 0x160C JUMPI PUSH1 0x40 MLOAD PUSH4 0x3AE9B8F1 PUSH1 0xE0 SHL DUP2 MSTORE PUSH1 0x1 PUSH1 0x1 PUSH1 0xA0 SHL SUB DUP3 AND PUSH1 0x4 DUP3 ADD MSTORE PUSH1 0x20 SWAP1 DUP2 DUP2 PUSH1 0x24 DUP2 DUP13 GAS STATICCALL SWAP2 DUP3 ISZERO PUSH2 0x111E JUMPI DUP16 SWAP3 PUSH2 0x1617 JUMPI JUMPDEST POP POP ISZERO PUSH2 0x160C JUMPI PUSH2 0x15CE DUP2 DUP11 DUP11 PUSH2 0x1634 JUMP JUMPDEST PUSH2 0x160C JUMPI PUSH2 0x15DD DUP2 DUP4 DUP13 PUSH2 0x1634 JUMP JUMPDEST PUSH2 0x160C JUMPI DUP2 PUSH2 0x1482 PUSH2 0x15F6 SWAP3 PUSH2 0x1473 PUSH2 0x15FC SWAP6 DUP15 PUSH2 0xDB4 JUMP JUMPDEST SWAP14 PUSH2 0xD8F JUMP JUMPDEST SWAP11 SWAP10 SWAP9 SWAP8 SWAP7 SWAP6 SWAP5 SWAP4 SWAP3 SWAP2 SWAP1 PUSH2 0x1531 JUMP JUMPDEST POP SWAP13 PUSH2 0x15FC SWAP1 PUSH2 0xD8F JUMP JUMPDEST PUSH2 0x162D SWAP3 POP DUP1 RETURNDATASIZE LT PUSH2 0x14D5 JUMPI PUSH2 0x14C6 DUP2 DUP4 PUSH2 0x492 JUMP JUMPDEST CODESIZE DUP1 PUSH2 0x15BC JUMP JUMPDEST SWAP2 SWAP1 SWAP2 PUSH1 0x0 JUMPDEST DUP4 DUP2 LT PUSH2 0x164A JUMPI POP POP POP POP PUSH1 0x0 SWAP1 JUMP JUMPDEST PUSH1 0x1 PUSH1 0x1 PUSH1 0xA0 SHL SUB DUP1 PUSH2 0x165D DUP4 DUP6 PUSH2 0xDB4 JUMP JUMPDEST MLOAD AND SWAP1 DUP5 AND EQ PUSH2 0x1675 JUMPI PUSH2 0x1670 SWAP1 PUSH2 0xD8F JUMP JUMPDEST PUSH2 0x163A JUMP JUMPDEST POP POP POP POP PUSH1 0x1 SWAP1 JUMP JUMPDEST PUSH2 0x16CE SWAP3 SWAP2 PUSH1 0x40 MLOAD SWAP1 PUSH1 0x20 DUP3 ADD SWAP3 PUSH32 0x8268C934B1199325BD73B5A56815A80F530848C86AA4A1F743ED9AD6D89CC08F DUP5 MSTORE PUSH1 0x40 DUP4 ADD MSTORE PUSH1 0x60 DUP3 ADD MSTORE PUSH1 0x60 DUP2 MSTORE PUSH2 0x16C6 DUP2 PUSH2 0x45A JUMP JUMPDEST MLOAD SWAP1 KECCAK256 PUSH2 0x172E JUMP JUMPDEST SWAP1 JUMP JUMPDEST PUSH2 0x16CE SWAP3 SWAP2 PUSH1 0xFF PUSH1 0x40 MLOAD SWAP2 PUSH1 0x20 DUP4 ADD SWAP4 PUSH32 0xA104A56070CF2F6CAB1C33C03F12FD2684EA8AC92AC84AE5A79E349B6C403456 DUP6 MSTORE PUSH1 0x40 DUP5 ADD MSTORE AND PUSH1 0x60 DUP3 ADD MSTORE PUSH1 0x60 DUP2 MSTORE PUSH2 0x16C6 DUP2 PUSH2 0x45A JUMP JUMPDEST PUSH1 0xFF PUSH1 0x1B SWAP2 AND ADD SWAP1 PUSH1 0xFF DUP3 GT PUSH2 0xC62 JUMPI JUMP JUMPDEST PUSH1 0x41 DUP3 MLOAD SUB PUSH2 0x182A JUMPI PUSH1 0x40 MLOAD PUSH2 0x1901 PUSH1 0xF0 SHL PUSH1 0x20 DUP3 ADD SWAP1 DUP2 MSTORE PUSH32 0x0 PUSH1 0x22 DUP4 ADD MSTORE PUSH1 0x42 DUP1 DUP4 ADD SWAP4 SWAP1 SWAP4 MSTORE SWAP2 DUP2 MSTORE PUSH2 0x1784 PUSH1 0x62 DUP3 PUSH2 0x492 JUMP JUMPDEST MLOAD SWAP1 KECCAK256 SWAP1 PUSH1 0x0 SWAP2 PUSH1 0x20 DUP3 ADD MLOAD SWAP3 PUSH1 0x60 PUSH1 0x40 DUP5 ADD MLOAD SWAP4 ADD MLOAD SWAP1 BYTE SWAP1 PUSH1 0x1B DUP3 LT PUSH2 0x181A JUMPI JUMPDEST PUSH32 0x7FFFFFFFFFFFFFFFFFFFFFFFFFFFFFFF5D576E7357A4501DDFE92F46681B20A0 DUP4 GT PUSH2 0x1811 JUMPI PUSH2 0x17FD PUSH1 0x0 SWAP4 PUSH1 0x20 SWAP6 PUSH1 0x40 MLOAD SWAP5 DUP6 SWAP5 DUP6 SWAP1 SWAP5 SWAP4 SWAP3 PUSH1 0xFF PUSH1 0x60 SWAP4 PUSH1 0x80 DUP5 ADD SWAP8 DUP5 MSTORE AND PUSH1 0x20 DUP4 ADD MSTORE PUSH1 0x40 DUP3 ADD MSTORE ADD MSTORE JUMP JUMPDEST DUP4 DUP1 MSTORE SUB SWAP1 PUSH1 0x1 GAS STATICCALL ISZERO PUSH2 0x111E JUMPI PUSH1 0x0 MLOAD SWAP1 JUMP JUMPDEST POP POP POP POP PUSH1 0x0 SWAP1 JUMP JUMPDEST SWAP1 PUSH2 0x1824 SWAP1 PUSH2 0x171C JUMP JUMPDEST SWAP1 PUSH2 0x17A7 JUMP JUMPDEST POP POP PUSH1 0x0 SWAP1 JUMP JUMPDEST PUSH2 0x183A DUP3 PUSH2 0x1286 JUMP JUMPDEST SWAP1 PUSH1 0x0 JUMPDEST DUP4 DUP2 LT PUSH2 0x190D JUMPI POP POP PUSH1 0x0 SWAP3 JUMPDEST PUSH2 0x1854 DUP4 PUSH2 0xDCD JUMP JUMPDEST DUP5 LT ISZERO PUSH2 0x18FA JUMPI PUSH1 0x0 JUMPDEST PUSH2 0x1870 PUSH2 0x186B DUP7 DUP7 PUSH2 0xDDC JUMP JUMPDEST PUSH2 0xDCD JUMP JUMPDEST DUP2 LT ISZERO PUSH2 0x18E9 JUMPI DUP1 PUSH2 0x1885 PUSH2 0x18A3 SWAP3 DUP6 PUSH2 0xDB4 JUMP JUMPDEST MLOAD PUSH2 0x1898 PUSH2 0x1892 DUP4 PUSH2 0xCE3 JUMP JUMPDEST DUP7 PUSH2 0xDB4 JUMP JUMPDEST MLOAD LT PUSH2 0x18A8 JUMPI PUSH2 0xD8F JUMP JUMPDEST PUSH2 0x185E JUMP JUMPDEST PUSH2 0x18BA PUSH2 0x18B4 DUP3 PUSH2 0xCE3 JUMP JUMPDEST DUP6 PUSH2 0xDB4 JUMP JUMPDEST MLOAD PUSH2 0x18C5 DUP3 DUP7 PUSH2 0xDB4 JUMP JUMPDEST MLOAD PUSH2 0x18D8 PUSH2 0x18D2 DUP5 PUSH2 0xCE3 JUMP JUMPDEST DUP8 PUSH2 0xDB4 JUMP JUMPDEST MSTORE PUSH2 0x18E3 DUP3 DUP7 PUSH2 0xDB4 JUMP JUMPDEST MSTORE PUSH2 0xD8F JUMP JUMPDEST POP SWAP3 PUSH2 0x18F4 SWAP1 PUSH2 0xD8F JUMP JUMPDEST SWAP3 PUSH2 0x184B JUMP JUMPDEST SWAP3 POP PUSH2 0x1909 SWAP2 PUSH1 0x1 SHR SWAP1 PUSH2 0xDB4 JUMP JUMPDEST MLOAD SWAP1 JUMP JUMPDEST DUP1 PUSH2 0x191B PUSH2 0x1926 SWAP3 DUP5 PUSH2 0xDB4 JUMP JUMPDEST MLOAD PUSH2 0x18E3 DUP3 DUP7 PUSH2 0xDB4 JUMP JUMPDEST PUSH2 0x183E JUMP INVALID LOG2 PUSH5 0x6970667358 0x22 SLT KECCAK256 0xF 0xDD 0xC8 MSTORE 0xF7 0xEB SELFDESTRUCT 0xE9 0xDA 0xC8 0x2B LOG1 0xCB 0xF 0xE2 0xE4 BLOCKHASH 0xC0 SIGNEXTEND 0xDD 0xE1 0xCA 0x4F MLOAD LOG1 0xE4 COINBASE PUSH4 0xA3E32D06 PUSH5 0x736F6C6343 STOP ADDMOD EQ STOP CALLER "},"methodIdentifiers":{"ABSTAIN_TYPEHASH()":"9034cebf","CAMPAIGN_TIMEOUT_BLOCKS()":"aa41c3b3","CANCEL_FEE_BPS()":"04136546","DOMAIN_SEPARATOR()":"3644e515","DOMAIN_TYPEHASH()":"20606b70","MAX_DEVIATION()":"b05f233a","NAME()":"a3f4df7e","PARTICIPATION_FLOOR_PCT()":"9f559319","PASS_THRESHOLD()":"33f78d59","REQUIRED_ORACLES()":"5201ae29","SCORE_QUORUM_PCT()":"4e4aa858","SCORE_TYPEHASH()":"944303a8","VERSION()":"ffa1ad74","campaigns(bytes32)":"9eca2f1e","cancelCampaign(bytes32)":"df8bb140","closeCampaign(bytes32,uint256[],bytes[],uint8[],bytes[])":"ae5b47cb","fundCampaign(bytes32)":"bc9d87f3","insurancePool()":"ab2adc00","owner()":"8da5cb5b","registry()":"7b103999","renounceOwnership()":"715018a6","transferOwnership(address)":"f2fde38b"}}}}}