{"contracts/PilotEscrow.sol":{"PilotEscrow":{"abi":[{"inputs":[{"internalType":"address","name":"_registry","type":"address"}],"stateMutability":"nonpayable","type":"constructor"},{"inputs":[{"internalType":"address","name":"owner","type":"address"}],"name":"OwnableInvalidOwner","type":"error"},{"inputs":[{"internalType":"address","name":"account","type":"address"}],"name":"OwnableUnauthorizedAccount","type":"error"},{"anonymous":false,"inputs":[{"indexed":true,"internalType":"bytes32","name":"campaignUid","type":"bytes32"},{"indexed":true,"internalType":"address","name":"recipient","type":"address"},{"indexed":false,"internalType":"uint256","name":"bounty","type":"uint256"},{"indexed":false,"internalType":"uint256","name":"medianScore","type":"uint256"}],"name":"CampaignClosed","type":"event"},{"anonymous":false,"inputs":[{"indexed":true,"internalType":"bytes32","name":"campaignUid","type":"bytes32"},{"indexed":true,"internalType":"address","name":"funder","type":"address"},{"indexed":false,"internalType":"uint256","name":"amount","type":"uint256"}],"name":"CampaignFunded","type":"event"},{"anonymous":false,"inputs":[{"indexed":true,"internalType":"address","name":"previousOwner","type":"address"},{"indexed":true,"internalType":"address","name":"newOwner","type":"address"}],"name":"OwnershipTransferred","type":"event"},{"inputs":[],"name":"DOMAIN_SEPARATOR","outputs":[{"internalType":"bytes32","name":"","type":"bytes32"}],"stateMutability":"view","type":"function"},{"inputs":[],"name":"DOMAIN_TYPEHASH","outputs":[{"internalType":"bytes32","name":"","type":"bytes32"}],"stateMutability":"view","type":"function"},{"inputs":[],"name":"MAX_DEVIATION","outputs":[{"internalType":"uint256","name":"","type":"uint256"}],"stateMutability":"view","type":"function"},{"inputs":[],"name":"NAME","outputs":[{"internalType":"string","name":"","type":"string"}],"stateMutability":"view","type":"function"},{"inputs":[],"name":"PASS_THRESHOLD","outputs":[{"internalType":"uint256","name":"","type":"uint256"}],"stateMutability":"view","type":"function"},{"inputs":[],"name":"REQUIRED_ORACLES","outputs":[{"internalType":"uint256","name":"","type":"uint256"}],"stateMutability":"view","type":"function"},{"inputs":[],"name":"SCORE_TYPEHASH","outputs":[{"internalType":"bytes32","name":"","type":"bytes32"}],"stateMutability":"view","type":"function"},{"inputs":[],"name":"VERSION","outputs":[{"internalType":"string","name":"","type":"string"}],"stateMutability":"view","type":"function"},{"inputs":[{"internalType":"bytes32","name":"","type":"bytes32"}],"name":"campaigns","outputs":[{"internalType":"address","name":"recipient","type":"address"},{"internalType":"uint256","name":"bounty","type":"uint256"},{"internalType":"bool","name":"closed","type":"bool"},{"internalType":"uint256","name":"fundedBlock","type":"uint256"}],"stateMutability":"view","type":"function"},{"inputs":[{"internalType":"bytes32","name":"campaignUid","type":"bytes32"},{"internalType":"address","name":"","type":"address"},{"internalType":"uint256","name":"","type":"uint256"},{"internalType":"uint256","name":"","type":"uint256"},{"internalType":"uint256[]","name":"scores","type":"uint256[]"},{"internalType":"bytes[]","name":"signatures","type":"bytes[]"}],"name":"closeCampaign","outputs":[],"stateMutability":"nonpayable","type":"function"},{"inputs":[{"internalType":"bytes32","name":"campaignUid","type":"bytes32"}],"name":"fundCampaign","outputs":[],"stateMutability":"payable","type":"function"},{"inputs":[],"name":"owner","outputs":[{"internalType":"address","name":"","type":"address"}],"stateMutability":"view","type":"function"},{"inputs":[],"name":"registry","outputs":[{"internalType":"contract VenomRegistry","name":"","type":"address"}],"stateMutability":"view","type":"function"},{"inputs":[],"name":"renounceOwnership","outputs":[],"stateMutability":"nonpayable","type":"function"},{"inputs":[{"internalType":"address","name":"newOwner","type":"address"}],"name":"transferOwnership","outputs":[],"stateMutability":"nonpayable","type":"function"}],"evm":{"bytecode":{"linkReferences":{},"object":"60c06040523480156200001157600080fd5b5060405162002662380380620026628339818101604052810190620000379190620002f8565b33600073ffffffffffffffffffffffffffffffffffffffff168173ffffffffffffffffffffffffffffffffffffffff1603620000ad5760006040517f1e4fbdf7000000000000000000000000000000000000000000000000000000008152600401620000a491906200033b565b60405180910390fd5b620000be81620001ca60201b60201c565b508073ffffffffffffffffffffffffffffffffffffffff1660808173ffffffffffffffffffffffffffffffffffffffff16815250507f8b73c3c69bb8fe3d512ecc4cf759cc79239f7b179b0ffacaa9a75d522b39400f6040518060400160405280601181526020017f56454e4f4d2050696c6f74457363726f77000000000000000000000000000000815250805190602001206040518060400160405280600181526020017f3100000000000000000000000000000000000000000000000000000000000000815250805190602001204630604051602001620001a69594939291906200038e565b6040516020818303038152906040528051906020012060a0818152505050620003eb565b60008060009054906101000a900473ffffffffffffffffffffffffffffffffffffffff169050816000806101000a81548173ffffffffffffffffffffffffffffffffffffffff021916908373ffffffffffffffffffffffffffffffffffffffff1602179055508173ffffffffffffffffffffffffffffffffffffffff168173ffffffffffffffffffffffffffffffffffffffff167f8be0079c531659141344cd1fd0a4f28419497f9722a3daafe3b4186f6b6457e060405160405180910390a35050565b600080fd5b600073ffffffffffffffffffffffffffffffffffffffff82169050919050565b6000620002c08262000293565b9050919050565b620002d281620002b3565b8114620002de57600080fd5b50565b600081519050620002f281620002c7565b92915050565b6000602082840312156200031157620003106200028e565b5b60006200032184828501620002e1565b91505092915050565b6200033581620002b3565b82525050565b60006020820190506200035260008301846200032a565b92915050565b6000819050919050565b6200036d8162000358565b82525050565b6000819050919050565b620003888162000373565b82525050565b600060a082019050620003a5600083018862000362565b620003b4602083018762000362565b620003c3604083018662000362565b620003d260608301856200037d565b620003e160808301846200032a565b9695505050505050565b60805160a05161223c620004266000396000818161038b01526110f50152600081816103c8015281816107d50152610a5e015261223c6000f3fe6080604052600436106100e85760003560e01c8063944303a81161008a578063b6ab805f11610059578063b6ab805f146102c7578063bc9d87f3146102f0578063f2fde38b1461030c578063ffa1ad7414610335576100e8565b8063944303a8146102065780639eca2f1e14610231578063a3f4df7e14610271578063b05f233a1461029c576100e8565b80635201ae29116100c65780635201ae291461016e578063715018a6146101995780637b103999146101b05780638da5cb5b146101db576100e8565b806320606b70146100ed57806333f78d59146101185780633644e51514610143575b600080fd5b3480156100f957600080fd5b50610102610360565b60405161010f919061149b565b60405180910390f35b34801561012457600080fd5b5061012d610384565b60405161013a91906114cf565b60405180910390f35b34801561014f57600080fd5b50610158610389565b604051610165919061149b565b60405180910390f35b34801561017a57600080fd5b506101836103ad565b60405161019091906114cf565b60405180910390f35b3480156101a557600080fd5b506101ae6103b2565b005b3480156101bc57600080fd5b506101c56103c6565b6040516101d29190611569565b60405180910390f35b3480156101e757600080fd5b506101f06103ea565b6040516101fd91906115a5565b60405180910390f35b34801561021257600080fd5b5061021b610413565b604051610228919061149b565b60405180910390f35b34801561023d57600080fd5b50610258600480360381019061025391906115f6565b610437565b604051610268949392919061163e565b60405180910390f35b34801561027d57600080fd5b50610286610494565b6040516102939190611713565b60405180910390f35b3480156102a857600080fd5b506102b16104cd565b6040516102be91906114cf565b60405180910390f35b3480156102d357600080fd5b506102ee60048036038101906102e99190611848565b6104d2565b005b61030a600480360381019061030591906115f6565b610c92565b005b34801561031857600080fd5b50610333600480360381019061032e9190611917565b610e97565b005b34801561034157600080fd5b5061034a610f1d565b6040516103579190611713565b60405180910390f35b7f8b73c3c69bb8fe3d512ecc4cf759cc79239f7b179b0ffacaa9a75d522b39400f81565b603c81565b7f000000000000000000000000000000000000000000000000000000000000000081565b600581565b6103ba610f56565b6103c46000610fdd565b565b7f000000000000000000000000000000000000000000000000000000000000000081565b60008060009054906101000a900473ffffffffffffffffffffffffffffffffffffffff16905090565b7f8268c934b1199325bd73b5a56815a80f530848c86aa4a1f743ed9ad6d89cc08f81565b60016020528060005260406000206000915090508060000160009054906101000a900473ffffffffffffffffffffffffffffffffffffffff16908060010154908060020160009054906101000a900460ff16908060030154905084565b6040518060400160405280601181526020017f56454e4f4d2050696c6f74457363726f7700000000000000000000000000000081525081565b601981565b6000600160008a815260200190815260200160002090508060020160009054906101000a900460ff161561053b576040517f08c379a000000000000000000000000000000000000000000000000000000000815260040161053290611990565b60405180910390fd5b600073ffffffffffffffffffffffffffffffffffffffff168160000160009054906101000a900473ffffffffffffffffffffffffffffffffffffffff1673ffffffffffffffffffffffffffffffffffffffff16036105ce576040517f08c379a00000000000000000000000000000000000000000000000000000000081526004016105c5906119fc565b60405180910390fd5b828290508585905014610616576040517f08c379a000000000000000000000000000000000000000000000000000000000815260040161060d90611a68565b60405180910390fd5b600585859050101561065d576040517f08c379a000000000000000000000000000000000000000000000000000000000815260040161065490611ad4565b60405180910390fd5b6000808686905067ffffffffffffffff81111561067d5761067c611af4565b5b6040519080825280602002602001820160405280156106ab5781602001602082028036833780820191505090505b50905060008787905067ffffffffffffffff8111156106cd576106cc611af4565b5b6040519080825280602002602001820160405280156106fb5781602001602082028036833780820191505090505b50905060005b8888905081101561091d5760006107998e8b8b8581811061072557610724611b23565b5b905060200201358a8a8681811061073f5761073e611b23565b5b90506020028101906107519190611b61565b8080601f016020809104026020016040519081016040528093929190818152602001838380828437600081840152601f19601f820116905080830192505050505050506110a1565b9050600073ffffffffffffffffffffffffffffffffffffffff168173ffffffffffffffffffffffffffffffffffffffff161415801561086e57507f000000000000000000000000000000000000000000000000000000000000000073ffffffffffffffffffffffffffffffffffffffff16633ae9b8f1826040518263ffffffff1660e01b815260040161082c91906115a5565b602060405180830381865afa158015610849573d6000803e3d6000fd5b505050506040513d601f19601f8201168201806040525081019061086d9190611bf0565b5b156109095789898381811061088657610885611b23565b5b905060200201358486815181106108a05761089f611b23565b5b602002602001018181525050808386815181106108c0576108bf611b23565b5b602002602001019073ffffffffffffffffffffffffffffffffffffffff16908173ffffffffffffffffffffffffffffffffffffffff1681525050848061090590611c4c565b9550505b50808061091590611c4c565b915050610701565b506005831015610962576040517f08c379a000000000000000000000000000000000000000000000000000000000815260040161095990611ce0565b60405180910390fd5b600061096e83856111e9565b9050603c8110156109b4576040517f08c379a00000000000000000000000000000000000000000000000000000000081526004016109ab90611d4c565b60405180910390fd5b60018560020160006101000a81548160ff02191690831515021790555060005b84811015610b34576000828583815181106109f2576109f1611b23565b5b602002602001015111610a2a57848281518110610a1257610a11611b23565b5b602002602001015183610a259190611d6c565b610a51565b82858381518110610a3e57610a3d611b23565b5b6020026020010151610a509190611d6c565b5b90506019811115610b20577f000000000000000000000000000000000000000000000000000000000000000073ffffffffffffffffffffffffffffffffffffffff166318dbd273858481518110610aab57610aaa611b23565b5b6020026020010151878581518110610ac657610ac5611b23565b5b6020026020010151866040518463ffffffff1660e01b8152600401610aed93929190611da0565b600060405180830381600087803b158015610b0757600080fd5b505af1158015610b1b573d6000803e3d6000fd5b505050505b508080610b2c90611c4c565b9150506109d4565b5060008560000160009054906101000a900473ffffffffffffffffffffffffffffffffffffffff1673ffffffffffffffffffffffffffffffffffffffff168660010154604051610b8390611e08565b60006040518083038185875af1925050503d8060008114610bc0576040519150601f19603f3d011682016040523d82523d6000602084013e610bc5565b606091505b5050905080610c09576040517f08c379a0000000000000000000000000000000000000000000000000000000008152600401610c0090611e69565b60405180910390fd5b8560000160009054906101000a900473ffffffffffffffffffffffffffffffffffffffff1673ffffffffffffffffffffffffffffffffffffffff168e7f52451b0c080b6bee6b75806ca36bd4cdd6dacc3c3834b1ea4962b37a24cbc18c886001015485604051610c7a929190611e89565b60405180910390a35050505050505050505050505050565b60003411610cd5576040517f08c379a0000000000000000000000000000000000000000000000000000000008152600401610ccc90611efe565b60405180910390fd5b600073ffffffffffffffffffffffffffffffffffffffff166001600083815260200190815260200160002060000160009054906101000a900473ffffffffffffffffffffffffffffffffffffffff1673ffffffffffffffffffffffffffffffffffffffff1614610d7a576040517f08c379a0000000000000000000000000000000000000000000000000000000008152600401610d7190611f6a565b60405180910390fd5b60405180608001604052803373ffffffffffffffffffffffffffffffffffffffff168152602001348152602001600015158152602001438152506001600083815260200190815260200160002060008201518160000160006101000a81548173ffffffffffffffffffffffffffffffffffffffff021916908373ffffffffffffffffffffffffffffffffffffffff1602179055506020820151816001015560408201518160020160006101000a81548160ff021916908315150217905550606082015181600301559050503373ffffffffffffffffffffffffffffffffffffffff16817ff5317246b1280f9cdfa4e36ed4cf0d02b1f02180e7ea02f9271cb356eb37469e34604051610e8c91906114cf565b60405180910390a350565b610e9f610f56565b600073ffffffffffffffffffffffffffffffffffffffff168173ffffffffffffffffffffffffffffffffffffffff1603610f115760006040517f1e4fbdf7000000000000000000000000000000000000000000000000000000008152600401610f0891906115a5565b60405180910390fd5b610f1a81610fdd565b50565b6040518060400160405280600181526020017f310000000000000000000000000000000000000000000000000000000000000081525081565b610f5e6113f6565b73ffffffffffffffffffffffffffffffffffffffff16610f7c6103ea565b73ffffffffffffffffffffffffffffffffffffffff1614610fdb57610f9f6113f6565b6040517f118cdaa7000000000000000000000000000000000000000000000000000000008152600401610fd291906115a5565b60405180910390fd5b565b60008060009054906101000a900473ffffffffffffffffffffffffffffffffffffffff169050816000806101000a81548173ffffffffffffffffffffffffffffffffffffffff021916908373ffffffffffffffffffffffffffffffffffffffff1602179055508173ffffffffffffffffffffffffffffffffffffffff168173ffffffffffffffffffffffffffffffffffffffff167f8be0079c531659141344cd1fd0a4f28419497f9722a3daafe3b4186f6b6457e060405160405180910390a35050565b6000807f8268c934b1199325bd73b5a56815a80f530848c86aa4a1f743ed9ad6d89cc08f85856040516020016110d993929190611f8a565b60405160208183030381529060405280519060200120905060007f000000000000000000000000000000000000000000000000000000000000000082604051602001611126929190612039565b604051602081830303815290604052805190602001209050600080600061114c876113fe565b9250925092507f7fffffffffffffffffffffffffffffff5d576e7357a4501ddfe92f46681b20a08260001c111561118b576000955050505050506111e2565b600184828585604051600081526020016040526040516111ae949392919061208c565b6020604051602081039080840390855afa1580156111d0573d6000803e3d6000fd5b50505060206040510351955050505050505b9392505050565b6000808267ffffffffffffffff81111561120657611205611af4565b5b6040519080825280602002602001820160405280156112345781602001602082028036833780820191505090505b50905060005b8381101561128f5784818151811061125557611254611b23565b5b60200260200101518282815181106112705761126f611b23565b5b602002602001018181525050808061128790611c4c565b91505061123a565b5060005b6001846112a09190611d6c565b8110156113c55760005b600182866112b89190611d6c565b6112c29190611d6c565b8110156113b157826001826112d791906120d1565b815181106112e8576112e7611b23565b5b602002602001015183828151811061130357611302611b23565b5b6020026020010151111561139e578260018261131f91906120d1565b815181106113305761132f611b23565b5b602002602001015183828151811061134b5761134a611b23565b5b602002602001015184838151811061136657611365611b23565b5b602002602001018560018561137b91906120d1565b8151811061138c5761138b611b23565b5b60200260200101828152508281525050505b80806113a990611c4c565b9150506112aa565b5080806113bd90611c4c565b915050611293565b50806002846113d49190612134565b815181106113e5576113e4611b23565b5b602002602001015191505092915050565b600033905090565b60008060006041845114611447576040517f08c379a000000000000000000000000000000000000000000000000000000000815260040161143e906121b1565b60405180910390fd5b6020840151925060408401519150606084015160001a9050601b8160ff16101561147b57601b8161147891906121d1565b90505b9193909250565b6000819050919050565b61149581611482565b82525050565b60006020820190506114b0600083018461148c565b92915050565b6000819050919050565b6114c9816114b6565b82525050565b60006020820190506114e460008301846114c0565b92915050565b600073ffffffffffffffffffffffffffffffffffffffff82169050919050565b6000819050919050565b600061152f61152a611525846114ea565b61150a565b6114ea565b9050919050565b600061154182611514565b9050919050565b600061155382611536565b9050919050565b61156381611548565b82525050565b600060208201905061157e600083018461155a565b92915050565b600061158f826114ea565b9050919050565b61159f81611584565b82525050565b60006020820190506115ba6000830184611596565b92915050565b600080fd5b600080fd5b6115d381611482565b81146115de57600080fd5b50565b6000813590506115f0816115ca565b92915050565b60006020828403121561160c5761160b6115c0565b5b600061161a848285016115e1565b91505092915050565b60008115159050919050565b61163881611623565b82525050565b60006080820190506116536000830187611596565b61166060208301866114c0565b61166d604083018561162f565b61167a60608301846114c0565b95945050505050565b600081519050919050565b600082825260208201905092915050565b60005b838110156116bd5780820151818401526020810190506116a2565b60008484015250505050565b6000601f19601f8301169050919050565b60006116e582611683565b6116ef818561168e565b93506116ff81856020860161169f565b611708816116c9565b840191505092915050565b6000602082019050818103600083015261172d81846116da565b905092915050565b61173e81611584565b811461174957600080fd5b50565b60008135905061175b81611735565b92915050565b61176a816114b6565b811461177557600080fd5b50565b60008135905061178781611761565b92915050565b600080fd5b600080fd5b600080fd5b60008083601f8401126117b2576117b161178d565b5b8235905067ffffffffffffffff8111156117cf576117ce611792565b5b6020830191508360208202830111156117eb576117ea611797565b5b9250929050565b60008083601f8401126118085761180761178d565b5b8235905067ffffffffffffffff81111561182557611824611792565b5b60208301915083602082028301111561184157611840611797565b5b9250929050565b60008060008060008060008060c0898b031215611868576118676115c0565b5b60006118768b828c016115e1565b98505060206118878b828c0161174c565b97505060406118988b828c01611778565b96505060606118a98b828c01611778565b955050608089013567ffffffffffffffff8111156118ca576118c96115c5565b5b6118d68b828c0161179c565b945094505060a089013567ffffffffffffffff8111156118f9576118f86115c5565b5b6119058b828c016117f2565b92509250509295985092959890939650565b60006020828403121561192d5761192c6115c0565b5b600061193b8482850161174c565b91505092915050565b7f43616d706169676e20616c726561647920636c6f736564000000000000000000600082015250565b600061197a60178361168e565b915061198582611944565b602082019050919050565b600060208201905081810360008301526119a98161196d565b9050919050565b7f43616d706169676e206e6f742066756e64656400000000000000000000000000600082015250565b60006119e660138361168e565b91506119f1826119b0565b602082019050919050565b60006020820190508181036000830152611a15816119d9565b9050919050565b7f4c656e677468206d69736d617463680000000000000000000000000000000000600082015250565b6000611a52600f8361168e565b9150611a5d82611a1c565b602082019050919050565b60006020820190508181036000830152611a8181611a45565b9050919050565b7f4e6f7420656e6f756768207375626d697373696f6e7300000000000000000000600082015250565b6000611abe60168361168e565b9150611ac982611a88565b602082019050919050565b60006020820190508181036000830152611aed81611ab1565b9050919050565b7f4e487b7100000000000000000000000000000000000000000000000000000000600052604160045260246000fd5b7f4e487b7100000000000000000000000000000000000000000000000000000000600052603260045260246000fd5b600080fd5b600080fd5b600080fd5b60008083356001602003843603038112611b7e57611b7d611b52565b5b80840192508235915067ffffffffffffffff821115611ba057611b9f611b57565b5b602083019250600182023603831315611bbc57611bbb611b5c565b5b509250929050565b611bcd81611623565b8114611bd857600080fd5b50565b600081519050611bea81611bc4565b92915050565b600060208284031215611c0657611c056115c0565b5b6000611c1484828501611bdb565b91505092915050565b7f4e487b7100000000000000000000000000000000000000000000000000000000600052601160045260246000fd5b6000611c57826114b6565b91507fffffffffffffffffffffffffffffffffffffffffffffffffffffffffffffffff8203611c8957611c88611c1d565b5b600182019050919050565b7f4e6f7420656e6f7567682076616c6964206f7261636c65730000000000000000600082015250565b6000611cca60188361168e565b9150611cd582611c94565b602082019050919050565b60006020820190508181036000830152611cf981611cbd565b9050919050565b7f4d656469616e2062656c6f77207468726573686f6c6400000000000000000000600082015250565b6000611d3660168361168e565b9150611d4182611d00565b602082019050919050565b60006020820190508181036000830152611d6581611d29565b9050919050565b6000611d77826114b6565b9150611d82836114b6565b9250828203905081811115611d9a57611d99611c1d565b5b92915050565b6000606082019050611db56000830186611596565b611dc260208301856114c0565b611dcf60408301846114c0565b949350505050565b600081905092915050565b50565b6000611df2600083611dd7565b9150611dfd82611de2565b600082019050919050565b6000611e1382611de5565b9150819050919050565b7f5472616e73666572206661696c65640000000000000000000000000000000000600082015250565b6000611e53600f8361168e565b9150611e5e82611e1d565b602082019050919050565b60006020820190508181036000830152611e8281611e46565b9050919050565b6000604082019050611e9e60008301856114c0565b611eab60208301846114c0565b9392505050565b7f426f756e7479206d757374206265203e20300000000000000000000000000000600082015250565b6000611ee860128361168e565b9150611ef382611eb2565b602082019050919050565b60006020820190508181036000830152611f1781611edb565b9050919050565b7f43616d706169676e20616c726561647920657869737473000000000000000000600082015250565b6000611f5460178361168e565b9150611f5f82611f1e565b602082019050919050565b60006020820190508181036000830152611f8381611f47565b9050919050565b6000606082019050611f9f600083018661148c565b611fac602083018561148c565b611fb960408301846114c0565b949350505050565b600081905092915050565b7f1901000000000000000000000000000000000000000000000000000000000000600082015250565b6000612002600283611fc1565b915061200d82611fcc565b600282019050919050565b6000819050919050565b61203361202e82611482565b612018565b82525050565b600061204482611ff5565b91506120508285612022565b6020820191506120608284612022565b6020820191508190509392505050565b600060ff82169050919050565b61208681612070565b82525050565b60006080820190506120a1600083018761148c565b6120ae602083018661207d565b6120bb604083018561148c565b6120c8606083018461148c565b95945050505050565b60006120dc826114b6565b91506120e7836114b6565b92508282019050808211156120ff576120fe611c1d565b5b92915050565b7f4e487b7100000000000000000000000000000000000000000000000000000000600052601260045260246000fd5b600061213f826114b6565b915061214a836114b6565b92508261215a57612159612105565b5b828204905092915050565b7f496e76616c6964207369676e6174757265206c656e6774680000000000000000600082015250565b600061219b60188361168e565b91506121a682612165565b602082019050919050565b600060208201905081810360008301526121ca8161218e565b9050919050565b60006121dc82612070565b91506121e783612070565b9250828201905060ff811115612200576121ff611c1d565b5b9291505056fea2646970667358221220cbd745a5f9896e6181734de2ef1579414ded2cec3eb9c0d9cb5443a668f1fa7f64736f6c63430008140033","opcodes":"PUSH1 0xC0 PUSH1 0x40 MSTORE CALLVALUE DUP1 ISZERO PUSH3 0x11 JUMPI PUSH1 0x0 DUP1 REVERT JUMPDEST POP PUSH1 0x40 MLOAD PUSH3 0x2662 CODESIZE SUB DUP1 PUSH3 0x2662 DUP4 CODECOPY DUP2 DUP2 ADD PUSH1 0x40 MSTORE DUP2 ADD SWAP1 PUSH3 0x37 SWAP2 SWAP1 PUSH3 0x2F8 JUMP JUMPDEST CALLER PUSH1 0x0 PUSH20 0xFFFFFFFFFFFFFFFFFFFFFFFFFFFFFFFFFFFFFFFF AND DUP2 PUSH20 0xFFFFFFFFFFFFFFFFFFFFFFFFFFFFFFFFFFFFFFFF AND SUB PUSH3 0xAD JUMPI PUSH1 0x0 PUSH1 0x40 MLOAD PUSH32 0x1E4FBDF700000000000000000000000000000000000000000000000000000000 DUP2 MSTORE PUSH1 0x4 ADD PUSH3 0xA4 SWAP2 SWAP1 PUSH3 0x33B JUMP JUMPDEST PUSH1 0x40 MLOAD DUP1 SWAP2 SUB SWAP1 REVERT JUMPDEST PUSH3 0xBE DUP2 PUSH3 0x1CA PUSH1 0x20 SHL PUSH1 0x20 SHR JUMP JUMPDEST POP DUP1 PUSH20 0xFFFFFFFFFFFFFFFFFFFFFFFFFFFFFFFFFFFFFFFF AND PUSH1 0x80 DUP2 PUSH20 0xFFFFFFFFFFFFFFFFFFFFFFFFFFFFFFFFFFFFFFFF AND DUP2 MSTORE POP POP PUSH32 0x8B73C3C69BB8FE3D512ECC4CF759CC79239F7B179B0FFACAA9A75D522B39400F PUSH1 0x40 MLOAD DUP1 PUSH1 0x40 ADD PUSH1 0x40 MSTORE DUP1 PUSH1 0x11 DUP2 MSTORE PUSH1 0x20 ADD PUSH32 0x56454E4F4D2050696C6F74457363726F77000000000000000000000000000000 DUP2 MSTORE POP DUP1 MLOAD SWAP1 PUSH1 0x20 ADD KECCAK256 PUSH1 0x40 MLOAD DUP1 PUSH1 0x40 ADD PUSH1 0x40 MSTORE DUP1 PUSH1 0x1 DUP2 MSTORE PUSH1 0x20 ADD PUSH32 0x3100000000000000000000000000000000000000000000000000000000000000 DUP2 MSTORE POP DUP1 MLOAD SWAP1 PUSH1 0x20 ADD KECCAK256 CHAINID ADDRESS PUSH1 0x40 MLOAD PUSH1 0x20 ADD PUSH3 0x1A6 SWAP6 SWAP5 SWAP4 SWAP3 SWAP2 SWAP1 PUSH3 0x38E JUMP JUMPDEST PUSH1 0x40 MLOAD PUSH1 0x20 DUP2 DUP4 SUB SUB DUP2 MSTORE SWAP1 PUSH1 0x40 MSTORE DUP1 MLOAD SWAP1 PUSH1 0x20 ADD KECCAK256 PUSH1 0xA0 DUP2 DUP2 MSTORE POP POP POP PUSH3 0x3EB JUMP JUMPDEST PUSH1 0x0 DUP1 PUSH1 0x0 SWAP1 SLOAD SWAP1 PUSH2 0x100 EXP SWAP1 DIV PUSH20 0xFFFFFFFFFFFFFFFFFFFFFFFFFFFFFFFFFFFFFFFF AND SWAP1 POP DUP2 PUSH1 0x0 DUP1 PUSH2 0x100 EXP DUP2 SLOAD DUP2 PUSH20 0xFFFFFFFFFFFFFFFFFFFFFFFFFFFFFFFFFFFFFFFF MUL NOT AND SWAP1 DUP4 PUSH20 0xFFFFFFFFFFFFFFFFFFFFFFFFFFFFFFFFFFFFFFFF AND MUL OR SWAP1 SSTORE POP DUP2 PUSH20 0xFFFFFFFFFFFFFFFFFFFFFFFFFFFFFFFFFFFFFFFF AND DUP2 PUSH20 0xFFFFFFFFFFFFFFFFFFFFFFFFFFFFFFFFFFFFFFFF AND PUSH32 0x8BE0079C531659141344CD1FD0A4F28419497F9722A3DAAFE3B4186F6B6457E0 PUSH1 0x40 MLOAD PUSH1 0x40 MLOAD DUP1 SWAP2 SUB SWAP1 LOG3 POP POP JUMP JUMPDEST PUSH1 0x0 DUP1 REVERT JUMPDEST PUSH1 0x0 PUSH20 0xFFFFFFFFFFFFFFFFFFFFFFFFFFFFFFFFFFFFFFFF DUP3 AND SWAP1 POP SWAP2 SWAP1 POP JUMP JUMPDEST PUSH1 0x0 PUSH3 0x2C0 DUP3 PUSH3 0x293 JUMP JUMPDEST SWAP1 POP SWAP2 SWAP1 POP JUMP JUMPDEST PUSH3 0x2D2 DUP2 PUSH3 0x2B3 JUMP JUMPDEST DUP2 EQ PUSH3 0x2DE JUMPI PUSH1 0x0 DUP1 REVERT JUMPDEST POP JUMP JUMPDEST PUSH1 0x0 DUP2 MLOAD SWAP1 POP PUSH3 0x2F2 DUP2 PUSH3 0x2C7 JUMP JUMPDEST SWAP3 SWAP2 POP POP JUMP JUMPDEST PUSH1 0x0 PUSH1 0x20 DUP3 DUP5 SUB SLT ISZERO PUSH3 0x311 JUMPI PUSH3 0x310 PUSH3 0x28E JUMP JUMPDEST JUMPDEST PUSH1 0x0 PUSH3 0x321 DUP5 DUP3 DUP6 ADD PUSH3 0x2E1 JUMP JUMPDEST SWAP2 POP POP SWAP3 SWAP2 POP POP JUMP JUMPDEST PUSH3 0x335 DUP2 PUSH3 0x2B3 JUMP JUMPDEST DUP3 MSTORE POP POP JUMP JUMPDEST PUSH1 0x0 PUSH1 0x20 DUP3 ADD SWAP1 POP PUSH3 0x352 PUSH1 0x0 DUP4 ADD DUP5 PUSH3 0x32A JUMP JUMPDEST SWAP3 SWAP2 POP POP JUMP JUMPDEST PUSH1 0x0 DUP2 SWAP1 POP SWAP2 SWAP1 POP JUMP JUMPDEST PUSH3 0x36D DUP2 PUSH3 0x358 JUMP JUMPDEST DUP3 MSTORE POP POP JUMP JUMPDEST PUSH1 0x0 DUP2 SWAP1 POP SWAP2 SWAP1 POP JUMP JUMPDEST PUSH3 0x388 DUP2 PUSH3 0x373 JUMP JUMPDEST DUP3 MSTORE POP POP JUMP JUMPDEST PUSH1 0x0 PUSH1 0xA0 DUP3 ADD SWAP1 POP PUSH3 0x3A5 PUSH1 0x0 DUP4 ADD DUP9 PUSH3 0x362 JUMP JUMPDEST PUSH3 0x3B4 PUSH1 0x20 DUP4 ADD DUP8 PUSH3 0x362 JUMP JUMPDEST PUSH3 0x3C3 PUSH1 0x40 DUP4 ADD DUP7 PUSH3 0x362 JUMP JUMPDEST PUSH3 0x3D2 PUSH1 0x60 DUP4 ADD DUP6 PUSH3 0x37D JUMP JUMPDEST PUSH3 0x3E1 PUSH1 0x80 DUP4 ADD DUP5 PUSH3 0x32A JUMP JUMPDEST SWAP7 SWAP6 POP POP POP POP POP POP JUMP JUMPDEST PUSH1 0x80 MLOAD PUSH1 0xA0 MLOAD PUSH2 0x223C PUSH3 0x426 PUSH1 0x0 CODECOPY PUSH1 0x0 DUP2 DUP2 PUSH2 0x38B ADD MSTORE PUSH2 0x10F5 ADD MSTORE PUSH1 0x0 DUP2 DUP2 PUSH2 0x3C8 ADD MSTORE DUP2 DUP2 PUSH2 0x7D5 ADD MSTORE PUSH2 0xA5E ADD MSTORE PUSH2 0x223C PUSH1 0x0 RETURN INVALID PUSH1 0x80 PUSH1 0x40 MSTORE PUSH1 0x4 CALLDATASIZE LT PUSH2 0xE8 JUMPI PUSH1 0x0 CALLDATALOAD PUSH1 0xE0 SHR DUP1 PUSH4 0x944303A8 GT PUSH2 0x8A JUMPI DUP1 PUSH4 0xB6AB805F GT PUSH2 0x59 JUMPI DUP1 PUSH4 0xB6AB805F EQ PUSH2 0x2C7 JUMPI DUP1 PUSH4 0xBC9D87F3 EQ PUSH2 0x2F0 JUMPI DUP1 PUSH4 0xF2FDE38B EQ PUSH2 0x30C JUMPI DUP1 PUSH4 0xFFA1AD74 EQ PUSH2 0x335 JUMPI PUSH2 0xE8 JUMP JUMPDEST DUP1 PUSH4 0x944303A8 EQ PUSH2 0x206 JUMPI DUP1 PUSH4 0x9ECA2F1E EQ PUSH2 0x231 JUMPI DUP1 PUSH4 0xA3F4DF7E EQ PUSH2 0x271 JUMPI DUP1 PUSH4 0xB05F233A EQ PUSH2 0x29C JUMPI PUSH2 0xE8 JUMP JUMPDEST DUP1 PUSH4 0x5201AE29 GT PUSH2 0xC6 JUMPI DUP1 PUSH4 0x5201AE29 EQ PUSH2 0x16E JUMPI DUP1 PUSH4 0x715018A6 EQ PUSH2 0x199 JUMPI DUP1 PUSH4 0x7B103999 EQ PUSH2 0x1B0 JUMPI DUP1 PUSH4 0x8DA5CB5B EQ PUSH2 0x1DB JUMPI PUSH2 0xE8 JUMP JUMPDEST DUP1 PUSH4 0x20606B70 EQ PUSH2 0xED JUMPI DUP1 PUSH4 0x33F78D59 EQ PUSH2 0x118 JUMPI DUP1 PUSH4 0x3644E515 EQ PUSH2 0x143 JUMPI JUMPDEST PUSH1 0x0 DUP1 REVERT JUMPDEST CALLVALUE DUP1 ISZERO PUSH2 0xF9 JUMPI PUSH1 0x0 DUP1 REVERT JUMPDEST POP PUSH2 0x102 PUSH2 0x360 JUMP JUMPDEST PUSH1 0x40 MLOAD PUSH2 0x10F SWAP2 SWAP1 PUSH2 0x149B JUMP JUMPDEST PUSH1 0x40 MLOAD DUP1 SWAP2 SUB SWAP1 RETURN JUMPDEST CALLVALUE DUP1 ISZERO PUSH2 0x124 JUMPI PUSH1 0x0 DUP1 REVERT JUMPDEST POP PUSH2 0x12D PUSH2 0x384 JUMP JUMPDEST PUSH1 0x40 MLOAD PUSH2 0x13A SWAP2 SWAP1 PUSH2 0x14CF JUMP JUMPDEST PUSH1 0x40 MLOAD DUP1 SWAP2 SUB SWAP1 RETURN JUMPDEST CALLVALUE DUP1 ISZERO PUSH2 0x14F JUMPI PUSH1 0x0 DUP1 REVERT JUMPDEST POP PUSH2 0x158 PUSH2 0x389 JUMP JUMPDEST PUSH1 0x40 MLOAD PUSH2 0x165 SWAP2 SWAP1 PUSH2 0x149B JUMP JUMPDEST PUSH1 0x40 MLOAD DUP1 SWAP2 SUB SWAP1 RETURN JUMPDEST CALLVALUE DUP1 ISZERO PUSH2 0x17A JUMPI PUSH1 0x0 DUP1 REVERT JUMPDEST POP PUSH2 0x183 PUSH2 0x3AD JUMP JUMPDEST PUSH1 0x40 MLOAD PUSH2 0x190 SWAP2 SWAP1 PUSH2 0x14CF JUMP JUMPDEST PUSH1 0x40 MLOAD DUP1 SWAP2 SUB SWAP1 RETURN JUMPDEST CALLVALUE DUP1 ISZERO PUSH2 0x1A5 JUMPI PUSH1 0x0 DUP1 REVERT JUMPDEST POP PUSH2 0x1AE PUSH2 0x3B2 JUMP JUMPDEST STOP JUMPDEST CALLVALUE DUP1 ISZERO PUSH2 0x1BC JUMPI PUSH1 0x0 DUP1 REVERT JUMPDEST POP PUSH2 0x1C5 PUSH2 0x3C6 JUMP JUMPDEST PUSH1 0x40 MLOAD PUSH2 0x1D2 SWAP2 SWAP1 PUSH2 0x1569 JUMP JUMPDEST PUSH1 0x40 MLOAD DUP1 SWAP2 SUB SWAP1 RETURN JUMPDEST CALLVALUE DUP1 ISZERO PUSH2 0x1E7 JUMPI PUSH1 0x0 DUP1 REVERT JUMPDEST POP PUSH2 0x1F0 PUSH2 0x3EA JUMP JUMPDEST PUSH1 0x40 MLOAD PUSH2 0x1FD SWAP2 SWAP1 PUSH2 0x15A5 JUMP JUMPDEST PUSH1 0x40 MLOAD DUP1 SWAP2 SUB SWAP1 RETURN JUMPDEST CALLVALUE DUP1 ISZERO PUSH2 0x212 JUMPI PUSH1 0x0 DUP1 REVERT JUMPDEST POP PUSH2 0x21B PUSH2 0x413 JUMP JUMPDEST PUSH1 0x40 MLOAD PUSH2 0x228 SWAP2 SWAP1 PUSH2 0x149B JUMP JUMPDEST PUSH1 0x40 MLOAD DUP1 SWAP2 SUB SWAP1 RETURN JUMPDEST CALLVALUE DUP1 ISZERO PUSH2 0x23D JUMPI PUSH1 0x0 DUP1 REVERT JUMPDEST POP PUSH2 0x258 PUSH1 0x4 DUP1 CALLDATASIZE SUB DUP2 ADD SWAP1 PUSH2 0x253 SWAP2 SWAP1 PUSH2 0x15F6 JUMP JUMPDEST PUSH2 0x437 JUMP JUMPDEST PUSH1 0x40 MLOAD PUSH2 0x268 SWAP5 SWAP4 SWAP3 SWAP2 SWAP1 PUSH2 0x163E JUMP JUMPDEST PUSH1 0x40 MLOAD DUP1 SWAP2 SUB SWAP1 RETURN JUMPDEST CALLVALUE DUP1 ISZERO PUSH2 0x27D JUMPI PUSH1 0x0 DUP1 REVERT JUMPDEST POP PUSH2 0x286 PUSH2 0x494 JUMP JUMPDEST PUSH1 0x40 MLOAD PUSH2 0x293 SWAP2 SWAP1 PUSH2 0x1713 JUMP JUMPDEST PUSH1 0x40 MLOAD DUP1 SWAP2 SUB SWAP1 RETURN JUMPDEST CALLVALUE DUP1 ISZERO PUSH2 0x2A8 JUMPI PUSH1 0x0 DUP1 REVERT JUMPDEST POP PUSH2 0x2B1 PUSH2 0x4CD JUMP JUMPDEST PUSH1 0x40 MLOAD PUSH2 0x2BE SWAP2 SWAP1 PUSH2 0x14CF JUMP JUMPDEST PUSH1 0x40 MLOAD DUP1 SWAP2 SUB SWAP1 RETURN JUMPDEST CALLVALUE DUP1 ISZERO PUSH2 0x2D3 JUMPI PUSH1 0x0 DUP1 REVERT JUMPDEST POP PUSH2 0x2EE PUSH1 0x4 DUP1 CALLDATASIZE SUB DUP2 ADD SWAP1 PUSH2 0x2E9 SWAP2 SWAP1 PUSH2 0x1848 JUMP JUMPDEST PUSH2 0x4D2 JUMP JUMPDEST STOP JUMPDEST PUSH2 0x30A PUSH1 0x4 DUP1 CALLDATASIZE SUB DUP2 ADD SWAP1 PUSH2 0x305 SWAP2 SWAP1 PUSH2 0x15F6 JUMP JUMPDEST PUSH2 0xC92 JUMP JUMPDEST STOP JUMPDEST CALLVALUE DUP1 ISZERO PUSH2 0x318 JUMPI PUSH1 0x0 DUP1 REVERT JUMPDEST POP PUSH2 0x333 PUSH1 0x4 DUP1 CALLDATASIZE SUB DUP2 ADD SWAP1 PUSH2 0x32E SWAP2 SWAP1 PUSH2 0x1917 JUMP JUMPDEST PUSH2 0xE97 JUMP JUMPDEST STOP JUMPDEST CALLVALUE DUP1 ISZERO PUSH2 0x341 JUMPI PUSH1 0x0 DUP1 REVERT JUMPDEST POP PUSH2 0x34A PUSH2 0xF1D JUMP JUMPDEST PUSH1 0x40 MLOAD PUSH2 0x357 SWAP2 SWAP1 PUSH2 0x1713 JUMP JUMPDEST PUSH1 0x40 MLOAD DUP1 SWAP2 SUB SWAP1 RETURN JUMPDEST PUSH32 0x8B73C3C69BB8FE3D512ECC4CF759CC79239F7B179B0FFACAA9A75D522B39400F DUP2 JUMP JUMPDEST PUSH1 0x3C DUP2 JUMP JUMPDEST PUSH32 0x0 DUP2 JUMP JUMPDEST PUSH1 0x5 DUP2 JUMP JUMPDEST PUSH2 0x3BA PUSH2 0xF56 JUMP JUMPDEST PUSH2 0x3C4 PUSH1 0x0 PUSH2 0xFDD JUMP JUMPDEST JUMP JUMPDEST PUSH32 0x0 DUP2 JUMP JUMPDEST PUSH1 0x0 DUP1 PUSH1 0x0 SWAP1 SLOAD SWAP1 PUSH2 0x100 EXP SWAP1 DIV PUSH20 0xFFFFFFFFFFFFFFFFFFFFFFFFFFFFFFFFFFFFFFFF AND SWAP1 POP SWAP1 JUMP JUMPDEST PUSH32 0x8268C934B1199325BD73B5A56815A80F530848C86AA4A1F743ED9AD6D89CC08F DUP2 JUMP JUMPDEST PUSH1 0x1 PUSH1 0x20 MSTORE DUP1 PUSH1 0x0 MSTORE PUSH1 0x40 PUSH1 0x0 KECCAK256 PUSH1 0x0 SWAP2 POP SWAP1 POP DUP1 PUSH1 0x0 ADD PUSH1 0x0 SWAP1 SLOAD SWAP1 PUSH2 0x100 EXP SWAP1 DIV PUSH20 0xFFFFFFFFFFFFFFFFFFFFFFFFFFFFFFFFFFFFFFFF AND SWAP1 DUP1 PUSH1 0x1 ADD SLOAD SWAP1 DUP1 PUSH1 0x2 ADD PUSH1 0x0 SWAP1 SLOAD SWAP1 PUSH2 0x100 EXP SWAP1 DIV PUSH1 0xFF AND SWAP1 DUP1 PUSH1 0x3 ADD SLOAD SWAP1 POP DUP5 JUMP JUMPDEST PUSH1 0x40 MLOAD DUP1 PUSH1 0x40 ADD PUSH1 0x40 MSTORE DUP1 PUSH1 0x11 DUP2 MSTORE PUSH1 0x20 ADD PUSH32 0x56454E4F4D2050696C6F74457363726F77000000000000000000000000000000 DUP2 MSTORE POP DUP2 JUMP JUMPDEST PUSH1 0x19 DUP2 JUMP JUMPDEST PUSH1 0x0 PUSH1 0x1 PUSH1 0x0 DUP11 DUP2 MSTORE PUSH1 0x20 ADD SWAP1 DUP2 MSTORE PUSH1 0x20 ADD PUSH1 0x0 KECCAK256 SWAP1 POP DUP1 PUSH1 0x2 ADD PUSH1 0x0 SWAP1 SLOAD SWAP1 PUSH2 0x100 EXP SWAP1 DIV PUSH1 0xFF AND ISZERO PUSH2 0x53B JUMPI PUSH1 0x40 MLOAD PUSH32 0x8C379A000000000000000000000000000000000000000000000000000000000 DUP2 MSTORE PUSH1 0x4 ADD PUSH2 0x532 SWAP1 PUSH2 0x1990 JUMP JUMPDEST PUSH1 0x40 MLOAD DUP1 SWAP2 SUB SWAP1 REVERT JUMPDEST PUSH1 0x0 PUSH20 0xFFFFFFFFFFFFFFFFFFFFFFFFFFFFFFFFFFFFFFFF AND DUP2 PUSH1 0x0 ADD PUSH1 0x0 SWAP1 SLOAD SWAP1 PUSH2 0x100 EXP SWAP1 DIV PUSH20 0xFFFFFFFFFFFFFFFFFFFFFFFFFFFFFFFFFFFFFFFF AND PUSH20 0xFFFFFFFFFFFFFFFFFFFFFFFFFFFFFFFFFFFFFFFF AND SUB PUSH2 0x5CE JUMPI PUSH1 0x40 MLOAD PUSH32 0x8C379A000000000000000000000000000000000000000000000000000000000 DUP2 MSTORE PUSH1 0x4 ADD PUSH2 0x5C5 SWAP1 PUSH2 0x19FC JUMP JUMPDEST PUSH1 0x40 MLOAD DUP1 SWAP2 SUB SWAP1 REVERT JUMPDEST DUP3 DUP3 SWAP1 POP DUP6 DUP6 SWAP1 POP EQ PUSH2 0x616 JUMPI PUSH1 0x40 MLOAD PUSH32 0x8C379A000000000000000000000000000000000000000000000000000000000 DUP2 MSTORE PUSH1 0x4 ADD PUSH2 0x60D SWAP1 PUSH2 0x1A68 JUMP JUMPDEST PUSH1 0x40 MLOAD DUP1 SWAP2 SUB SWAP1 REVERT JUMPDEST PUSH1 0x5 DUP6 DUP6 SWAP1 POP LT ISZERO PUSH2 0x65D JUMPI PUSH1 0x40 MLOAD PUSH32 0x8C379A000000000000000000000000000000000000000000000000000000000 DUP2 MSTORE PUSH1 0x4 ADD PUSH2 0x654 SWAP1 PUSH2 0x1AD4 JUMP JUMPDEST PUSH1 0x40 MLOAD DUP1 SWAP2 SUB SWAP1 REVERT JUMPDEST PUSH1 0x0 DUP1 DUP7 DUP7 SWAP1 POP PUSH8 0xFFFFFFFFFFFFFFFF DUP2 GT ISZERO PUSH2 0x67D JUMPI PUSH2 0x67C PUSH2 0x1AF4 JUMP JUMPDEST JUMPDEST PUSH1 0x40 MLOAD SWAP1 DUP1 DUP3 MSTORE DUP1 PUSH1 0x20 MUL PUSH1 0x20 ADD DUP3 ADD PUSH1 0x40 MSTORE DUP1 ISZERO PUSH2 0x6AB JUMPI DUP2 PUSH1 0x20 ADD PUSH1 0x20 DUP3 MUL DUP1 CALLDATASIZE DUP4 CALLDATACOPY DUP1 DUP3 ADD SWAP2 POP POP SWAP1 POP JUMPDEST POP SWAP1 POP PUSH1 0x0 DUP8 DUP8 SWAP1 POP PUSH8 0xFFFFFFFFFFFFFFFF DUP2 GT ISZERO PUSH2 0x6CD JUMPI PUSH2 0x6CC PUSH2 0x1AF4 JUMP JUMPDEST JUMPDEST PUSH1 0x40 MLOAD SWAP1 DUP1 DUP3 MSTORE DUP1 PUSH1 0x20 MUL PUSH1 0x20 ADD DUP3 ADD PUSH1 0x40 MSTORE DUP1 ISZERO PUSH2 0x6FB JUMPI DUP2 PUSH1 0x20 ADD PUSH1 0x20 DUP3 MUL DUP1 CALLDATASIZE DUP4 CALLDATACOPY DUP1 DUP3 ADD SWAP2 POP POP SWAP1 POP JUMPDEST POP SWAP1 POP PUSH1 0x0 JUMPDEST DUP9 DUP9 SWAP1 POP DUP2 LT ISZERO PUSH2 0x91D JUMPI PUSH1 0x0 PUSH2 0x799 DUP15 DUP12 DUP12 DUP6 DUP2 DUP2 LT PUSH2 0x725 JUMPI PUSH2 0x724 PUSH2 0x1B23 JUMP JUMPDEST JUMPDEST SWAP1 POP PUSH1 0x20 MUL ADD CALLDATALOAD DUP11 DUP11 DUP7 DUP2 DUP2 LT PUSH2 0x73F JUMPI PUSH2 0x73E PUSH2 0x1B23 JUMP JUMPDEST JUMPDEST SWAP1 POP PUSH1 0x20 MUL DUP2 ADD SWAP1 PUSH2 0x751 SWAP2 SWAP1 PUSH2 0x1B61 JUMP JUMPDEST DUP1 DUP1 PUSH1 0x1F ADD PUSH1 0x20 DUP1 SWAP2 DIV MUL PUSH1 0x20 ADD PUSH1 0x40 MLOAD SWAP1 DUP2 ADD PUSH1 0x40 MSTORE DUP1 SWAP4 SWAP3 SWAP2 SWAP1 DUP2 DUP2 MSTORE PUSH1 0x20 ADD DUP4 DUP4 DUP1 DUP3 DUP5 CALLDATACOPY PUSH1 0x0 DUP2 DUP5 ADD MSTORE PUSH1 0x1F NOT PUSH1 0x1F DUP3 ADD AND SWAP1 POP DUP1 DUP4 ADD SWAP3 POP POP POP POP POP POP POP PUSH2 0x10A1 JUMP JUMPDEST SWAP1 POP PUSH1 0x0 PUSH20 0xFFFFFFFFFFFFFFFFFFFFFFFFFFFFFFFFFFFFFFFF AND DUP2 PUSH20 0xFFFFFFFFFFFFFFFFFFFFFFFFFFFFFFFFFFFFFFFF AND EQ ISZERO DUP1 ISZERO PUSH2 0x86E JUMPI POP PUSH32 0x0 PUSH20 0xFFFFFFFFFFFFFFFFFFFFFFFFFFFFFFFFFFFFFFFF AND PUSH4 0x3AE9B8F1 DUP3 PUSH1 0x40 MLOAD DUP3 PUSH4 0xFFFFFFFF AND PUSH1 0xE0 SHL DUP2 MSTORE PUSH1 0x4 ADD PUSH2 0x82C SWAP2 SWAP1 PUSH2 0x15A5 JUMP JUMPDEST PUSH1 0x20 PUSH1 0x40 MLOAD DUP1 DUP4 SUB DUP2 DUP7 GAS STATICCALL ISZERO DUP1 ISZERO PUSH2 0x849 JUMPI RETURNDATASIZE PUSH1 0x0 DUP1 RETURNDATACOPY RETURNDATASIZE PUSH1 0x0 REVERT JUMPDEST POP POP POP POP PUSH1 0x40 MLOAD RETURNDATASIZE PUSH1 0x1F NOT PUSH1 0x1F DUP3 ADD AND DUP3 ADD DUP1 PUSH1 0x40 MSTORE POP DUP2 ADD SWAP1 PUSH2 0x86D SWAP2 SWAP1 PUSH2 0x1BF0 JUMP JUMPDEST JUMPDEST ISZERO PUSH2 0x909 JUMPI DUP10 DUP10 DUP4 DUP2 DUP2 LT PUSH2 0x886 JUMPI PUSH2 0x885 PUSH2 0x1B23 JUMP JUMPDEST JUMPDEST SWAP1 POP PUSH1 0x20 MUL ADD CALLDATALOAD DUP5 DUP7 DUP2 MLOAD DUP2 LT PUSH2 0x8A0 JUMPI PUSH2 0x89F PUSH2 0x1B23 JUMP JUMPDEST JUMPDEST PUSH1 0x20 MUL PUSH1 0x20 ADD ADD DUP2 DUP2 MSTORE POP POP DUP1 DUP4 DUP7 DUP2 MLOAD DUP2 LT PUSH2 0x8C0 JUMPI PUSH2 0x8BF PUSH2 0x1B23 JUMP JUMPDEST JUMPDEST PUSH1 0x20 MUL PUSH1 0x20 ADD ADD SWAP1 PUSH20 0xFFFFFFFFFFFFFFFFFFFFFFFFFFFFFFFFFFFFFFFF AND SWAP1 DUP2 PUSH20 0xFFFFFFFFFFFFFFFFFFFFFFFFFFFFFFFFFFFFFFFF AND DUP2 MSTORE POP POP DUP5 DUP1 PUSH2 0x905 SWAP1 PUSH2 0x1C4C JUMP JUMPDEST SWAP6 POP POP JUMPDEST POP DUP1 DUP1 PUSH2 0x915 SWAP1 PUSH2 0x1C4C JUMP JUMPDEST SWAP2 POP POP PUSH2 0x701 JUMP JUMPDEST POP PUSH1 0x5 DUP4 LT ISZERO PUSH2 0x962 JUMPI PUSH1 0x40 MLOAD PUSH32 0x8C379A000000000000000000000000000000000000000000000000000000000 DUP2 MSTORE PUSH1 0x4 ADD PUSH2 0x959 SWAP1 PUSH2 0x1CE0 JUMP JUMPDEST PUSH1 0x40 MLOAD DUP1 SWAP2 SUB SWAP1 REVERT JUMPDEST PUSH1 0x0 PUSH2 0x96E DUP4 DUP6 PUSH2 0x11E9 JUMP JUMPDEST SWAP1 POP PUSH1 0x3C DUP2 LT ISZERO PUSH2 0x9B4 JUMPI PUSH1 0x40 MLOAD PUSH32 0x8C379A000000000000000000000000000000000000000000000000000000000 DUP2 MSTORE PUSH1 0x4 ADD PUSH2 0x9AB SWAP1 PUSH2 0x1D4C JUMP JUMPDEST PUSH1 0x40 MLOAD DUP1 SWAP2 SUB SWAP1 REVERT JUMPDEST PUSH1 0x1 DUP6 PUSH1 0x2 ADD PUSH1 0x0 PUSH2 0x100 EXP DUP2 SLOAD DUP2 PUSH1 0xFF MUL NOT AND SWAP1 DUP4 ISZERO ISZERO MUL OR SWAP1 SSTORE POP PUSH1 0x0 JUMPDEST DUP5 DUP2 LT ISZERO PUSH2 0xB34 JUMPI PUSH1 0x0 DUP3 DUP6 DUP4 DUP2 MLOAD DUP2 LT PUSH2 0x9F2 JUMPI PUSH2 0x9F1 PUSH2 0x1B23 JUMP JUMPDEST JUMPDEST PUSH1 0x20 MUL PUSH1 0x20 ADD ADD MLOAD GT PUSH2 0xA2A JUMPI DUP5 DUP3 DUP2 MLOAD DUP2 LT PUSH2 0xA12 JUMPI PUSH2 0xA11 PUSH2 0x1B23 JUMP JUMPDEST JUMPDEST PUSH1 0x20 MUL PUSH1 0x20 ADD ADD MLOAD DUP4 PUSH2 0xA25 SWAP2 SWAP1 PUSH2 0x1D6C JUMP JUMPDEST PUSH2 0xA51 JUMP JUMPDEST DUP3 DUP6 DUP4 DUP2 MLOAD DUP2 LT PUSH2 0xA3E JUMPI PUSH2 0xA3D PUSH2 0x1B23 JUMP JUMPDEST JUMPDEST PUSH1 0x20 MUL PUSH1 0x20 ADD ADD MLOAD PUSH2 0xA50 SWAP2 SWAP1 PUSH2 0x1D6C JUMP JUMPDEST JUMPDEST SWAP1 POP PUSH1 0x19 DUP2 GT ISZERO PUSH2 0xB20 JUMPI PUSH32 0x0 PUSH20 0xFFFFFFFFFFFFFFFFFFFFFFFFFFFFFFFFFFFFFFFF AND PUSH4 0x18DBD273 DUP6 DUP5 DUP2 MLOAD DUP2 LT PUSH2 0xAAB JUMPI PUSH2 0xAAA PUSH2 0x1B23 JUMP JUMPDEST JUMPDEST PUSH1 0x20 MUL PUSH1 0x20 ADD ADD MLOAD DUP8 DUP6 DUP2 MLOAD DUP2 LT PUSH2 0xAC6 JUMPI PUSH2 0xAC5 PUSH2 0x1B23 JUMP JUMPDEST JUMPDEST PUSH1 0x20 MUL PUSH1 0x20 ADD ADD MLOAD DUP7 PUSH1 0x40 MLOAD DUP5 PUSH4 0xFFFFFFFF AND PUSH1 0xE0 SHL DUP2 MSTORE PUSH1 0x4 ADD PUSH2 0xAED SWAP4 SWAP3 SWAP2 SWAP1 PUSH2 0x1DA0 JUMP JUMPDEST PUSH1 0x0 PUSH1 0x40 MLOAD DUP1 DUP4 SUB DUP2 PUSH1 0x0 DUP8 DUP1 EXTCODESIZE ISZERO DUP1 ISZERO PUSH2 0xB07 JUMPI PUSH1 0x0 DUP1 REVERT JUMPDEST POP GAS CALL ISZERO DUP1 ISZERO PUSH2 0xB1B JUMPI RETURNDATASIZE PUSH1 0x0 DUP1 RETURNDATACOPY RETURNDATASIZE PUSH1 0x0 REVERT JUMPDEST POP POP POP POP JUMPDEST POP DUP1 DUP1 PUSH2 0xB2C SWAP1 PUSH2 0x1C4C JUMP JUMPDEST SWAP2 POP POP PUSH2 0x9D4 JUMP JUMPDEST POP PUSH1 0x0 DUP6 PUSH1 0x0 ADD PUSH1 0x0 SWAP1 SLOAD SWAP1 PUSH2 0x100 EXP SWAP1 DIV PUSH20 0xFFFFFFFFFFFFFFFFFFFFFFFFFFFFFFFFFFFFFFFF AND PUSH20 0xFFFFFFFFFFFFFFFFFFFFFFFFFFFFFFFFFFFFFFFF AND DUP7 PUSH1 0x1 ADD SLOAD PUSH1 0x40 MLOAD PUSH2 0xB83 SWAP1 PUSH2 0x1E08 JUMP JUMPDEST PUSH1 0x0 PUSH1 0x40 MLOAD DUP1 DUP4 SUB DUP2 DUP6 DUP8 GAS CALL SWAP3 POP POP POP RETURNDATASIZE DUP1 PUSH1 0x0 DUP2 EQ PUSH2 0xBC0 JUMPI PUSH1 0x40 MLOAD SWAP2 POP PUSH1 0x1F NOT PUSH1 0x3F RETURNDATASIZE ADD AND DUP3 ADD PUSH1 0x40 MSTORE RETURNDATASIZE DUP3 MSTORE RETURNDATASIZE PUSH1 0x0 PUSH1 0x20 DUP5 ADD RETURNDATACOPY PUSH2 0xBC5 JUMP JUMPDEST PUSH1 0x60 SWAP2 POP JUMPDEST POP POP SWAP1 POP DUP1 PUSH2 0xC09 JUMPI PUSH1 0x40 MLOAD PUSH32 0x8C379A000000000000000000000000000000000000000000000000000000000 DUP2 MSTORE PUSH1 0x4 ADD PUSH2 0xC00 SWAP1 PUSH2 0x1E69 JUMP JUMPDEST PUSH1 0x40 MLOAD DUP1 SWAP2 SUB SWAP1 REVERT JUMPDEST DUP6 PUSH1 0x0 ADD PUSH1 0x0 SWAP1 SLOAD SWAP1 PUSH2 0x100 EXP SWAP1 DIV PUSH20 0xFFFFFFFFFFFFFFFFFFFFFFFFFFFFFFFFFFFFFFFF AND PUSH20 0xFFFFFFFFFFFFFFFFFFFFFFFFFFFFFFFFFFFFFFFF AND DUP15 PUSH32 0x52451B0C080B6BEE6B75806CA36BD4CDD6DACC3C3834B1EA4962B37A24CBC18C DUP9 PUSH1 0x1 ADD SLOAD DUP6 PUSH1 0x40 MLOAD PUSH2 0xC7A SWAP3 SWAP2 SWAP1 PUSH2 0x1E89 JUMP JUMPDEST PUSH1 0x40 MLOAD DUP1 SWAP2 SUB SWAP1 LOG3 POP POP POP POP POP POP POP POP POP POP POP POP POP POP JUMP JUMPDEST PUSH1 0x0 CALLVALUE GT PUSH2 0xCD5 JUMPI PUSH1 0x40 MLOAD PUSH32 0x8C379A000000000000000000000000000000000000000000000000000000000 DUP2 MSTORE PUSH1 0x4 ADD PUSH2 0xCCC SWAP1 PUSH2 0x1EFE JUMP JUMPDEST PUSH1 0x40 MLOAD DUP1 SWAP2 SUB SWAP1 REVERT JUMPDEST PUSH1 0x0 PUSH20 0xFFFFFFFFFFFFFFFFFFFFFFFFFFFFFFFFFFFFFFFF AND PUSH1 0x1 PUSH1 0x0 DUP4 DUP2 MSTORE PUSH1 0x20 ADD SWAP1 DUP2 MSTORE PUSH1 0x20 ADD PUSH1 0x0 KECCAK256 PUSH1 0x0 ADD PUSH1 0x0 SWAP1 SLOAD SWAP1 PUSH2 0x100 EXP SWAP1 DIV PUSH20 0xFFFFFFFFFFFFFFFFFFFFFFFFFFFFFFFFFFFFFFFF AND PUSH20 0xFFFFFFFFFFFFFFFFFFFFFFFFFFFFFFFFFFFFFFFF AND EQ PUSH2 0xD7A JUMPI PUSH1 0x40 MLOAD PUSH32 0x8C379A000000000000000000000000000000000000000000000000000000000 DUP2 MSTORE PUSH1 0x4 ADD PUSH2 0xD71 SWAP1 PUSH2 0x1F6A JUMP JUMPDEST PUSH1 0x40 MLOAD DUP1 SWAP2 SUB SWAP1 REVERT JUMPDEST PUSH1 0x40 MLOAD DUP1 PUSH1 0x80 ADD PUSH1 0x40 MSTORE DUP1 CALLER PUSH20 0xFFFFFFFFFFFFFFFFFFFFFFFFFFFFFFFFFFFFFFFF AND DUP2 MSTORE PUSH1 0x20 ADD CALLVALUE DUP2 MSTORE PUSH1 0x20 ADD PUSH1 0x0 ISZERO ISZERO DUP2 MSTORE PUSH1 0x20 ADD NUMBER DUP2 MSTORE POP PUSH1 0x1 PUSH1 0x0 DUP4 DUP2 MSTORE PUSH1 0x20 ADD SWAP1 DUP2 MSTORE PUSH1 0x20 ADD PUSH1 0x0 KECCAK256 PUSH1 0x0 DUP3 ADD MLOAD DUP2 PUSH1 0x0 ADD PUSH1 0x0 PUSH2 0x100 EXP DUP2 SLOAD DUP2 PUSH20 0xFFFFFFFFFFFFFFFFFFFFFFFFFFFFFFFFFFFFFFFF MUL NOT AND SWAP1 DUP4 PUSH20 0xFFFFFFFFFFFFFFFFFFFFFFFFFFFFFFFFFFFFFFFF AND MUL OR SWAP1 SSTORE POP PUSH1 0x20 DUP3 ADD MLOAD DUP2 PUSH1 0x1 ADD SSTORE PUSH1 0x40 DUP3 ADD MLOAD DUP2 PUSH1 0x2 ADD PUSH1 0x0 PUSH2 0x100 EXP DUP2 SLOAD DUP2 PUSH1 0xFF MUL NOT AND SWAP1 DUP4 ISZERO ISZERO MUL OR SWAP1 SSTORE POP PUSH1 0x60 DUP3 ADD MLOAD DUP2 PUSH1 0x3 ADD SSTORE SWAP1 POP POP CALLER PUSH20 0xFFFFFFFFFFFFFFFFFFFFFFFFFFFFFFFFFFFFFFFF AND DUP2 PUSH32 0xF5317246B1280F9CDFA4E36ED4CF0D02B1F02180E7EA02F9271CB356EB37469E CALLVALUE PUSH1 0x40 MLOAD PUSH2 0xE8C SWAP2 SWAP1 PUSH2 0x14CF JUMP JUMPDEST PUSH1 0x40 MLOAD DUP1 SWAP2 SUB SWAP1 LOG3 POP JUMP JUMPDEST PUSH2 0xE9F PUSH2 0xF56 JUMP JUMPDEST PUSH1 0x0 PUSH20 0xFFFFFFFFFFFFFFFFFFFFFFFFFFFFFFFFFFFFFFFF AND DUP2 PUSH20 0xFFFFFFFFFFFFFFFFFFFFFFFFFFFFFFFFFFFFFFFF AND SUB PUSH2 0xF11 JUMPI PUSH1 0x0 PUSH1 0x40 MLOAD PUSH32 0x1E4FBDF700000000000000000000000000000000000000000000000000000000 DUP2 MSTORE PUSH1 0x4 ADD PUSH2 0xF08 SWAP2 SWAP1 PUSH2 0x15A5 JUMP JUMPDEST PUSH1 0x40 MLOAD DUP1 SWAP2 SUB SWAP1 REVERT JUMPDEST PUSH2 0xF1A DUP2 PUSH2 0xFDD JUMP JUMPDEST POP JUMP JUMPDEST PUSH1 0x40 MLOAD DUP1 PUSH1 0x40 ADD PUSH1 0x40 MSTORE DUP1 PUSH1 0x1 DUP2 MSTORE PUSH1 0x20 ADD PUSH32 0x3100000000000000000000000000000000000000000000000000000000000000 DUP2 MSTORE POP DUP2 JUMP JUMPDEST PUSH2 0xF5E PUSH2 0x13F6 JUMP JUMPDEST PUSH20 0xFFFFFFFFFFFFFFFFFFFFFFFFFFFFFFFFFFFFFFFF AND PUSH2 0xF7C PUSH2 0x3EA JUMP JUMPDEST PUSH20 0xFFFFFFFFFFFFFFFFFFFFFFFFFFFFFFFFFFFFFFFF AND EQ PUSH2 0xFDB JUMPI PUSH2 0xF9F PUSH2 0x13F6 JUMP JUMPDEST PUSH1 0x40 MLOAD PUSH32 0x118CDAA700000000000000000000000000000000000000000000000000000000 DUP2 MSTORE PUSH1 0x4 ADD PUSH2 0xFD2 SWAP2 SWAP1 PUSH2 0x15A5 JUMP JUMPDEST PUSH1 0x40 MLOAD DUP1 SWAP2 SUB SWAP1 REVERT JUMPDEST JUMP JUMPDEST PUSH1 0x0 DUP1 PUSH1 0x0 SWAP1 SLOAD SWAP1 PUSH2 0x100 EXP SWAP1 DIV PUSH20 0xFFFFFFFFFFFFFFFFFFFFFFFFFFFFFFFFFFFFFFFF AND SWAP1 POP DUP2 PUSH1 0x0 DUP1 PUSH2 0x100 EXP DUP2 SLOAD DUP2 PUSH20 0xFFFFFFFFFFFFFFFFFFFFFFFFFFFFFFFFFFFFFFFF MUL NOT AND SWAP1 DUP4 PUSH20 0xFFFFFFFFFFFFFFFFFFFFFFFFFFFFFFFFFFFFFFFF AND MUL OR SWAP1 SSTORE POP DUP2 PUSH20 0xFFFFFFFFFFFFFFFFFFFFFFFFFFFFFFFFFFFFFFFF AND DUP2 PUSH20 0xFFFFFFFFFFFFFFFFFFFFFFFFFFFFFFFFFFFFFFFF AND PUSH32 0x8BE0079C531659141344CD1FD0A4F28419497F9722A3DAAFE3B4186F6B6457E0 PUSH1 0x40 MLOAD PUSH1 0x40 MLOAD DUP1 SWAP2 SUB SWAP1 LOG3 POP POP JUMP JUMPDEST PUSH1 0x0 DUP1 PUSH32 0x8268C934B1199325BD73B5A56815A80F530848C86AA4A1F743ED9AD6D89CC08F DUP6 DUP6 PUSH1 0x40 MLOAD PUSH1 0x20 ADD PUSH2 0x10D9 SWAP4 SWAP3 SWAP2 SWAP1 PUSH2 0x1F8A JUMP JUMPDEST PUSH1 0x40 MLOAD PUSH1 0x20 DUP2 DUP4 SUB SUB DUP2 MSTORE SWAP1 PUSH1 0x40 MSTORE DUP1 MLOAD SWAP1 PUSH1 0x20 ADD KECCAK256 SWAP1 POP PUSH1 0x0 PUSH32 0x0 DUP3 PUSH1 0x40 MLOAD PUSH1 0x20 ADD PUSH2 0x1126 SWAP3 SWAP2 SWAP1 PUSH2 0x2039 JUMP JUMPDEST PUSH1 0x40 MLOAD PUSH1 0x20 DUP2 DUP4 SUB SUB DUP2 MSTORE SWAP1 PUSH1 0x40 MSTORE DUP1 MLOAD SWAP1 PUSH1 0x20 ADD KECCAK256 SWAP1 POP PUSH1 0x0 DUP1 PUSH1 0x0 PUSH2 0x114C DUP8 PUSH2 0x13FE JUMP JUMPDEST SWAP3 POP SWAP3 POP SWAP3 POP PUSH32 0x7FFFFFFFFFFFFFFFFFFFFFFFFFFFFFFF5D576E7357A4501DDFE92F46681B20A0 DUP3 PUSH1 0x0 SHR GT ISZERO PUSH2 0x118B JUMPI PUSH1 0x0 SWAP6 POP POP POP POP POP POP PUSH2 0x11E2 JUMP JUMPDEST PUSH1 0x1 DUP5 DUP3 DUP6 DUP6 PUSH1 0x40 MLOAD PUSH1 0x0 DUP2 MSTORE PUSH1 0x20 ADD PUSH1 0x40 MSTORE PUSH1 0x40 MLOAD PUSH2 0x11AE SWAP5 SWAP4 SWAP3 SWAP2 SWAP1 PUSH2 0x208C JUMP JUMPDEST PUSH1 0x20 PUSH1 0x40 MLOAD PUSH1 0x20 DUP2 SUB SWAP1 DUP1 DUP5 SUB SWAP1 DUP6 GAS STATICCALL ISZERO DUP1 ISZERO PUSH2 0x11D0 JUMPI RETURNDATASIZE PUSH1 0x0 DUP1 RETURNDATACOPY RETURNDATASIZE PUSH1 0x0 REVERT JUMPDEST POP POP POP PUSH1 0x20 PUSH1 0x40 MLOAD SUB MLOAD SWAP6 POP POP POP POP POP POP JUMPDEST SWAP4 SWAP3 POP POP POP JUMP JUMPDEST PUSH1 0x0 DUP1 DUP3 PUSH8 0xFFFFFFFFFFFFFFFF DUP2 GT ISZERO PUSH2 0x1206 JUMPI PUSH2 0x1205 PUSH2 0x1AF4 JUMP JUMPDEST JUMPDEST PUSH1 0x40 MLOAD SWAP1 DUP1 DUP3 MSTORE DUP1 PUSH1 0x20 MUL PUSH1 0x20 ADD DUP3 ADD PUSH1 0x40 MSTORE DUP1 ISZERO PUSH2 0x1234 JUMPI DUP2 PUSH1 0x20 ADD PUSH1 0x20 DUP3 MUL DUP1 CALLDATASIZE DUP4 CALLDATACOPY DUP1 DUP3 ADD SWAP2 POP POP SWAP1 POP JUMPDEST POP SWAP1 POP PUSH1 0x0 JUMPDEST DUP4 DUP2 LT ISZERO PUSH2 0x128F JUMPI DUP5 DUP2 DUP2 MLOAD DUP2 LT PUSH2 0x1255 JUMPI PUSH2 0x1254 PUSH2 0x1B23 JUMP JUMPDEST JUMPDEST PUSH1 0x20 MUL PUSH1 0x20 ADD ADD MLOAD DUP3 DUP3 DUP2 MLOAD DUP2 LT PUSH2 0x1270 JUMPI PUSH2 0x126F PUSH2 0x1B23 JUMP JUMPDEST JUMPDEST PUSH1 0x20 MUL PUSH1 0x20 ADD ADD DUP2 DUP2 MSTORE POP POP DUP1 DUP1 PUSH2 0x1287 SWAP1 PUSH2 0x1C4C JUMP JUMPDEST SWAP2 POP POP PUSH2 0x123A JUMP JUMPDEST POP PUSH1 0x0 JUMPDEST PUSH1 0x1 DUP5 PUSH2 0x12A0 SWAP2 SWAP1 PUSH2 0x1D6C JUMP JUMPDEST DUP2 LT ISZERO PUSH2 0x13C5 JUMPI PUSH1 0x0 JUMPDEST PUSH1 0x1 DUP3 DUP7 PUSH2 0x12B8 SWAP2 SWAP1 PUSH2 0x1D6C JUMP JUMPDEST PUSH2 0x12C2 SWAP2 SWAP1 PUSH2 0x1D6C JUMP JUMPDEST DUP2 LT ISZERO PUSH2 0x13B1 JUMPI DUP3 PUSH1 0x1 DUP3 PUSH2 0x12D7 SWAP2 SWAP1 PUSH2 0x20D1 JUMP JUMPDEST DUP2 MLOAD DUP2 LT PUSH2 0x12E8 JUMPI PUSH2 0x12E7 PUSH2 0x1B23 JUMP JUMPDEST JUMPDEST PUSH1 0x20 MUL PUSH1 0x20 ADD ADD MLOAD DUP4 DUP3 DUP2 MLOAD DUP2 LT PUSH2 0x1303 JUMPI PUSH2 0x1302 PUSH2 0x1B23 JUMP JUMPDEST JUMPDEST PUSH1 0x20 MUL PUSH1 0x20 ADD ADD MLOAD GT ISZERO PUSH2 0x139E JUMPI DUP3 PUSH1 0x1 DUP3 PUSH2 0x131F SWAP2 SWAP1 PUSH2 0x20D1 JUMP JUMPDEST DUP2 MLOAD DUP2 LT PUSH2 0x1330 JUMPI PUSH2 0x132F PUSH2 0x1B23 JUMP JUMPDEST JUMPDEST PUSH1 0x20 MUL PUSH1 0x20 ADD ADD MLOAD DUP4 DUP3 DUP2 MLOAD DUP2 LT PUSH2 0x134B JUMPI PUSH2 0x134A PUSH2 0x1B23 JUMP JUMPDEST JUMPDEST PUSH1 0x20 MUL PUSH1 0x20 ADD ADD MLOAD DUP5 DUP4 DUP2 MLOAD DUP2 LT PUSH2 0x1366 JUMPI PUSH2 0x1365 PUSH2 0x1B23 JUMP JUMPDEST JUMPDEST PUSH1 0x20 MUL PUSH1 0x20 ADD ADD DUP6 PUSH1 0x1 DUP6 PUSH2 0x137B SWAP2 SWAP1 PUSH2 0x20D1 JUMP JUMPDEST DUP2 MLOAD DUP2 LT PUSH2 0x138C JUMPI PUSH2 0x138B PUSH2 0x1B23 JUMP JUMPDEST JUMPDEST PUSH1 0x20 MUL PUSH1 0x20 ADD ADD DUP3 DUP2 MSTORE POP DUP3 DUP2 MSTORE POP POP POP JUMPDEST DUP1 DUP1 PUSH2 0x13A9 SWAP1 PUSH2 0x1C4C JUMP JUMPDEST SWAP2 POP POP PUSH2 0x12AA JUMP JUMPDEST POP DUP1 DUP1 PUSH2 0x13BD SWAP1 PUSH2 0x1C4C JUMP JUMPDEST SWAP2 POP POP PUSH2 0x1293 JUMP JUMPDEST POP DUP1 PUSH1 0x2 DUP5 PUSH2 0x13D4 SWAP2 SWAP1 PUSH2 0x2134 JUMP JUMPDEST DUP2 MLOAD DUP2 LT PUSH2 0x13E5 JUMPI PUSH2 0x13E4 PUSH2 0x1B23 JUMP JUMPDEST JUMPDEST PUSH1 0x20 MUL PUSH1 0x20 ADD ADD MLOAD SWAP2 POP POP SWAP3 SWAP2 POP POP JUMP JUMPDEST PUSH1 0x0 CALLER SWAP1 POP SWAP1 JUMP JUMPDEST PUSH1 0x0 DUP1 PUSH1 0x0 PUSH1 0x41 DUP5 MLOAD EQ PUSH2 0x1447 JUMPI PUSH1 0x40 MLOAD PUSH32 0x8C379A000000000000000000000000000000000000000000000000000000000 DUP2 MSTORE PUSH1 0x4 ADD PUSH2 0x143E SWAP1 PUSH2 0x21B1 JUMP JUMPDEST PUSH1 0x40 MLOAD DUP1 SWAP2 SUB SWAP1 REVERT JUMPDEST PUSH1 0x20 DUP5 ADD MLOAD SWAP3 POP PUSH1 0x40 DUP5 ADD MLOAD SWAP2 POP PUSH1 0x60 DUP5 ADD MLOAD PUSH1 0x0 BYTE SWAP1 POP PUSH1 0x1B DUP2 PUSH1 0xFF AND LT ISZERO PUSH2 0x147B JUMPI PUSH1 0x1B DUP2 PUSH2 0x1478 SWAP2 SWAP1 PUSH2 0x21D1 JUMP JUMPDEST SWAP1 POP JUMPDEST SWAP2 SWAP4 SWAP1 SWAP3 POP JUMP JUMPDEST PUSH1 0x0 DUP2 SWAP1 POP SWAP2 SWAP1 POP JUMP JUMPDEST PUSH2 0x1495 DUP2 PUSH2 0x1482 JUMP JUMPDEST DUP3 MSTORE POP POP JUMP JUMPDEST PUSH1 0x0 PUSH1 0x20 DUP3 ADD SWAP1 POP PUSH2 0x14B0 PUSH1 0x0 DUP4 ADD DUP5 PUSH2 0x148C JUMP JUMPDEST SWAP3 SWAP2 POP POP JUMP JUMPDEST PUSH1 0x0 DUP2 SWAP1 POP SWAP2 SWAP1 POP JUMP JUMPDEST PUSH2 0x14C9 DUP2 PUSH2 0x14B6 JUMP JUMPDEST DUP3 MSTORE POP POP JUMP JUMPDEST PUSH1 0x0 PUSH1 0x20 DUP3 ADD SWAP1 POP PUSH2 0x14E4 PUSH1 0x0 DUP4 ADD DUP5 PUSH2 0x14C0 JUMP JUMPDEST SWAP3 SWAP2 POP POP JUMP JUMPDEST PUSH1 0x0 PUSH20 0xFFFFFFFFFFFFFFFFFFFFFFFFFFFFFFFFFFFFFFFF DUP3 AND SWAP1 POP SWAP2 SWAP1 POP JUMP JUMPDEST PUSH1 0x0 DUP2 SWAP1 POP SWAP2 SWAP1 POP JUMP JUMPDEST PUSH1 0x0 PUSH2 0x152F PUSH2 0x152A PUSH2 0x1525 DUP5 PUSH2 0x14EA JUMP JUMPDEST PUSH2 0x150A JUMP JUMPDEST PUSH2 0x14EA JUMP JUMPDEST SWAP1 POP SWAP2 SWAP1 POP JUMP JUMPDEST PUSH1 0x0 PUSH2 0x1541 DUP3 PUSH2 0x1514 JUMP JUMPDEST SWAP1 POP SWAP2 SWAP1 POP JUMP JUMPDEST PUSH1 0x0 PUSH2 0x1553 DUP3 PUSH2 0x1536 JUMP JUMPDEST SWAP1 POP SWAP2 SWAP1 POP JUMP JUMPDEST PUSH2 0x1563 DUP2 PUSH2 0x1548 JUMP JUMPDEST DUP3 MSTORE POP POP JUMP JUMPDEST PUSH1 0x0 PUSH1 0x20 DUP3 ADD SWAP1 POP PUSH2 0x157E PUSH1 0x0 DUP4 ADD DUP5 PUSH2 0x155A JUMP JUMPDEST SWAP3 SWAP2 POP POP JUMP JUMPDEST PUSH1 0x0 PUSH2 0x158F DUP3 PUSH2 0x14EA JUMP JUMPDEST SWAP1 POP SWAP2 SWAP1 POP JUMP JUMPDEST PUSH2 0x159F DUP2 PUSH2 0x1584 JUMP JUMPDEST DUP3 MSTORE POP POP JUMP JUMPDEST PUSH1 0x0 PUSH1 0x20 DUP3 ADD SWAP1 POP PUSH2 0x15BA PUSH1 0x0 DUP4 ADD DUP5 PUSH2 0x1596 JUMP JUMPDEST SWAP3 SWAP2 POP POP JUMP JUMPDEST PUSH1 0x0 DUP1 REVERT JUMPDEST PUSH1 0x0 DUP1 REVERT JUMPDEST PUSH2 0x15D3 DUP2 PUSH2 0x1482 JUMP JUMPDEST DUP2 EQ PUSH2 0x15DE JUMPI PUSH1 0x0 DUP1 REVERT JUMPDEST POP JUMP JUMPDEST PUSH1 0x0 DUP2 CALLDATALOAD SWAP1 POP PUSH2 0x15F0 DUP2 PUSH2 0x15CA JUMP JUMPDEST SWAP3 SWAP2 POP POP JUMP JUMPDEST PUSH1 0x0 PUSH1 0x20 DUP3 DUP5 SUB SLT ISZERO PUSH2 0x160C JUMPI PUSH2 0x160B PUSH2 0x15C0 JUMP JUMPDEST JUMPDEST PUSH1 0x0 PUSH2 0x161A DUP5 DUP3 DUP6 ADD PUSH2 0x15E1 JUMP JUMPDEST SWAP2 POP POP SWAP3 SWAP2 POP POP JUMP JUMPDEST PUSH1 0x0 DUP2 ISZERO ISZERO SWAP1 POP SWAP2 SWAP1 POP JUMP JUMPDEST PUSH2 0x1638 DUP2 PUSH2 0x1623 JUMP JUMPDEST DUP3 MSTORE POP POP JUMP JUMPDEST PUSH1 0x0 PUSH1 0x80 DUP3 ADD SWAP1 POP PUSH2 0x1653 PUSH1 0x0 DUP4 ADD DUP8 PUSH2 0x1596 JUMP JUMPDEST PUSH2 0x1660 PUSH1 0x20 DUP4 ADD DUP7 PUSH2 0x14C0 JUMP JUMPDEST PUSH2 0x166D PUSH1 0x40 DUP4 ADD DUP6 PUSH2 0x162F JUMP JUMPDEST PUSH2 0x167A PUSH1 0x60 DUP4 ADD DUP5 PUSH2 0x14C0 JUMP JUMPDEST SWAP6 SWAP5 POP POP POP POP POP JUMP JUMPDEST PUSH1 0x0 DUP2 MLOAD SWAP1 POP SWAP2 SWAP1 POP JUMP JUMPDEST PUSH1 0x0 DUP3 DUP3 MSTORE PUSH1 0x20 DUP3 ADD SWAP1 POP SWAP3 SWAP2 POP POP JUMP JUMPDEST PUSH1 0x0 JUMPDEST DUP4 DUP2 LT ISZERO PUSH2 0x16BD JUMPI DUP1 DUP3 ADD MLOAD DUP2 DUP5 ADD MSTORE PUSH1 0x20 DUP2 ADD SWAP1 POP PUSH2 0x16A2 JUMP JUMPDEST PUSH1 0x0 DUP5 DUP5 ADD MSTORE POP POP POP POP JUMP JUMPDEST PUSH1 0x0 PUSH1 0x1F NOT PUSH1 0x1F DUP4 ADD AND SWAP1 POP SWAP2 SWAP1 POP JUMP JUMPDEST PUSH1 0x0 PUSH2 0x16E5 DUP3 PUSH2 0x1683 JUMP JUMPDEST PUSH2 0x16EF DUP2 DUP6 PUSH2 0x168E JUMP JUMPDEST SWAP4 POP PUSH2 0x16FF DUP2 DUP6 PUSH1 0x20 DUP7 ADD PUSH2 0x169F JUMP JUMPDEST PUSH2 0x1708 DUP2 PUSH2 0x16C9 JUMP JUMPDEST DUP5 ADD SWAP2 POP POP SWAP3 SWAP2 POP POP JUMP JUMPDEST PUSH1 0x0 PUSH1 0x20 DUP3 ADD SWAP1 POP DUP2 DUP2 SUB PUSH1 0x0 DUP4 ADD MSTORE PUSH2 0x172D DUP2 DUP5 PUSH2 0x16DA JUMP JUMPDEST SWAP1 POP SWAP3 SWAP2 POP POP JUMP JUMPDEST PUSH2 0x173E DUP2 PUSH2 0x1584 JUMP JUMPDEST DUP2 EQ PUSH2 0x1749 JUMPI PUSH1 0x0 DUP1 REVERT JUMPDEST POP JUMP JUMPDEST PUSH1 0x0 DUP2 CALLDATALOAD SWAP1 POP PUSH2 0x175B DUP2 PUSH2 0x1735 JUMP JUMPDEST SWAP3 SWAP2 POP POP JUMP JUMPDEST PUSH2 0x176A DUP2 PUSH2 0x14B6 JUMP JUMPDEST DUP2 EQ PUSH2 0x1775 JUMPI PUSH1 0x0 DUP1 REVERT JUMPDEST POP JUMP JUMPDEST PUSH1 0x0 DUP2 CALLDATALOAD SWAP1 POP PUSH2 0x1787 DUP2 PUSH2 0x1761 JUMP JUMPDEST SWAP3 SWAP2 POP POP JUMP JUMPDEST PUSH1 0x0 DUP1 REVERT JUMPDEST PUSH1 0x0 DUP1 REVERT JUMPDEST PUSH1 0x0 DUP1 REVERT JUMPDEST PUSH1 0x0 DUP1 DUP4 PUSH1 0x1F DUP5 ADD SLT PUSH2 0x17B2 JUMPI PUSH2 0x17B1 PUSH2 0x178D JUMP JUMPDEST JUMPDEST DUP3 CALLDATALOAD SWAP1 POP PUSH8 0xFFFFFFFFFFFFFFFF DUP2 GT ISZERO PUSH2 0x17CF JUMPI PUSH2 0x17CE PUSH2 0x1792 JUMP JUMPDEST JUMPDEST PUSH1 0x20 DUP4 ADD SWAP2 POP DUP4 PUSH1 0x20 DUP3 MUL DUP4 ADD GT ISZERO PUSH2 0x17EB JUMPI PUSH2 0x17EA PUSH2 0x1797 JUMP JUMPDEST JUMPDEST SWAP3 POP SWAP3 SWAP1 POP JUMP JUMPDEST PUSH1 0x0 DUP1 DUP4 PUSH1 0x1F DUP5 ADD SLT PUSH2 0x1808 JUMPI PUSH2 0x1807 PUSH2 0x178D JUMP JUMPDEST JUMPDEST DUP3 CALLDATALOAD SWAP1 POP PUSH8 0xFFFFFFFFFFFFFFFF DUP2 GT ISZERO PUSH2 0x1825 JUMPI PUSH2 0x1824 PUSH2 0x1792 JUMP JUMPDEST JUMPDEST PUSH1 0x20 DUP4 ADD SWAP2 POP DUP4 PUSH1 0x20 DUP3 MUL DUP4 ADD GT ISZERO PUSH2 0x1841 JUMPI PUSH2 0x1840 PUSH2 0x1797 JUMP JUMPDEST JUMPDEST SWAP3 POP SWAP3 SWAP1 POP JUMP JUMPDEST PUSH1 0x0 DUP1 PUSH1 0x0 DUP1 PUSH1 0x0 DUP1 PUSH1 0x0 DUP1 PUSH1 0xC0 DUP10 DUP12 SUB SLT ISZERO PUSH2 0x1868 JUMPI PUSH2 0x1867 PUSH2 0x15C0 JUMP JUMPDEST JUMPDEST PUSH1 0x0 PUSH2 0x1876 DUP12 DUP3 DUP13 ADD PUSH2 0x15E1 JUMP JUMPDEST SWAP9 POP POP PUSH1 0x20 PUSH2 0x1887 DUP12 DUP3 DUP13 ADD PUSH2 0x174C JUMP JUMPDEST SWAP8 POP POP PUSH1 0x40 PUSH2 0x1898 DUP12 DUP3 DUP13 ADD PUSH2 0x1778 JUMP JUMPDEST SWAP7 POP POP PUSH1 0x60 PUSH2 0x18A9 DUP12 DUP3 DUP13 ADD PUSH2 0x1778 JUMP JUMPDEST SWAP6 POP POP PUSH1 0x80 DUP10 ADD CALLDATALOAD PUSH8 0xFFFFFFFFFFFFFFFF DUP2 GT ISZERO PUSH2 0x18CA JUMPI PUSH2 0x18C9 PUSH2 0x15C5 JUMP JUMPDEST JUMPDEST PUSH2 0x18D6 DUP12 DUP3 DUP13 ADD PUSH2 0x179C JUMP JUMPDEST SWAP5 POP SWAP5 POP POP PUSH1 0xA0 DUP10 ADD CALLDATALOAD PUSH8 0xFFFFFFFFFFFFFFFF DUP2 GT ISZERO PUSH2 0x18F9 JUMPI PUSH2 0x18F8 PUSH2 0x15C5 JUMP JUMPDEST JUMPDEST PUSH2 0x1905 DUP12 DUP3 DUP13 ADD PUSH2 0x17F2 JUMP JUMPDEST SWAP3 POP SWAP3 POP POP SWAP3 SWAP6 SWAP9 POP SWAP3 SWAP6 SWAP9 SWAP1 SWAP4 SWAP7 POP JUMP JUMPDEST PUSH1 0x0 PUSH1 0x20 DUP3 DUP5 SUB SLT ISZERO PUSH2 0x192D JUMPI PUSH2 0x192C PUSH2 0x15C0 JUMP JUMPDEST JUMPDEST PUSH1 0x0 PUSH2 0x193B DUP5 DUP3 DUP6 ADD PUSH2 0x174C JUMP JUMPDEST SWAP2 POP POP SWAP3 SWAP2 POP POP JUMP JUMPDEST PUSH32 0x43616D706169676E20616C726561647920636C6F736564000000000000000000 PUSH1 0x0 DUP3 ADD MSTORE POP JUMP JUMPDEST PUSH1 0x0 PUSH2 0x197A PUSH1 0x17 DUP4 PUSH2 0x168E JUMP JUMPDEST SWAP2 POP PUSH2 0x1985 DUP3 PUSH2 0x1944 JUMP JUMPDEST PUSH1 0x20 DUP3 ADD SWAP1 POP SWAP2 SWAP1 POP JUMP JUMPDEST PUSH1 0x0 PUSH1 0x20 DUP3 ADD SWAP1 POP DUP2 DUP2 SUB PUSH1 0x0 DUP4 ADD MSTORE PUSH2 0x19A9 DUP2 PUSH2 0x196D JUMP JUMPDEST SWAP1 POP SWAP2 SWAP1 POP JUMP JUMPDEST PUSH32 0x43616D706169676E206E6F742066756E64656400000000000000000000000000 PUSH1 0x0 DUP3 ADD MSTORE POP JUMP JUMPDEST PUSH1 0x0 PUSH2 0x19E6 PUSH1 0x13 DUP4 PUSH2 0x168E JUMP JUMPDEST SWAP2 POP PUSH2 0x19F1 DUP3 PUSH2 0x19B0 JUMP JUMPDEST PUSH1 0x20 DUP3 ADD SWAP1 POP SWAP2 SWAP1 POP JUMP JUMPDEST PUSH1 0x0 PUSH1 0x20 DUP3 ADD SWAP1 POP DUP2 DUP2 SUB PUSH1 0x0 DUP4 ADD MSTORE PUSH2 0x1A15 DUP2 PUSH2 0x19D9 JUMP JUMPDEST SWAP1 POP SWAP2 SWAP1 POP JUMP JUMPDEST PUSH32 0x4C656E677468206D69736D617463680000000000000000000000000000000000 PUSH1 0x0 DUP3 ADD MSTORE POP JUMP JUMPDEST PUSH1 0x0 PUSH2 0x1A52 PUSH1 0xF DUP4 PUSH2 0x168E JUMP JUMPDEST SWAP2 POP PUSH2 0x1A5D DUP3 PUSH2 0x1A1C JUMP JUMPDEST PUSH1 0x20 DUP3 ADD SWAP1 POP SWAP2 SWAP1 POP JUMP JUMPDEST PUSH1 0x0 PUSH1 0x20 DUP3 ADD SWAP1 POP DUP2 DUP2 SUB PUSH1 0x0 DUP4 ADD MSTORE PUSH2 0x1A81 DUP2 PUSH2 0x1A45 JUMP JUMPDEST SWAP1 POP SWAP2 SWAP1 POP JUMP JUMPDEST PUSH32 0x4E6F7420656E6F756768207375626D697373696F6E7300000000000000000000 PUSH1 0x0 DUP3 ADD MSTORE POP JUMP JUMPDEST PUSH1 0x0 PUSH2 0x1ABE PUSH1 0x16 DUP4 PUSH2 0x168E JUMP JUMPDEST SWAP2 POP PUSH2 0x1AC9 DUP3 PUSH2 0x1A88 JUMP JUMPDEST PUSH1 0x20 DUP3 ADD SWAP1 POP SWAP2 SWAP1 POP JUMP JUMPDEST PUSH1 0x0 PUSH1 0x20 DUP3 ADD SWAP1 POP DUP2 DUP2 SUB PUSH1 0x0 DUP4 ADD MSTORE PUSH2 0x1AED DUP2 PUSH2 0x1AB1 JUMP JUMPDEST SWAP1 POP SWAP2 SWAP1 POP JUMP JUMPDEST PUSH32 0x4E487B7100000000000000000000000000000000000000000000000000000000 PUSH1 0x0 MSTORE PUSH1 0x41 PUSH1 0x4 MSTORE PUSH1 0x24 PUSH1 0x0 REVERT JUMPDEST PUSH32 0x4E487B7100000000000000000000000000000000000000000000000000000000 PUSH1 0x0 MSTORE PUSH1 0x32 PUSH1 0x4 MSTORE PUSH1 0x24 PUSH1 0x0 REVERT JUMPDEST PUSH1 0x0 DUP1 REVERT JUMPDEST PUSH1 0x0 DUP1 REVERT JUMPDEST PUSH1 0x0 DUP1 REVERT JUMPDEST PUSH1 0x0 DUP1 DUP4 CALLDATALOAD PUSH1 0x1 PUSH1 0x20 SUB DUP5 CALLDATASIZE SUB SUB DUP2 SLT PUSH2 0x1B7E JUMPI PUSH2 0x1B7D PUSH2 0x1B52 JUMP JUMPDEST JUMPDEST DUP1 DUP5 ADD SWAP3 POP DUP3 CALLDATALOAD SWAP2 POP PUSH8 0xFFFFFFFFFFFFFFFF DUP3 GT ISZERO PUSH2 0x1BA0 JUMPI PUSH2 0x1B9F PUSH2 0x1B57 JUMP JUMPDEST JUMPDEST PUSH1 0x20 DUP4 ADD SWAP3 POP PUSH1 0x1 DUP3 MUL CALLDATASIZE SUB DUP4 SGT ISZERO PUSH2 0x1BBC JUMPI PUSH2 0x1BBB PUSH2 0x1B5C JUMP JUMPDEST JUMPDEST POP SWAP3 POP SWAP3 SWAP1 POP JUMP JUMPDEST PUSH2 0x1BCD DUP2 PUSH2 0x1623 JUMP JUMPDEST DUP2 EQ PUSH2 0x1BD8 JUMPI PUSH1 0x0 DUP1 REVERT JUMPDEST POP JUMP JUMPDEST PUSH1 0x0 DUP2 MLOAD SWAP1 POP PUSH2 0x1BEA DUP2 PUSH2 0x1BC4 JUMP JUMPDEST SWAP3 SWAP2 POP POP JUMP JUMPDEST PUSH1 0x0 PUSH1 0x20 DUP3 DUP5 SUB SLT ISZERO PUSH2 0x1C06 JUMPI PUSH2 0x1C05 PUSH2 0x15C0 JUMP JUMPDEST JUMPDEST PUSH1 0x0 PUSH2 0x1C14 DUP5 DUP3 DUP6 ADD PUSH2 0x1BDB JUMP JUMPDEST SWAP2 POP POP SWAP3 SWAP2 POP POP JUMP JUMPDEST PUSH32 0x4E487B7100000000000000000000000000000000000000000000000000000000 PUSH1 0x0 MSTORE PUSH1 0x11 PUSH1 0x4 MSTORE PUSH1 0x24 PUSH1 0x0 REVERT JUMPDEST PUSH1 0x0 PUSH2 0x1C57 DUP3 PUSH2 0x14B6 JUMP JUMPDEST SWAP2 POP PUSH32 0xFFFFFFFFFFFFFFFFFFFFFFFFFFFFFFFFFFFFFFFFFFFFFFFFFFFFFFFFFFFFFFFF DUP3 SUB PUSH2 0x1C89 JUMPI PUSH2 0x1C88 PUSH2 0x1C1D JUMP JUMPDEST JUMPDEST PUSH1 0x1 DUP3 ADD SWAP1 POP SWAP2 SWAP1 POP JUMP JUMPDEST PUSH32 0x4E6F7420656E6F7567682076616C6964206F7261636C65730000000000000000 PUSH1 0x0 DUP3 ADD MSTORE POP JUMP JUMPDEST PUSH1 0x0 PUSH2 0x1CCA PUSH1 0x18 DUP4 PUSH2 0x168E JUMP JUMPDEST SWAP2 POP PUSH2 0x1CD5 DUP3 PUSH2 0x1C94 JUMP JUMPDEST PUSH1 0x20 DUP3 ADD SWAP1 POP SWAP2 SWAP1 POP JUMP JUMPDEST PUSH1 0x0 PUSH1 0x20 DUP3 ADD SWAP1 POP DUP2 DUP2 SUB PUSH1 0x0 DUP4 ADD MSTORE PUSH2 0x1CF9 DUP2 PUSH2 0x1CBD JUMP JUMPDEST SWAP1 POP SWAP2 SWAP1 POP JUMP JUMPDEST PUSH32 0x4D656469616E2062656C6F77207468726573686F6C6400000000000000000000 PUSH1 0x0 DUP3 ADD MSTORE POP JUMP JUMPDEST PUSH1 0x0 PUSH2 0x1D36 PUSH1 0x16 DUP4 PUSH2 0x168E JUMP JUMPDEST SWAP2 POP PUSH2 0x1D41 DUP3 PUSH2 0x1D00 JUMP JUMPDEST PUSH1 0x20 DUP3 ADD SWAP1 POP SWAP2 SWAP1 POP JUMP JUMPDEST PUSH1 0x0 PUSH1 0x20 DUP3 ADD SWAP1 POP DUP2 DUP2 SUB PUSH1 0x0 DUP4 ADD MSTORE PUSH2 0x1D65 DUP2 PUSH2 0x1D29 JUMP JUMPDEST SWAP1 POP SWAP2 SWAP1 POP JUMP JUMPDEST PUSH1 0x0 PUSH2 0x1D77 DUP3 PUSH2 0x14B6 JUMP JUMPDEST SWAP2 POP PUSH2 0x1D82 DUP4 PUSH2 0x14B6 JUMP JUMPDEST SWAP3 POP DUP3 DUP3 SUB SWAP1 POP DUP2 DUP2 GT ISZERO PUSH2 0x1D9A JUMPI PUSH2 0x1D99 PUSH2 0x1C1D JUMP JUMPDEST JUMPDEST SWAP3 SWAP2 POP POP JUMP JUMPDEST PUSH1 0x0 PUSH1 0x60 DUP3 ADD SWAP1 POP PUSH2 0x1DB5 PUSH1 0x0 DUP4 ADD DUP7 PUSH2 0x1596 JUMP JUMPDEST PUSH2 0x1DC2 PUSH1 0x20 DUP4 ADD DUP6 PUSH2 0x14C0 JUMP JUMPDEST PUSH2 0x1DCF PUSH1 0x40 DUP4 ADD DUP5 PUSH2 0x14C0 JUMP JUMPDEST SWAP5 SWAP4 POP POP POP POP JUMP JUMPDEST PUSH1 0x0 DUP2 SWAP1 POP SWAP3 SWAP2 POP POP JUMP JUMPDEST POP JUMP JUMPDEST PUSH1 0x0 PUSH2 0x1DF2 PUSH1 0x0 DUP4 PUSH2 0x1DD7 JUMP JUMPDEST SWAP2 POP PUSH2 0x1DFD DUP3 PUSH2 0x1DE2 JUMP JUMPDEST PUSH1 0x0 DUP3 ADD SWAP1 POP SWAP2 SWAP1 POP JUMP JUMPDEST PUSH1 0x0 PUSH2 0x1E13 DUP3 PUSH2 0x1DE5 JUMP JUMPDEST SWAP2 POP DUP2 SWAP1 POP SWAP2 SWAP1 POP JUMP JUMPDEST PUSH32 0x5472616E73666572206661696C65640000000000000000000000000000000000 PUSH1 0x0 DUP3 ADD MSTORE POP JUMP JUMPDEST PUSH1 0x0 PUSH2 0x1E53 PUSH1 0xF DUP4 PUSH2 0x168E JUMP JUMPDEST SWAP2 POP PUSH2 0x1E5E DUP3 PUSH2 0x1E1D JUMP JUMPDEST PUSH1 0x20 DUP3 ADD SWAP1 POP SWAP2 SWAP1 POP JUMP JUMPDEST PUSH1 0x0 PUSH1 0x20 DUP3 ADD SWAP1 POP DUP2 DUP2 SUB PUSH1 0x0 DUP4 ADD MSTORE PUSH2 0x1E82 DUP2 PUSH2 0x1E46 JUMP JUMPDEST SWAP1 POP SWAP2 SWAP1 POP JUMP JUMPDEST PUSH1 0x0 PUSH1 0x40 DUP3 ADD SWAP1 POP PUSH2 0x1E9E PUSH1 0x0 DUP4 ADD DUP6 PUSH2 0x14C0 JUMP JUMPDEST PUSH2 0x1EAB PUSH1 0x20 DUP4 ADD DUP5 PUSH2 0x14C0 JUMP JUMPDEST SWAP4 SWAP3 POP POP POP JUMP JUMPDEST PUSH32 0x426F756E7479206D757374206265203E20300000000000000000000000000000 PUSH1 0x0 DUP3 ADD MSTORE POP JUMP JUMPDEST PUSH1 0x0 PUSH2 0x1EE8 PUSH1 0x12 DUP4 PUSH2 0x168E JUMP JUMPDEST SWAP2 POP PUSH2 0x1EF3 DUP3 PUSH2 0x1EB2 JUMP JUMPDEST PUSH1 0x20 DUP3 ADD SWAP1 POP SWAP2 SWAP1 POP JUMP JUMPDEST PUSH1 0x0 PUSH1 0x20 DUP3 ADD SWAP1 POP DUP2 DUP2 SUB PUSH1 0x0 DUP4 ADD MSTORE PUSH2 0x1F17 DUP2 PUSH2 0x1EDB JUMP JUMPDEST SWAP1 POP SWAP2 SWAP1 POP JUMP JUMPDEST PUSH32 0x43616D706169676E20616C726561647920657869737473000000000000000000 PUSH1 0x0 DUP3 ADD MSTORE POP JUMP JUMPDEST PUSH1 0x0 PUSH2 0x1F54 PUSH1 0x17 DUP4 PUSH2 0x168E JUMP JUMPDEST SWAP2 POP PUSH2 0x1F5F DUP3 PUSH2 0x1F1E JUMP JUMPDEST PUSH1 0x20 DUP3 ADD SWAP1 POP SWAP2 SWAP1 POP JUMP JUMPDEST PUSH1 0x0 PUSH1 0x20 DUP3 ADD SWAP1 POP DUP2 DUP2 SUB PUSH1 0x0 DUP4 ADD MSTORE PUSH2 0x1F83 DUP2 PUSH2 0x1F47 JUMP JUMPDEST SWAP1 POP SWAP2 SWAP1 POP JUMP JUMPDEST PUSH1 0x0 PUSH1 0x60 DUP3 ADD SWAP1 POP PUSH2 0x1F9F PUSH1 0x0 DUP4 ADD DUP7 PUSH2 0x148C JUMP JUMPDEST PUSH2 0x1FAC PUSH1 0x20 DUP4 ADD DUP6 PUSH2 0x148C JUMP JUMPDEST PUSH2 0x1FB9 PUSH1 0x40 DUP4 ADD DUP5 PUSH2 0x14C0 JUMP JUMPDEST SWAP5 SWAP4 POP POP POP POP JUMP JUMPDEST PUSH1 0x0 DUP2 SWAP1 POP SWAP3 SWAP2 POP POP JUMP JUMPDEST PUSH32 0x1901000000000000000000000000000000000000000000000000000000000000 PUSH1 0x0 DUP3 ADD MSTORE POP JUMP JUMPDEST PUSH1 0x0 PUSH2 0x2002 PUSH1 0x2 DUP4 PUSH2 0x1FC1 JUMP JUMPDEST SWAP2 POP PUSH2 0x200D DUP3 PUSH2 0x1FCC JUMP JUMPDEST PUSH1 0x2 DUP3 ADD SWAP1 POP SWAP2 SWAP1 POP JUMP JUMPDEST PUSH1 0x0 DUP2 SWAP1 POP SWAP2 SWAP1 POP JUMP JUMPDEST PUSH2 0x2033 PUSH2 0x202E DUP3 PUSH2 0x1482 JUMP JUMPDEST PUSH2 0x2018 JUMP JUMPDEST DUP3 MSTORE POP POP JUMP JUMPDEST PUSH1 0x0 PUSH2 0x2044 DUP3 PUSH2 0x1FF5 JUMP JUMPDEST SWAP2 POP PUSH2 0x2050 DUP3 DUP6 PUSH2 0x2022 JUMP JUMPDEST PUSH1 0x20 DUP3 ADD SWAP2 POP PUSH2 0x2060 DUP3 DUP5 PUSH2 0x2022 JUMP JUMPDEST PUSH1 0x20 DUP3 ADD SWAP2 POP DUP2 SWAP1 POP SWAP4 SWAP3 POP POP POP JUMP JUMPDEST PUSH1 0x0 PUSH1 0xFF DUP3 AND SWAP1 POP SWAP2 SWAP1 POP JUMP JUMPDEST PUSH2 0x2086 DUP2 PUSH2 0x2070 JUMP JUMPDEST DUP3 MSTORE POP POP JUMP JUMPDEST PUSH1 0x0 PUSH1 0x80 DUP3 ADD SWAP1 POP PUSH2 0x20A1 PUSH1 0x0 DUP4 ADD DUP8 PUSH2 0x148C JUMP JUMPDEST PUSH2 0x20AE PUSH1 0x20 DUP4 ADD DUP7 PUSH2 0x207D JUMP JUMPDEST PUSH2 0x20BB PUSH1 0x40 DUP4 ADD DUP6 PUSH2 0x148C JUMP JUMPDEST PUSH2 0x20C8 PUSH1 0x60 DUP4 ADD DUP5 PUSH2 0x148C JUMP JUMPDEST SWAP6 SWAP5 POP POP POP POP POP JUMP JUMPDEST PUSH1 0x0 PUSH2 0x20DC DUP3 PUSH2 0x14B6 JUMP JUMPDEST SWAP2 POP PUSH2 0x20E7 DUP4 PUSH2 0x14B6 JUMP JUMPDEST SWAP3 POP DUP3 DUP3 ADD SWAP1 POP DUP1 DUP3 GT ISZERO PUSH2 0x20FF JUMPI PUSH2 0x20FE PUSH2 0x1C1D JUMP JUMPDEST JUMPDEST SWAP3 SWAP2 POP POP JUMP JUMPDEST PUSH32 0x4E487B7100000000000000000000000000000000000000000000000000000000 PUSH1 0x0 MSTORE PUSH1 0x12 PUSH1 0x4 MSTORE PUSH1 0x24 PUSH1 0x0 REVERT JUMPDEST PUSH1 0x0 PUSH2 0x213F DUP3 PUSH2 0x14B6 JUMP JUMPDEST SWAP2 POP PUSH2 0x214A DUP4 PUSH2 0x14B6 JUMP JUMPDEST SWAP3 POP DUP3 PUSH2 0x215A JUMPI PUSH2 0x2159 PUSH2 0x2105 JUMP JUMPDEST JUMPDEST DUP3 DUP3 DIV SWAP1 POP SWAP3 SWAP2 POP POP JUMP JUMPDEST PUSH32 0x496E76616C6964207369676E6174757265206C656E6774680000000000000000 PUSH1 0x0 DUP3 ADD MSTORE POP JUMP JUMPDEST PUSH1 0x0 PUSH2 0x219B PUSH1 0x18 DUP4 PUSH2 0x168E JUMP JUMPDEST SWAP2 POP PUSH2 0x21A6 DUP3 PUSH2 0x2165 JUMP JUMPDEST PUSH1 0x20 DUP3 ADD SWAP1 POP SWAP2 SWAP1 POP JUMP JUMPDEST PUSH1 0x0 PUSH1 0x20 DUP3 ADD SWAP1 POP DUP2 DUP2 SUB PUSH1 0x0 DUP4 ADD MSTORE PUSH2 0x21CA DUP2 PUSH2 0x218E JUMP JUMPDEST SWAP1 POP SWAP2 SWAP1 POP JUMP JUMPDEST PUSH1 0x0 PUSH2 0x21DC DUP3 PUSH2 0x2070 JUMP JUMPDEST SWAP2 POP PUSH2 0x21E7 DUP4 PUSH2 0x2070 JUMP JUMPDEST SWAP3 POP DUP3 DUP3 ADD SWAP1 POP PUSH1 0xFF DUP2 GT ISZERO PUSH2 0x2200 JUMPI PUSH2 0x21FF PUSH2 0x1C1D JUMP JUMPDEST JUMPDEST SWAP3 SWAP2 POP POP JUMP INVALID LOG2 PUSH5 0x6970667358 0x22 SLT KECCAK256 0xCB 0xD7 GASLIMIT 0xA5 0xF9 DUP10 PUSH15 0x6181734DE2EF1579414DED2CEC3EB9 0xC0 0xD9 0xCB SLOAD NUMBER 0xA6 PUSH9 0xF1FA7F64736F6C6343 STOP ADDMOD EQ STOP CALLER "},"methodIdentifiers":{"DOMAIN_SEPARATOR()":"3644e515","DOMAIN_TYPEHASH()":"20606b70","MAX_DEVIATION()":"b05f233a","NAME()":"a3f4df7e","PASS_THRESHOLD()":"33f78d59","REQUIRED_ORACLES()":"5201ae29","SCORE_TYPEHASH()":"944303a8","VERSION()":"ffa1ad74","campaigns(bytes32)":"9eca2f1e","closeCampaign(bytes32,address,uint256,uint256,uint256[],bytes[])":"b6ab805f","fundCampaign(bytes32)":"bc9d87f3","owner()":"8da5cb5b","registry()":"7b103999","renounceOwnership()":"715018a6","transferOwnership(address)":"f2fde38b"}}}}}