{
  "_format": "hh-sol-artifact-1",
  "contractName": "VenomRegistry",
  "sourceName": "contracts/VenomRegistry.sol",
  "abi": [
    {
      "inputs": [],
      "stateMutability": "nonpayable",
      "type": "constructor"
    },
    {
      "inputs": [
        {
          "internalType": "address",
          "name": "owner",
          "type": "address"
        }
      ],
      "name": "OwnableInvalidOwner",
      "type": "error"
    },
    {
      "inputs": [
        {
          "internalType": "address",
          "name": "account",
          "type": "address"
        }
      ],
      "name": "OwnableUnauthorizedAccount",
      "type": "error"
    },
    {
      "anonymous": false,
      "inputs": [
        {
          "indexed": true,
          "internalType": "address",
          "name": "operator",
          "type": "address"
        },
        {
          "indexed": false,
          "internalType": "uint256",
          "name": "stake",
          "type": "uint256"
        },
        {
          "indexed": false,
          "internalType": "string",
          "name": "multiaddr",
          "type": "string"
        }
      ],
      "name": "OracleRegistered",
      "type": "event"
    },
    {
      "anonymous": false,
      "inputs": [
        {
          "indexed": true,
          "internalType": "address",
          "name": "operator",
          "type": "address"
        },
        {
          "indexed": false,
          "internalType": "uint256",
          "name": "amount",
          "type": "uint256"
        },
        {
          "indexed": false,
          "internalType": "string",
          "name": "reason",
          "type": "string"
        }
      ],
      "name": "OracleSlashed",
      "type": "event"
    },
    {
      "anonymous": false,
      "inputs": [
        {
          "indexed": true,
          "internalType": "address",
          "name": "previousOwner",
          "type": "address"
        },
        {
          "indexed": true,
          "internalType": "address",
          "name": "newOwner",
          "type": "address"
        }
      ],
      "name": "OwnershipTransferred",
      "type": "event"
    },
    {
      "anonymous": false,
      "inputs": [
        {
          "indexed": true,
          "internalType": "address",
          "name": "pilotEscrow",
          "type": "address"
        }
      ],
      "name": "PilotEscrowSet",
      "type": "event"
    },
    {
      "inputs": [],
      "name": "MAX_DEVIATION",
      "outputs": [
        {
          "internalType": "uint256",
          "name": "",
          "type": "uint256"
        }
      ],
      "stateMutability": "view",
      "type": "function"
    },
    {
      "inputs": [],
      "name": "MIN_STAKE",
      "outputs": [
        {
          "internalType": "uint256",
          "name": "",
          "type": "uint256"
        }
      ],
      "stateMutability": "view",
      "type": "function"
    },
    {
      "inputs": [],
      "name": "SLASH_PERCENT",
      "outputs": [
        {
          "internalType": "uint256",
          "name": "",
          "type": "uint256"
        }
      ],
      "stateMutability": "view",
      "type": "function"
    },
    {
      "inputs": [],
      "name": "getActiveOracles",
      "outputs": [
        {
          "internalType": "address[]",
          "name": "operators",
          "type": "address[]"
        },
        {
          "internalType": "string[]",
          "name": "multiaddrs",
          "type": "string[]"
        }
      ],
      "stateMutability": "view",
      "type": "function"
    },
    {
      "inputs": [
        {
          "internalType": "address",
          "name": "operator",
          "type": "address"
        }
      ],
      "name": "isActiveOracle",
      "outputs": [
        {
          "internalType": "bool",
          "name": "",
          "type": "bool"
        }
      ],
      "stateMutability": "view",
      "type": "function"
    },
    {
      "inputs": [
        {
          "internalType": "uint256",
          "name": "",
          "type": "uint256"
        }
      ],
      "name": "oracleList",
      "outputs": [
        {
          "internalType": "address",
          "name": "",
          "type": "address"
        }
      ],
      "stateMutability": "view",
      "type": "function"
    },
    {
      "inputs": [
        {
          "internalType": "address",
          "name": "",
          "type": "address"
        }
      ],
      "name": "oracles",
      "outputs": [
        {
          "internalType": "address",
          "name": "operator",
          "type": "address"
        },
        {
          "internalType": "uint256",
          "name": "stake",
          "type": "uint256"
        },
        {
          "internalType": "uint256",
          "name": "scoreCount",
          "type": "uint256"
        },
        {
          "internalType": "uint256",
          "name": "lastActive",
          "type": "uint256"
        },
        {
          "internalType": "bool",
          "name": "active",
          "type": "bool"
        },
        {
          "internalType": "string",
          "name": "multiaddr",
          "type": "string"
        }
      ],
      "stateMutability": "view",
      "type": "function"
    },
    {
      "inputs": [],
      "name": "owner",
      "outputs": [
        {
          "internalType": "address",
          "name": "",
          "type": "address"
        }
      ],
      "stateMutability": "view",
      "type": "function"
    },
    {
      "inputs": [],
      "name": "pilotEscrow",
      "outputs": [
        {
          "internalType": "address",
          "name": "",
          "type": "address"
        }
      ],
      "stateMutability": "view",
      "type": "function"
    },
    {
      "inputs": [
        {
          "internalType": "string",
          "name": "_multiaddr",
          "type": "string"
        }
      ],
      "name": "registerOracle",
      "outputs": [],
      "stateMutability": "payable",
      "type": "function"
    },
    {
      "inputs": [],
      "name": "renounceOwnership",
      "outputs": [],
      "stateMutability": "nonpayable",
      "type": "function"
    },
    {
      "inputs": [
        {
          "internalType": "address",
          "name": "operator",
          "type": "address"
        },
        {
          "internalType": "uint256",
          "name": "submittedScore",
          "type": "uint256"
        },
        {
          "internalType": "uint256",
          "name": "medianScore",
          "type": "uint256"
        }
      ],
      "name": "reportDeviation",
      "outputs": [],
      "stateMutability": "nonpayable",
      "type": "function"
    },
    {
      "inputs": [
        {
          "internalType": "address",
          "name": "_pilotEscrow",
          "type": "address"
        }
      ],
      "name": "setPilotEscrow",
      "outputs": [],
      "stateMutability": "nonpayable",
      "type": "function"
    },
    {
      "inputs": [
        {
          "internalType": "address",
          "name": "newOwner",
          "type": "address"
        }
      ],
      "name": "transferOwnership",
      "outputs": [],
      "stateMutability": "nonpayable",
      "type": "function"
    }
  ],
  "bytecode": "0x60806040523480156200001157600080fd5b5033600073ffffffffffffffffffffffffffffffffffffffff168173ffffffffffffffffffffffffffffffffffffffff1603620000885760006040517f1e4fbdf70000000000000000000000000000000000000000000000000000000081526004016200007f9190620001a9565b60405180910390fd5b6200009981620000a060201b60201c565b50620001c6565b60008060009054906101000a900473ffffffffffffffffffffffffffffffffffffffff169050816000806101000a81548173ffffffffffffffffffffffffffffffffffffffff021916908373ffffffffffffffffffffffffffffffffffffffff1602179055508173ffffffffffffffffffffffffffffffffffffffff168173ffffffffffffffffffffffffffffffffffffffff167f8be0079c531659141344cd1fd0a4f28419497f9722a3daafe3b4186f6b6457e060405160405180910390a35050565b600073ffffffffffffffffffffffffffffffffffffffff82169050919050565b6000620001918262000164565b9050919050565b620001a38162000184565b82525050565b6000602082019050620001c0600083018462000198565b92915050565b61203f80620001d66000396000f3fe6080604052600436106100dd5760003560e01c8063920ee5941161007f578063b05f233a11610059578063b05f233a146102a5578063cb1c2b5c146102d0578063f2fde38b146102fb578063f6e8913d14610324576100dd565b8063920ee5941461020f578063998d62381461023a578063addd509914610263576100dd565b80633ae9b8f1116100bb5780633ae9b8f1146101645780636ccaa946146101a1578063715018a6146101cd5780638da5cb5b146101e4576100dd565b806318dbd273146100e2578063239aad0d1461010b578063321c512b14610148575b600080fd5b3480156100ee57600080fd5b50610109600480360381019061010491906112c2565b61034f565b005b34801561011757600080fd5b50610132600480360381019061012d9190611315565b610609565b60405161013f9190611351565b60405180910390f35b610162600480360381019061015d91906113d1565b610648565b005b34801561017057600080fd5b5061018b6004803603810190610186919061141e565b61098a565b6040516101989190611466565b60405180910390f35b3480156101ad57600080fd5b506101b66109e3565b6040516101c4929190611691565b60405180910390f35b3480156101d957600080fd5b506101e2610d52565b005b3480156101f057600080fd5b506101f9610d66565b6040516102069190611351565b60405180910390f35b34801561021b57600080fd5b50610224610d8f565b6040516102319190611351565b60405180910390f35b34801561024657600080fd5b50610261600480360381019061025c919061141e565b610db5565b005b34801561026f57600080fd5b5061028a6004803603810190610285919061141e565b610f44565b60405161029c96959493929190611721565b60405180910390f35b3480156102b157600080fd5b506102ba611035565b6040516102c79190611789565b60405180910390f35b3480156102dc57600080fd5b506102e561103a565b6040516102f29190611789565b60405180910390f35b34801561030757600080fd5b50610322600480360381019061031d919061141e565b611046565b005b34801561033057600080fd5b506103396110cc565b6040516103469190611789565b60405180910390f35b600360009054906101000a900473ffffffffffffffffffffffffffffffffffffffff1673ffffffffffffffffffffffffffffffffffffffff163373ffffffffffffffffffffffffffffffffffffffff16146103df576040517f08c379a00000000000000000000000000000000000000000000000000000000081526004016103d6906117f0565b60405180910390fd5b600160008473ffffffffffffffffffffffffffffffffffffffff1673ffffffffffffffffffffffffffffffffffffffff16815260200190815260200160002060040160009054906101000a900460ff1661046e576040517f08c379a00000000000000000000000000000000000000000000000000000000081526004016104659061185c565b60405180910390fd5b600081831161048857828261048391906118ab565b610495565b818361049491906118ab565b5b9050601981111561060357600060646019600160008873ffffffffffffffffffffffffffffffffffffffff1673ffffffffffffffffffffffffffffffffffffffff168152602001908152602001600020600101546104f391906118df565b6104fd9190611950565b905080600160008773ffffffffffffffffffffffffffffffffffffffff1673ffffffffffffffffffffffffffffffffffffffff168152602001908152602001600020600101600082825461055191906118ab565b925050819055506000600160008773ffffffffffffffffffffffffffffffffffffffff1673ffffffffffffffffffffffffffffffffffffffff16815260200190815260200160002060040160006101000a81548160ff0219169083151502179055508473ffffffffffffffffffffffffffffffffffffffff167fda4247d88dd9a845536e72b0c02526ceb5db850882b8cc9fd14673b70eaca30d826040516105f991906119cd565b60405180910390a2505b50505050565b6002818154811061061957600080fd5b906000526020600020016000915054906101000a900473ffffffffffffffffffffffffffffffffffffffff1681565b670de0b6b3a7640000341015610693576040517f08c379a000000000000000000000000000000000000000000000000000000000815260040161068a90611a47565b60405180910390fd5b600160003373ffffffffffffffffffffffffffffffffffffffff1673ffffffffffffffffffffffffffffffffffffffff16815260200190815260200160002060040160009054906101000a900460ff1615610723576040517f08c379a000000000000000000000000000000000000000000000000000000000815260040161071a90611ab3565b60405180910390fd5b60008282905011610769576040517f08c379a000000000000000000000000000000000000000000000000000000000815260040161076090611b1f565b60405180910390fd5b6040518060c001604052803373ffffffffffffffffffffffffffffffffffffffff1681526020013481526020016000815260200142815260200160011515815260200183838080601f016020809104026020016040519081016040528093929190818152602001838380828437600081840152601f19601f82011690508083019250505050505050815250600160003373ffffffffffffffffffffffffffffffffffffffff1673ffffffffffffffffffffffffffffffffffffffff16815260200190815260200160002060008201518160000160006101000a81548173ffffffffffffffffffffffffffffffffffffffff021916908373ffffffffffffffffffffffffffffffffffffffff16021790555060208201518160010155604082015181600201556060820151816003015560808201518160040160006101000a81548160ff02191690831515021790555060a08201518160050190816108cd9190611d7a565b509050506002339080600181540180825580915050600190039060005260206000200160009091909190916101000a81548173ffffffffffffffffffffffffffffffffffffffff021916908373ffffffffffffffffffffffffffffffffffffffff1602179055503373ffffffffffffffffffffffffffffffffffffffff167f208b7b377111d47497fe04896f412ac49c5bdfd48c73ed9debafabe0b066116834848460405161097e93929190611e88565b60405180910390a25050565b6000600160008373ffffffffffffffffffffffffffffffffffffffff1673ffffffffffffffffffffffffffffffffffffffff16815260200190815260200160002060040160009054906101000a900460ff169050919050565b6060806000805b600280549050811015610aac576001600060028381548110610a0f57610a0e611eba565b5b9060005260206000200160009054906101000a900473ffffffffffffffffffffffffffffffffffffffff1673ffffffffffffffffffffffffffffffffffffffff1673ffffffffffffffffffffffffffffffffffffffff16815260200190815260200160002060040160009054906101000a900460ff1615610a99578180610a9590611ee9565b9250505b8080610aa490611ee9565b9150506109ea565b508067ffffffffffffffff811115610ac757610ac6611b3f565b5b604051908082528060200260200182016040528015610af55781602001602082028036833780820191505090505b5092508067ffffffffffffffff811115610b1257610b11611b3f565b5b604051908082528060200260200182016040528015610b4557816020015b6060815260200190600190039081610b305790505b5091506000805b600280549050811015610d4b57600060028281548110610b6f57610b6e611eba565b5b9060005260206000200160009054906101000a900473ffffffffffffffffffffffffffffffffffffffff169050600160008273ffffffffffffffffffffffffffffffffffffffff1673ffffffffffffffffffffffffffffffffffffffff16815260200190815260200160002060040160009054906101000a900460ff1615610d375780868481518110610c0557610c04611eba565b5b602002602001019073ffffffffffffffffffffffffffffffffffffffff16908173ffffffffffffffffffffffffffffffffffffffff1681525050600160008273ffffffffffffffffffffffffffffffffffffffff1673ffffffffffffffffffffffffffffffffffffffff1681526020019081526020016000206005018054610c8c90611b9d565b80601f0160208091040260200160405190810160405280929190818152602001828054610cb890611b9d565b8015610d055780601f10610cda57610100808354040283529160200191610d05565b820191906000526020600020905b815481529060010190602001808311610ce857829003601f168201915b5050505050858481518110610d1d57610d1c611eba565b5b60200260200101819052508280610d3390611ee9565b9350505b508080610d4390611ee9565b915050610b4c565b5050509091565b610d5a6110d1565b610d646000611158565b565b60008060009054906101000a900473ffffffffffffffffffffffffffffffffffffffff16905090565b600360009054906101000a900473ffffffffffffffffffffffffffffffffffffffff1681565b610dbd6110d1565b600073ffffffffffffffffffffffffffffffffffffffff16600360009054906101000a900473ffffffffffffffffffffffffffffffffffffffff1673ffffffffffffffffffffffffffffffffffffffff1614610e4e576040517f08c379a0000000000000000000000000000000000000000000000000000000008152600401610e4590611f7d565b60405180910390fd5b600073ffffffffffffffffffffffffffffffffffffffff168173ffffffffffffffffffffffffffffffffffffffff1603610ebd576040517f08c379a0000000000000000000000000000000000000000000000000000000008152600401610eb490611fe9565b60405180910390fd5b80600360006101000a81548173ffffffffffffffffffffffffffffffffffffffff021916908373ffffffffffffffffffffffffffffffffffffffff1602179055508073ffffffffffffffffffffffffffffffffffffffff167f29279890f1492ae275f30c5230eacdf09396c8ab51d9cb258b4ec1ce6151a47b60405160405180910390a250565b60016020528060005260406000206000915090508060000160009054906101000a900473ffffffffffffffffffffffffffffffffffffffff16908060010154908060020154908060030154908060040160009054906101000a900460ff1690806005018054610fb290611b9d565b80601f0160208091040260200160405190810160405280929190818152602001828054610fde90611b9d565b801561102b5780601f106110005761010080835404028352916020019161102b565b820191906000526020600020905b81548152906001019060200180831161100e57829003601f168201915b5050505050905086565b601981565b670de0b6b3a764000081565b61104e6110d1565b600073ffffffffffffffffffffffffffffffffffffffff168173ffffffffffffffffffffffffffffffffffffffff16036110c05760006040517f1e4fbdf70000000000000000000000000000000000000000000000000000000081526004016110b79190611351565b60405180910390fd5b6110c981611158565b50565b601981565b6110d961121c565b73ffffffffffffffffffffffffffffffffffffffff166110f7610d66565b73ffffffffffffffffffffffffffffffffffffffff16146111565761111a61121c565b6040517f118cdaa700000000000000000000000000000000000000000000000000000000815260040161114d9190611351565b60405180910390fd5b565b60008060009054906101000a900473ffffffffffffffffffffffffffffffffffffffff169050816000806101000a81548173ffffffffffffffffffffffffffffffffffffffff021916908373ffffffffffffffffffffffffffffffffffffffff1602179055508173ffffffffffffffffffffffffffffffffffffffff168173ffffffffffffffffffffffffffffffffffffffff167f8be0079c531659141344cd1fd0a4f28419497f9722a3daafe3b4186f6b6457e060405160405180910390a35050565b600033905090565b600080fd5b600080fd5b600073ffffffffffffffffffffffffffffffffffffffff82169050919050565b60006112598261122e565b9050919050565b6112698161124e565b811461127457600080fd5b50565b60008135905061128681611260565b92915050565b6000819050919050565b61129f8161128c565b81146112aa57600080fd5b50565b6000813590506112bc81611296565b92915050565b6000806000606084860312156112db576112da611224565b5b60006112e986828701611277565b93505060206112fa868287016112ad565b925050604061130b868287016112ad565b9150509250925092565b60006020828403121561132b5761132a611224565b5b6000611339848285016112ad565b91505092915050565b61134b8161124e565b82525050565b60006020820190506113666000830184611342565b92915050565b600080fd5b600080fd5b600080fd5b60008083601f8401126113915761139061136c565b5b8235905067ffffffffffffffff8111156113ae576113ad611371565b5b6020830191508360018202830111156113ca576113c9611376565b5b9250929050565b600080602083850312156113e8576113e7611224565b5b600083013567ffffffffffffffff81111561140657611405611229565b5b6114128582860161137b565b92509250509250929050565b60006020828403121561143457611433611224565b5b600061144284828501611277565b91505092915050565b60008115159050919050565b6114608161144b565b82525050565b600060208201905061147b6000830184611457565b92915050565b600081519050919050565b600082825260208201905092915050565b6000819050602082019050919050565b6114b68161124e565b82525050565b60006114c883836114ad565b60208301905092915050565b6000602082019050919050565b60006114ec82611481565b6114f6818561148c565b93506115018361149d565b8060005b8381101561153257815161151988826114bc565b9750611524836114d4565b925050600181019050611505565b5085935050505092915050565b600081519050919050565b600082825260208201905092915050565b6000819050602082019050919050565b600081519050919050565b600082825260208201905092915050565b60005b838110156115a557808201518184015260208101905061158a565b60008484015250505050565b6000601f19601f8301169050919050565b60006115cd8261156b565b6115d78185611576565b93506115e7818560208601611587565b6115f0816115b1565b840191505092915050565b600061160783836115c2565b905092915050565b6000602082019050919050565b60006116278261153f565b611631818561154a565b9350836020820285016116438561155b565b8060005b8581101561167f578484038952815161166085826115fb565b945061166b8361160f565b925060208a01995050600181019050611647565b50829750879550505050505092915050565b600060408201905081810360008301526116ab81856114e1565b905081810360208301526116bf818461161c565b90509392505050565b6116d18161128c565b82525050565b600082825260208201905092915050565b60006116f38261156b565b6116fd81856116d7565b935061170d818560208601611587565b611716816115b1565b840191505092915050565b600060c0820190506117366000830189611342565b61174360208301886116c8565b61175060408301876116c8565b61175d60608301866116c8565b61176a6080830185611457565b81810360a083015261177c81846116e8565b9050979650505050505050565b600060208201905061179e60008301846116c8565b92915050565b7f4f6e6c792050696c6f74457363726f7700000000000000000000000000000000600082015250565b60006117da6010836116d7565b91506117e5826117a4565b602082019050919050565b60006020820190508181036000830152611809816117cd565b9050919050565b7f4e6f742061637469766500000000000000000000000000000000000000000000600082015250565b6000611846600a836116d7565b915061185182611810565b602082019050919050565b6000602082019050818103600083015261187581611839565b9050919050565b7f4e487b7100000000000000000000000000000000000000000000000000000000600052601160045260246000fd5b60006118b68261128c565b91506118c18361128c565b92508282039050818111156118d9576118d861187c565b5b92915050565b60006118ea8261128c565b91506118f58361128c565b92508282026119038161128c565b9150828204841483151761191a5761191961187c565b5b5092915050565b7f4e487b7100000000000000000000000000000000000000000000000000000000600052601260045260246000fd5b600061195b8261128c565b91506119668361128c565b92508261197657611975611921565b5b828204905092915050565b7f53636f726520646576696174696f6e20746f6f20686967680000000000000000600082015250565b60006119b76018836116d7565b91506119c282611981565b602082019050919050565b60006040820190506119e260008301846116c8565b81810360208301526119f3816119aa565b905092915050565b7f496e73756666696369656e74207374616b650000000000000000000000000000600082015250565b6000611a316012836116d7565b9150611a3c826119fb565b602082019050919050565b60006020820190508181036000830152611a6081611a24565b9050919050565b7f416c726561647920726567697374657265640000000000000000000000000000600082015250565b6000611a9d6012836116d7565b9150611aa882611a67565b602082019050919050565b60006020820190508181036000830152611acc81611a90565b9050919050565b7f4d756c7469616464722072657175697265640000000000000000000000000000600082015250565b6000611b096012836116d7565b9150611b1482611ad3565b602082019050919050565b60006020820190508181036000830152611b3881611afc565b9050919050565b7f4e487b7100000000000000000000000000000000000000000000000000000000600052604160045260246000fd5b7f4e487b7100000000000000000000000000000000000000000000000000000000600052602260045260246000fd5b60006002820490506001821680611bb557607f821691505b602082108103611bc857611bc7611b6e565b5b50919050565b60008190508160005260206000209050919050565b60006020601f8301049050919050565b600082821b905092915050565b600060088302611c307fffffffffffffffffffffffffffffffffffffffffffffffffffffffffffffffff82611bf3565b611c3a8683611bf3565b95508019841693508086168417925050509392505050565b6000819050919050565b6000611c77611c72611c6d8461128c565b611c52565b61128c565b9050919050565b6000819050919050565b611c9183611c5c565b611ca5611c9d82611c7e565b848454611c00565b825550505050565b600090565b611cba611cad565b611cc5818484611c88565b505050565b5b81811015611ce957611cde600082611cb2565b600181019050611ccb565b5050565b601f821115611d2e57611cff81611bce565b611d0884611be3565b81016020851015611d17578190505b611d2b611d2385611be3565b830182611cca565b50505b505050565b600082821c905092915050565b6000611d5160001984600802611d33565b1980831691505092915050565b6000611d6a8383611d40565b9150826002028217905092915050565b611d838261156b565b67ffffffffffffffff811115611d9c57611d9b611b3f565b5b611da68254611b9d565b611db1828285611ced565b600060209050601f831160018114611de45760008415611dd2578287015190505b611ddc8582611d5e565b865550611e44565b601f198416611df286611bce565b60005b82811015611e1a57848901518255600182019150602085019450602081019050611df5565b86831015611e375784890151611e33601f891682611d40565b8355505b6001600288020188555050505b505050505050565b82818337600083830152505050565b6000611e6783856116d7565b9350611e74838584611e4c565b611e7d836115b1565b840190509392505050565b6000604082019050611e9d60008301866116c8565b8181036020830152611eb0818486611e5b565b9050949350505050565b7f4e487b7100000000000000000000000000000000000000000000000000000000600052603260045260246000fd5b6000611ef48261128c565b91507fffffffffffffffffffffffffffffffffffffffffffffffffffffffffffffffff8203611f2657611f2561187c565b5b600182019050919050565b7f416c726561647920736574000000000000000000000000000000000000000000600082015250565b6000611f67600b836116d7565b9150611f7282611f31565b602082019050919050565b60006020820190508181036000830152611f9681611f5a565b9050919050565b7f5a65726f20616464726573730000000000000000000000000000000000000000600082015250565b6000611fd3600c836116d7565b9150611fde82611f9d565b602082019050919050565b6000602082019050818103600083015261200281611fc6565b905091905056fea2646970667358221220e00aed5af9f46ba0dc2843cfe553f737c22f9bcf8571377c6538b397b6912c6464736f6c63430008140033",
  "linkReferences": {},
  "deployedLinkReferences": {}
}