{
  "_format": "hh-sol-artifact-1",
  "contractName": "VenomRegistry",
  "sourceName": "contracts/VenomRegistry.sol",
  "abi": [
    {
      "inputs": [],
      "stateMutability": "nonpayable",
      "type": "constructor"
    },
    {
      "inputs": [
        {
          "internalType": "address",
          "name": "owner",
          "type": "address"
        }
      ],
      "name": "OwnableInvalidOwner",
      "type": "error"
    },
    {
      "inputs": [
        {
          "internalType": "address",
          "name": "account",
          "type": "address"
        }
      ],
      "name": "OwnableUnauthorizedAccount",
      "type": "error"
    },
    {
      "anonymous": false,
      "inputs": [
        {
          "indexed": true,
          "internalType": "address",
          "name": "operator",
          "type": "address"
        },
        {
          "indexed": false,
          "internalType": "uint256",
          "name": "stake",
          "type": "uint256"
        },
        {
          "indexed": false,
          "internalType": "string",
          "name": "multiaddr",
          "type": "string"
        }
      ],
      "name": "OracleRegistered",
      "type": "event"
    },
    {
      "anonymous": false,
      "inputs": [
        {
          "indexed": true,
          "internalType": "address",
          "name": "operator",
          "type": "address"
        },
        {
          "indexed": false,
          "internalType": "uint256",
          "name": "amount",
          "type": "uint256"
        },
        {
          "indexed": false,
          "internalType": "string",
          "name": "reason",
          "type": "string"
        }
      ],
      "name": "OracleSlashed",
      "type": "event"
    },
    {
      "anonymous": false,
      "inputs": [
        {
          "indexed": true,
          "internalType": "address",
          "name": "previousOwner",
          "type": "address"
        },
        {
          "indexed": true,
          "internalType": "address",
          "name": "newOwner",
          "type": "address"
        }
      ],
      "name": "OwnershipTransferred",
      "type": "event"
    },
    {
      "anonymous": false,
      "inputs": [
        {
          "indexed": true,
          "internalType": "address",
          "name": "pilotEscrow",
          "type": "address"
        }
      ],
      "name": "PilotEscrowSet",
      "type": "event"
    },
    {
      "inputs": [],
      "name": "MAX_DEVIATION",
      "outputs": [
        {
          "internalType": "uint256",
          "name": "",
          "type": "uint256"
        }
      ],
      "stateMutability": "view",
      "type": "function"
    },
    {
      "inputs": [],
      "name": "MIN_STAKE",
      "outputs": [
        {
          "internalType": "uint256",
          "name": "",
          "type": "uint256"
        }
      ],
      "stateMutability": "view",
      "type": "function"
    },
    {
      "inputs": [],
      "name": "SLASH_PERCENT",
      "outputs": [
        {
          "internalType": "uint256",
          "name": "",
          "type": "uint256"
        }
      ],
      "stateMutability": "view",
      "type": "function"
    },
    {
      "inputs": [],
      "name": "activeOracleCount",
      "outputs": [
        {
          "internalType": "uint256",
          "name": "count",
          "type": "uint256"
        }
      ],
      "stateMutability": "view",
      "type": "function"
    },
    {
      "inputs": [],
      "name": "getActiveOracles",
      "outputs": [
        {
          "internalType": "address[]",
          "name": "operators",
          "type": "address[]"
        },
        {
          "internalType": "string[]",
          "name": "multiaddrs",
          "type": "string[]"
        }
      ],
      "stateMutability": "view",
      "type": "function"
    },
    {
      "inputs": [
        {
          "internalType": "address",
          "name": "operator",
          "type": "address"
        }
      ],
      "name": "isActiveOracle",
      "outputs": [
        {
          "internalType": "bool",
          "name": "",
          "type": "bool"
        }
      ],
      "stateMutability": "view",
      "type": "function"
    },
    {
      "inputs": [
        {
          "internalType": "uint256",
          "name": "",
          "type": "uint256"
        }
      ],
      "name": "oracleList",
      "outputs": [
        {
          "internalType": "address",
          "name": "",
          "type": "address"
        }
      ],
      "stateMutability": "view",
      "type": "function"
    },
    {
      "inputs": [
        {
          "internalType": "address",
          "name": "",
          "type": "address"
        }
      ],
      "name": "oracles",
      "outputs": [
        {
          "internalType": "address",
          "name": "operator",
          "type": "address"
        },
        {
          "internalType": "uint256",
          "name": "stake",
          "type": "uint256"
        },
        {
          "internalType": "uint256",
          "name": "scoreCount",
          "type": "uint256"
        },
        {
          "internalType": "uint256",
          "name": "lastActive",
          "type": "uint256"
        },
        {
          "internalType": "bool",
          "name": "active",
          "type": "bool"
        },
        {
          "internalType": "string",
          "name": "multiaddr",
          "type": "string"
        }
      ],
      "stateMutability": "view",
      "type": "function"
    },
    {
      "inputs": [],
      "name": "owner",
      "outputs": [
        {
          "internalType": "address",
          "name": "",
          "type": "address"
        }
      ],
      "stateMutability": "view",
      "type": "function"
    },
    {
      "inputs": [],
      "name": "pilotEscrow",
      "outputs": [
        {
          "internalType": "address",
          "name": "",
          "type": "address"
        }
      ],
      "stateMutability": "view",
      "type": "function"
    },
    {
      "inputs": [
        {
          "internalType": "string",
          "name": "_multiaddr",
          "type": "string"
        }
      ],
      "name": "registerOracle",
      "outputs": [],
      "stateMutability": "payable",
      "type": "function"
    },
    {
      "inputs": [],
      "name": "renounceOwnership",
      "outputs": [],
      "stateMutability": "nonpayable",
      "type": "function"
    },
    {
      "inputs": [
        {
          "internalType": "address",
          "name": "operator",
          "type": "address"
        },
        {
          "internalType": "uint256",
          "name": "submittedScore",
          "type": "uint256"
        },
        {
          "internalType": "uint256",
          "name": "medianScore",
          "type": "uint256"
        }
      ],
      "name": "reportDeviation",
      "outputs": [],
      "stateMutability": "nonpayable",
      "type": "function"
    },
    {
      "inputs": [
        {
          "internalType": "address",
          "name": "_pilotEscrow",
          "type": "address"
        }
      ],
      "name": "setPilotEscrow",
      "outputs": [],
      "stateMutability": "nonpayable",
      "type": "function"
    },
    {
      "inputs": [
        {
          "internalType": "address",
          "name": "newOwner",
          "type": "address"
        }
      ],
      "name": "transferOwnership",
      "outputs": [],
      "stateMutability": "nonpayable",
      "type": "function"
    }
  ],
  "bytecode": "0x6080806040523461007a5733156100645760008054336001600160a01b03198216811783556040519290916001600160a01b0316907f8be0079c531659141344cd1fd0a4f28419497f9722a3daafe3b4186f6b6457e09080a3610ef490816100808239f35b631e4fbdf760e01b815260006004820152602490fd5b600080fdfe608080604052600436101561001357600080fd5b60003560e01c90816318dbd27314610af257508063239aad0d14610ab0578063321c512b146106ae5780633ae9b8f11461066c5780636ccaa94614610446578063715018a6146103ed5780638da5cb5b146103c4578063920ee5941461039b578063998d6238146102c1578063addd509914610231578063b05f233a14610215578063bca86af814610196578063cb1c2b5c14610173578063f2fde38b146100e55763f6e8913d146100c457600080fd5b346100e05760003660031901126100e057602060405160058152f35b600080fd5b346100e05760203660031901126100e0576100fe610b66565b610106610d0b565b6001600160a01b0390811690811561015a57600054826bffffffffffffffffffffffff60a01b821617600055167f8be0079c531659141344cd1fd0a4f28419497f9722a3daafe3b4186f6b6457e0600080a3005b604051631e4fbdf760e01b815260006004820152602490fd5b346100e05760003660031901126100e0576020604051670de0b6b3a76400008152f35b346100e05760003660031901126100e057600080600254905b8181106101c157602083604051908152f35b6101ca81610b7c565b60018060a01b0391549060031b1c16600052600160205260ff60046040600020015416610200575b6101fb90610e83565b6101af565b9161020d6101fb91610e83565b9290506101f2565b346100e05760003660031901126100e057602060405160198152f35b346100e05760203660031901126100e0576001600160a01b0380610253610b66565b1660005260016020526040600020908154166102bd600183015492600281015490600381015461028d600560ff6004850154169301610c65565b9260405196879687526020870152604086015260608501521515608084015260c060a084015260c0830190610bc9565b0390f35b346100e05760203660031901126100e0576102da610b66565b6102e2610d0b565b600354906001600160a01b03908183166103685716908115610334576001600160a01b03191681176003557f29279890f1492ae275f30c5230eacdf09396c8ab51d9cb258b4ec1ce6151a47b600080a2005b60405162461bcd60e51b815260206004820152600c60248201526b5a65726f206164647265737360a01b6044820152606490fd5b60405162461bcd60e51b815260206004820152600b60248201526a105b1c9958591e481cd95d60aa1b6044820152606490fd5b346100e05760003660031901126100e0576003546040516001600160a01b039091168152602090f35b346100e05760003660031901126100e0576000546040516001600160a01b039091168152602090f35b346100e05760003660031901126100e057610406610d0b565b600080546001600160a01b0319811682556001600160a01b03167f8be0079c531659141344cd1fd0a4f28419497f9722a3daafe3b4186f6b6457e08280a3005b346100e05760003660031901126100e0576002546000805b828110610618575061046f81610e92565b9061047d6040519283610c43565b80825261048981610e92565b602083810194601f19928301368737826104bb6104a586610e92565b956104b36040519788610c43565b808752610e92565b0160005b8181106106095750506000805b82811061057257505050604051936040850190604086525180915260608501959060005b818110610555575050508385038185015282519081865280860181808460051b8901019501936000975b8489106105275787870388f35b9091929394958480610543838686600196030188528a51610bc9565b9801940198019791909493929461051a565b82516001600160a01b0316885296830196918301916001016104f0565b61057e81989598610b7c565b60018060a01b0391549060031b1c168060005260019081865260ff600460406000200154166105bb575b50506105b390610e83565b9693966104cc565b9261060191846105b394956105d0848d610eaa565b5260005286526105e66005604060002001610c65565b6105f0828a610eaa565b526105fb8189610eaa565b50610e83565b9190896105a8565b606086820185015283016104bf565b61062181610b7c565b60018060a01b0391549060031b1c16600052600160205260ff60046040600020015416610657575b61065290610e83565b61045e565b9061066461065291610e83565b919050610649565b346100e05760203660031901126100e0576001600160a01b0361068d610b66565b166000526001602052602060ff600460406000200154166040519015158152f35b60203660031901126100e05767ffffffffffffffff600435116100e0573660236004350112156100e05767ffffffffffffffff60043560040135116100e057366024600435600401356004350101116100e057670de0b6b3a76400003410610a765733600052600160205260ff60046040600020015416610a3c576004356004013515610a025760405160c0810181811067ffffffffffffffff82111761092857604052338152346020820152600060408201524260608201526001608082015260405161078c6020601f19601f6004356004013501160182610c43565b600480359081013580835290602401602083013760006020600435600401358301015260a0820190815233600052600160205260406000209160018060a01b038151166bffffffffffffffffffffffff60a01b845416178355602081015160018401556040810151600284015560608101516003840155608060048401910151151560ff801983541691161790555180519067ffffffffffffffff82116109285761083a6005840154610c09565b601f81116109b7575b50602090601f831160011461094957600592916000918361093e575b50508160011b916000199060031b1c1916179101555b60025468010000000000000000811015610928578060016108999201600255610b7c565b81549060031b9033821b9160018060a01b03901b1916179055604051348152604060208201526004356004013560408201526004356004013560246004350160608301376000606060043560040135830101527f208b7b377111d47497fe04896f412ac49c5bdfd48c73ed9debafabe0b06611683391606081601f19601f6004356004013501168101030190a2005b634e487b7160e01b600052604160045260246000fd5b01519050848061085f565b90601f198316916005850160005260206000209260005b81811061099f57509160019391856005969410610986575b505050811b01910155610875565b015160001960f88460031b161c19169055848080610978565b92936020600181928786015181550195019301610960565b600584016000526020600020601f840160051c810191602085106109f8575b601f0160051c01905b8181106109ec5750610843565b600081556001016109df565b90915081906109d6565b60405162461bcd60e51b8152602060048201526012602482015271135d5b1d1a5859191c881c995c5d5a5c995960721b6044820152606490fd5b60405162461bcd60e51b8152602060048201526012602482015271105b1c9958591e481c9959da5cdd195c995960721b6044820152606490fd5b60405162461bcd60e51b8152602060048201526012602482015271496e73756666696369656e74207374616b6560701b6044820152606490fd5b346100e05760203660031901126100e0576004356002548110156100e057610ad9602091610b7c565b905460405160039290921b1c6001600160a01b03168152f35b346100e05760603660031901126100e057610b0b610b66565b6003549091906001600160a01b03163303610b3157610b2f60443560243584610d5a565b005b62461bcd60e51b815260206004820152601060248201526f4f6e6c792050696c6f74457363726f7760801b6044820152606490fd5b600435906001600160a01b03821682036100e057565b600254811015610bb35760026000527f405787fa12a823e0f2b7631cc41b3ba8828b3321ca811111fa75cd3aa3bb5ace0190600090565b634e487b7160e01b600052603260045260246000fd5b919082519283825260005b848110610bf5575050826000602080949584010152601f8019910116010190565b602081830181015184830182015201610bd4565b90600182811c92168015610c39575b6020831014610c2357565b634e487b7160e01b600052602260045260246000fd5b91607f1691610c18565b90601f8019910116810190811067ffffffffffffffff82111761092857604052565b9060405191826000825492610c7984610c09565b908184526001948581169081600014610ce85750600114610ca5575b5050610ca392500383610c43565b565b9093915060005260209081600020936000915b818310610cd0575050610ca393508201013880610c95565b85548884018501529485019487945091830191610cb8565b915050610ca394506020925060ff191682840152151560051b8201013880610c95565b6000546001600160a01b03163303610d1f57565b60405163118cdaa760e01b8152336004820152602490fd5b91908203918211610d4457565b634e487b7160e01b600052601160045260246000fd5b60018060a01b03169160008381526001928360205260409260ff600485852001541615610e7b5760199181811115610e6d5790610d9691610d37565b11610da2575b50505050565b83815282602052828282200154600581029080820460051490151715610e59578260046080947fda4247d88dd9a845536e72b0c02526ceb5db850882b8cc9fd14673b70eaca30d969460646018950495898252806020528083832001610e09888254610d37565b9055898252602052200160ff19815416905580519283528060208401528201527f53636f726520646576696174696f6e20746f6f206869676800000000000000006060820152a238808080610d9c565b634e487b7160e01b82526011600452602482fd5b610e7691610d37565b610d96565b505050505050565b6000198114610d445760010190565b67ffffffffffffffff81116109285760051b60200190565b8051821015610bb35760209160051b01019056fea2646970667358221220f98c77f034f6446fb7e7ee1929bfad5ba310e5f52ec1e1e77b1f3e1d127fb43064736f6c63430008140033",
  "linkReferences": {},
  "deployedLinkReferences": {}
}