{
  "_format": "hh-sol-artifact-1",
  "contractName": "VenomRegistry",
  "sourceName": "contracts/VenomRegistry.sol",
  "abi": [
    {
      "inputs": [],
      "stateMutability": "nonpayable",
      "type": "constructor"
    },
    {
      "inputs": [
        {
          "internalType": "address",
          "name": "owner",
          "type": "address"
        }
      ],
      "name": "OwnableInvalidOwner",
      "type": "error"
    },
    {
      "inputs": [
        {
          "internalType": "address",
          "name": "account",
          "type": "address"
        }
      ],
      "name": "OwnableUnauthorizedAccount",
      "type": "error"
    },
    {
      "anonymous": false,
      "inputs": [
        {
          "indexed": true,
          "internalType": "address",
          "name": "operator",
          "type": "address"
        },
        {
          "indexed": false,
          "internalType": "uint256",
          "name": "stake",
          "type": "uint256"
        },
        {
          "indexed": false,
          "internalType": "string",
          "name": "multiaddr",
          "type": "string"
        }
      ],
      "name": "OracleRegistered",
      "type": "event"
    },
    {
      "anonymous": false,
      "inputs": [
        {
          "indexed": true,
          "internalType": "address",
          "name": "operator",
          "type": "address"
        },
        {
          "indexed": false,
          "internalType": "uint256",
          "name": "amount",
          "type": "uint256"
        },
        {
          "indexed": false,
          "internalType": "string",
          "name": "reason",
          "type": "string"
        }
      ],
      "name": "OracleSlashed",
      "type": "event"
    },
    {
      "anonymous": false,
      "inputs": [
        {
          "indexed": true,
          "internalType": "address",
          "name": "previousOwner",
          "type": "address"
        },
        {
          "indexed": true,
          "internalType": "address",
          "name": "newOwner",
          "type": "address"
        }
      ],
      "name": "OwnershipTransferred",
      "type": "event"
    },
    {
      "anonymous": false,
      "inputs": [
        {
          "indexed": true,
          "internalType": "address",
          "name": "pilotEscrow",
          "type": "address"
        }
      ],
      "name": "PilotEscrowSet",
      "type": "event"
    },
    {
      "anonymous": false,
      "inputs": [
        {
          "indexed": true,
          "internalType": "address",
          "name": "recipient",
          "type": "address"
        },
        {
          "indexed": false,
          "internalType": "uint256",
          "name": "amount",
          "type": "uint256"
        }
      ],
      "name": "SlashedStakeWithdrawn",
      "type": "event"
    },
    {
      "inputs": [],
      "name": "MAX_DEVIATION",
      "outputs": [
        {
          "internalType": "uint256",
          "name": "",
          "type": "uint256"
        }
      ],
      "stateMutability": "view",
      "type": "function"
    },
    {
      "inputs": [],
      "name": "MIN_STAKE",
      "outputs": [
        {
          "internalType": "uint256",
          "name": "",
          "type": "uint256"
        }
      ],
      "stateMutability": "view",
      "type": "function"
    },
    {
      "inputs": [],
      "name": "SLASH_PERCENT",
      "outputs": [
        {
          "internalType": "uint256",
          "name": "",
          "type": "uint256"
        }
      ],
      "stateMutability": "view",
      "type": "function"
    },
    {
      "inputs": [],
      "name": "activeOracleCount",
      "outputs": [
        {
          "internalType": "uint256",
          "name": "count",
          "type": "uint256"
        }
      ],
      "stateMutability": "view",
      "type": "function"
    },
    {
      "inputs": [],
      "name": "getActiveOracles",
      "outputs": [
        {
          "internalType": "address[]",
          "name": "operators",
          "type": "address[]"
        },
        {
          "internalType": "string[]",
          "name": "multiaddrs",
          "type": "string[]"
        }
      ],
      "stateMutability": "view",
      "type": "function"
    },
    {
      "inputs": [
        {
          "internalType": "address",
          "name": "",
          "type": "address"
        }
      ],
      "name": "hasRegistered",
      "outputs": [
        {
          "internalType": "bool",
          "name": "",
          "type": "bool"
        }
      ],
      "stateMutability": "view",
      "type": "function"
    },
    {
      "inputs": [
        {
          "internalType": "address",
          "name": "operator",
          "type": "address"
        }
      ],
      "name": "isActiveOracle",
      "outputs": [
        {
          "internalType": "bool",
          "name": "",
          "type": "bool"
        }
      ],
      "stateMutability": "view",
      "type": "function"
    },
    {
      "inputs": [
        {
          "internalType": "uint256",
          "name": "",
          "type": "uint256"
        }
      ],
      "name": "oracleList",
      "outputs": [
        {
          "internalType": "address",
          "name": "",
          "type": "address"
        }
      ],
      "stateMutability": "view",
      "type": "function"
    },
    {
      "inputs": [
        {
          "internalType": "address",
          "name": "",
          "type": "address"
        }
      ],
      "name": "oracles",
      "outputs": [
        {
          "internalType": "address",
          "name": "operator",
          "type": "address"
        },
        {
          "internalType": "uint256",
          "name": "stake",
          "type": "uint256"
        },
        {
          "internalType": "uint256",
          "name": "scoreCount",
          "type": "uint256"
        },
        {
          "internalType": "uint256",
          "name": "lastActive",
          "type": "uint256"
        },
        {
          "internalType": "bool",
          "name": "active",
          "type": "bool"
        },
        {
          "internalType": "string",
          "name": "multiaddr",
          "type": "string"
        }
      ],
      "stateMutability": "view",
      "type": "function"
    },
    {
      "inputs": [],
      "name": "owner",
      "outputs": [
        {
          "internalType": "address",
          "name": "",
          "type": "address"
        }
      ],
      "stateMutability": "view",
      "type": "function"
    },
    {
      "inputs": [],
      "name": "pilotEscrow",
      "outputs": [
        {
          "internalType": "address",
          "name": "",
          "type": "address"
        }
      ],
      "stateMutability": "view",
      "type": "function"
    },
    {
      "inputs": [
        {
          "internalType": "string",
          "name": "_multiaddr",
          "type": "string"
        }
      ],
      "name": "registerOracle",
      "outputs": [],
      "stateMutability": "payable",
      "type": "function"
    },
    {
      "inputs": [],
      "name": "renounceOwnership",
      "outputs": [],
      "stateMutability": "nonpayable",
      "type": "function"
    },
    {
      "inputs": [
        {
          "internalType": "address",
          "name": "operator",
          "type": "address"
        },
        {
          "internalType": "uint256",
          "name": "submittedScore",
          "type": "uint256"
        },
        {
          "internalType": "uint256",
          "name": "medianScore",
          "type": "uint256"
        }
      ],
      "name": "reportDeviation",
      "outputs": [],
      "stateMutability": "nonpayable",
      "type": "function"
    },
    {
      "inputs": [
        {
          "internalType": "address",
          "name": "_pilotEscrow",
          "type": "address"
        }
      ],
      "name": "setPilotEscrow",
      "outputs": [],
      "stateMutability": "nonpayable",
      "type": "function"
    },
    {
      "inputs": [],
      "name": "slashedStakeReserve",
      "outputs": [
        {
          "internalType": "uint256",
          "name": "",
          "type": "uint256"
        }
      ],
      "stateMutability": "view",
      "type": "function"
    },
    {
      "inputs": [
        {
          "internalType": "address",
          "name": "newOwner",
          "type": "address"
        }
      ],
      "name": "transferOwnership",
      "outputs": [],
      "stateMutability": "nonpayable",
      "type": "function"
    },
    {
      "inputs": [
        {
          "internalType": "address payable",
          "name": "recipient",
          "type": "address"
        },
        {
          "internalType": "uint256",
          "name": "amount",
          "type": "uint256"
        }
      ],
      "name": "withdrawSlashedStake",
      "outputs": [],
      "stateMutability": "nonpayable",
      "type": "function"
    }
  ],
  "bytecode": "0x6080806040523461007a5733156100645760008054336001600160a01b03198216811783556040519290916001600160a01b0316907f8be0079c531659141344cd1fd0a4f28419497f9722a3daafe3b4186f6b6457e09080a361114a90816100808239f35b631e4fbdf760e01b815260006004820152602490fd5b600080fdfe608080604052600436101561001357600080fd5b60003560e01c90816318dbd27314610ccb57508063239aad0d14610c89578063321c512b146108385780633ae9b8f1146107f65780634a4c84d3146106cc5780636ccaa94614610497578063715018a61461043e5780638da5cb5b14610415578063920ee594146103ec578063998d623814610341578063a0d0352614610302578063addd509914610272578063b05f233a14610256578063bca86af8146101d5578063cb1c2b5c146101b2578063ce5b7fe214610194578063f2fde38b146101065763f6e8913d146100e557600080fd5b3461010157600036600319011261010157602060405160058152f35b600080fd5b346101015760203660031901126101015761011f610d3f565b610127610ee4565b6001600160a01b0390811690811561017b57600054826bffffffffffffffffffffffff60a01b821617600055167f8be0079c531659141344cd1fd0a4f28419497f9722a3daafe3b4186f6b6457e0600080a3005b604051631e4fbdf760e01b815260006004820152602490fd5b34610101576000366003190112610101576020600554604051908152f35b34610101576000366003190112610101576020604051670de0b6b3a76400008152f35b346101015760003660031901126101015760008060038054915b82811061020157602084604051908152f35b61020a81610d55565b905490831b1c6001600160a01b031660009081526001602052604090206004015460ff16610241575b61023c906110d9565b6101ef565b9261024e61023c916110d9565b939050610233565b3461010157600036600319011261010157602060405160198152f35b34610101576020366003190112610101576001600160a01b0380610294610d3f565b1660005260016020526040600020908154166102fe60018301549260028101549060038101546102ce600560ff6004850154169301610e3e565b9260405196879687526020870152604086015260608501521515608084015260c060a084015260c0830190610da2565b0390f35b34610101576020366003190112610101576001600160a01b03610323610d3f565b166000526002602052602060ff604060002054166040519015158152f35b346101015760203660031901126101015761035a610d3f565b610362610ee4565b600454906001600160a01b03908183166103b957168091610384821515610f10565b6001600160a01b031916176004557f29279890f1492ae275f30c5230eacdf09396c8ab51d9cb258b4ec1ce6151a47b600080a2005b60405162461bcd60e51b815260206004820152600b60248201526a105b1c9958591e481cd95d60aa1b6044820152606490fd5b34610101576000366003190112610101576004546040516001600160a01b039091168152602090f35b34610101576000366003190112610101576000546040516001600160a01b039091168152602090f35b3461010157600036600319011261010157610457610ee4565b600080546001600160a01b0319811682556001600160a01b03167f8be0079c531659141344cd1fd0a4f28419497f9722a3daafe3b4186f6b6457e08280a3005b3461010157600036600319011261010157600380546000805b82811061067157506104c1816110e8565b916104cf6040519384610e1c565b8183526104db826110e8565b602084810195601f1993919284013688378361050f6104f9876110e8565b966105076040519889610e1c565b8088526110e8565b0160005b81811061066257505060009060005b8381106105c95750505050604051936040850190604086525180915260608501959060005b8181106105ac575050508385038185015282519081865280860181808460051b8901019501936000975b84891061057e5787870388f35b909192939495848061059a838686600196030188528a51610da2565b98019401980197919094939294610571565b82516001600160a01b031688529683019691830191600101610547565b6105d581999699610d55565b60018060a01b03915490841b1c16806000526001908187528960ff60046040600020015416610613575b50505061060b906110d9565b979497610522565b9181869261062861060b969861065996611100565b52600052875261063e6005604060002001610e3e565b610648828b611100565b52610653818a611100565b506110d9565b92908a896105ff565b60608782018601528401610513565b61067d81949394610d55565b905490841b1c6001600160a01b031660009081526001602052604090206004015460ff166106b7575b6106af906110d9565b9291926104b0565b906106c46106af916110d9565b9190506106a6565b34610101576040366003190112610101576004356001600160a01b03811690819003610101576024356106fd610ee4565b610708821515610f10565b6005548082116107bf578161071c91610f67565b600555600080808084865af13d156107ba573d61073881610f4b565b906107466040519283610e1c565b8152600060203d92013e5b156107835760207f52fec009a7bb363351e19fc7928d085c142e7a33b3d503de4dab2aa393f9ad7791604051908152a2005b60405162461bcd60e51b815260206004820152600f60248201526e151c985b9cd9995c8819985a5b1959608a1b6044820152606490fd5b610751565b60405162461bcd60e51b815260206004820152600f60248201526e45786365656473207265736572766560881b6044820152606490fd5b34610101576020366003190112610101576001600160a01b03610817610d3f565b166000526001602052602060ff600460406000200154166040519015158152f35b60203660031901126101015760043567ffffffffffffffff811161010157366023820112156101015767ffffffffffffffff8160040135116101015736602482600401358301011161010157670de0b6b3a76400003410610c4f5733600052600160205260ff60046040600020015416610c155733600052600260205260ff60406000205416610bd857806004013515610b9e5760405160c0810181811067ffffffffffffffff821117610ac55760405233815234602082015260006040820152426060820152600160808201526109138260040135610f4b565b6109206040519182610e1c565b60048301358082526024840160208301376000602084600401358301015260a0820152336000526001602052604060002060018060a01b038251166bffffffffffffffffffffffff60a01b82541617815560208201516001820155604082015160028201556060820151916003928383015560a060056004840193608084015115159460ff199560ff8783541691161790550191015180519067ffffffffffffffff8211610ac55781906109d48454610de2565b601f8111610b4b575b50602090601f8311600114610ae657600092610adb575b50508160011b9160001990861b1c19161790555b3360005260026020526001604060002091825416179055805468010000000000000000811015610ac557806001610a4192018355610d55565b81929154911b9033821b9160018060a01b03901b19161790557f208b7b377111d47497fe04896f412ac49c5bdfd48c73ed9debafabe0b066116860405134815260406020820152826004013560408201528260040135602484016060830137600060608460040135830101526060813394601f8019916004013501168101030190a2005b634e487b7160e01b600052604160045260246000fd5b0151905086806109f4565b6000858152602081209350601f198516905b818110610b335750908460019594939210610b1b575b505050811b019055610a08565b015160001983881b60f8161c19169055868080610b0e565b92936020600181928786015181550195019301610af8565b909150836000526020600020601f840160051c81019160208510610b94575b90601f859493920160051c01905b818110610b8557506109dd565b60008155849350600101610b78565b9091508190610b6a565b60405162461bcd60e51b8152602060048201526012602482015271135d5b1d1a5859191c881c995c5d5a5c995960721b6044820152606490fd5b60405162461bcd60e51b81526020600482015260156024820152744f7261636c6520616c72656164792065786973747360581b6044820152606490fd5b60405162461bcd60e51b8152602060048201526012602482015271105b1c9958591e481c9959da5cdd195c995960721b6044820152606490fd5b60405162461bcd60e51b8152602060048201526012602482015271496e73756666696369656e74207374616b6560701b6044820152606490fd5b346101015760203660031901126101015760043560035481101561010157610cb2602091610d55565b905460405160039290921b1c6001600160a01b03168152f35b3461010157606036600319011261010157610ce4610d3f565b6004549091906001600160a01b03163303610d0a57610d0860443560243584610f8a565b005b62461bcd60e51b815260206004820152601060248201526f4f6e6c792050696c6f74457363726f7760801b6044820152606490fd5b600435906001600160a01b038216820361010157565b600354811015610d8c5760036000527fc2575a0e9e593c00f959f8c92f12db2869c3395a3b0502d05e2516446f71f85b0190600090565b634e487b7160e01b600052603260045260246000fd5b919082519283825260005b848110610dce575050826000602080949584010152601f8019910116010190565b602081830181015184830182015201610dad565b90600182811c92168015610e12575b6020831014610dfc57565b634e487b7160e01b600052602260045260246000fd5b91607f1691610df1565b90601f8019910116810190811067ffffffffffffffff821117610ac557604052565b9060405191826000825492610e5284610de2565b908184526001948581169081600014610ec15750600114610e7e575b5050610e7c92500383610e1c565b565b9093915060005260209081600020936000915b818310610ea9575050610e7c93508201013880610e6e565b85548884018501529485019487945091830191610e91565b915050610e7c94506020925060ff191682840152151560051b8201013880610e6e565b6000546001600160a01b03163303610ef857565b60405163118cdaa760e01b8152336004820152602490fd5b15610f1757565b60405162461bcd60e51b815260206004820152600c60248201526b5a65726f206164647265737360a01b6044820152606490fd5b67ffffffffffffffff8111610ac557601f01601f191660200190565b91908203918211610f7457565b634e487b7160e01b600052601160045260246000fd5b60018060a01b03169160008381526001928360205260409260ff6004858520015416156110d157601991818111156110c35790610fc691610f67565b11610fd2575b50505050565b838152826020528282822001546005810290808204600514901517156110af57606490049284825280602052808383200161100e858254610f67565b905560055484810180911161109b57926004817fda4247d88dd9a845536e72b0c02526ceb5db850882b8cc9fd14673b70eaca30d9694601894608097600555898252602052200160ff19815416905580519283528060208401528201527f53636f726520646576696174696f6e20746f6f206869676800000000000000006060820152a238808080610fcc565b634e487b7160e01b83526011600452602483fd5b634e487b7160e01b82526011600452602482fd5b6110cc91610f67565b610fc6565b505050505050565b6000198114610f745760010190565b67ffffffffffffffff8111610ac55760051b60200190565b8051821015610d8c5760209160051b01019056fea2646970667358221220f03346ad071f6bfc99aafa6edd7a0693ee19ed1e5e5edf43e184b62043ab83c964736f6c63430008140033",
  "linkReferences": {},
  "deployedLinkReferences": {}
}