{
  "_format": "hh-sol-artifact-1",
  "contractName": "PilotEscrow",
  "sourceName": "contracts/PilotEscrow.sol",
  "abi": [
    {
      "inputs": [
        {
          "internalType": "address",
          "name": "_registry",
          "type": "address"
        }
      ],
      "stateMutability": "nonpayable",
      "type": "constructor"
    },
    {
      "inputs": [
        {
          "internalType": "address",
          "name": "owner",
          "type": "address"
        }
      ],
      "name": "OwnableInvalidOwner",
      "type": "error"
    },
    {
      "inputs": [
        {
          "internalType": "address",
          "name": "account",
          "type": "address"
        }
      ],
      "name": "OwnableUnauthorizedAccount",
      "type": "error"
    },
    {
      "anonymous": false,
      "inputs": [
        {
          "indexed": true,
          "internalType": "bytes32",
          "name": "campaignUid",
          "type": "bytes32"
        },
        {
          "indexed": true,
          "internalType": "address",
          "name": "recipient",
          "type": "address"
        },
        {
          "indexed": false,
          "internalType": "uint256",
          "name": "bounty",
          "type": "uint256"
        },
        {
          "indexed": false,
          "internalType": "uint256",
          "name": "medianScore",
          "type": "uint256"
        }
      ],
      "name": "CampaignClosed",
      "type": "event"
    },
    {
      "anonymous": false,
      "inputs": [
        {
          "indexed": true,
          "internalType": "bytes32",
          "name": "campaignUid",
          "type": "bytes32"
        },
        {
          "indexed": true,
          "internalType": "address",
          "name": "funder",
          "type": "address"
        },
        {
          "indexed": false,
          "internalType": "uint256",
          "name": "amount",
          "type": "uint256"
        }
      ],
      "name": "CampaignFunded",
      "type": "event"
    },
    {
      "anonymous": false,
      "inputs": [
        {
          "indexed": true,
          "internalType": "address",
          "name": "previousOwner",
          "type": "address"
        },
        {
          "indexed": true,
          "internalType": "address",
          "name": "newOwner",
          "type": "address"
        }
      ],
      "name": "OwnershipTransferred",
      "type": "event"
    },
    {
      "inputs": [],
      "name": "DOMAIN_SEPARATOR",
      "outputs": [
        {
          "internalType": "bytes32",
          "name": "",
          "type": "bytes32"
        }
      ],
      "stateMutability": "view",
      "type": "function"
    },
    {
      "inputs": [],
      "name": "DOMAIN_TYPEHASH",
      "outputs": [
        {
          "internalType": "bytes32",
          "name": "",
          "type": "bytes32"
        }
      ],
      "stateMutability": "view",
      "type": "function"
    },
    {
      "inputs": [],
      "name": "MAX_DEVIATION",
      "outputs": [
        {
          "internalType": "uint256",
          "name": "",
          "type": "uint256"
        }
      ],
      "stateMutability": "view",
      "type": "function"
    },
    {
      "inputs": [],
      "name": "NAME",
      "outputs": [
        {
          "internalType": "string",
          "name": "",
          "type": "string"
        }
      ],
      "stateMutability": "view",
      "type": "function"
    },
    {
      "inputs": [],
      "name": "PASS_THRESHOLD",
      "outputs": [
        {
          "internalType": "uint256",
          "name": "",
          "type": "uint256"
        }
      ],
      "stateMutability": "view",
      "type": "function"
    },
    {
      "inputs": [],
      "name": "REQUIRED_ORACLES",
      "outputs": [
        {
          "internalType": "uint256",
          "name": "",
          "type": "uint256"
        }
      ],
      "stateMutability": "view",
      "type": "function"
    },
    {
      "inputs": [],
      "name": "SCORE_TYPEHASH",
      "outputs": [
        {
          "internalType": "bytes32",
          "name": "",
          "type": "bytes32"
        }
      ],
      "stateMutability": "view",
      "type": "function"
    },
    {
      "inputs": [],
      "name": "VERSION",
      "outputs": [
        {
          "internalType": "string",
          "name": "",
          "type": "string"
        }
      ],
      "stateMutability": "view",
      "type": "function"
    },
    {
      "inputs": [
        {
          "internalType": "bytes32",
          "name": "",
          "type": "bytes32"
        }
      ],
      "name": "campaigns",
      "outputs": [
        {
          "internalType": "address",
          "name": "recipient",
          "type": "address"
        },
        {
          "internalType": "uint256",
          "name": "bounty",
          "type": "uint256"
        },
        {
          "internalType": "bool",
          "name": "closed",
          "type": "bool"
        },
        {
          "internalType": "uint256",
          "name": "fundedBlock",
          "type": "uint256"
        }
      ],
      "stateMutability": "view",
      "type": "function"
    },
    {
      "inputs": [
        {
          "internalType": "bytes32",
          "name": "campaignUid",
          "type": "bytes32"
        },
        {
          "internalType": "address",
          "name": "",
          "type": "address"
        },
        {
          "internalType": "uint256",
          "name": "",
          "type": "uint256"
        },
        {
          "internalType": "uint256",
          "name": "",
          "type": "uint256"
        },
        {
          "internalType": "uint256[]",
          "name": "scores",
          "type": "uint256[]"
        },
        {
          "internalType": "bytes[]",
          "name": "signatures",
          "type": "bytes[]"
        }
      ],
      "name": "closeCampaign",
      "outputs": [],
      "stateMutability": "nonpayable",
      "type": "function"
    },
    {
      "inputs": [
        {
          "internalType": "bytes32",
          "name": "campaignUid",
          "type": "bytes32"
        }
      ],
      "name": "fundCampaign",
      "outputs": [],
      "stateMutability": "payable",
      "type": "function"
    },
    {
      "inputs": [],
      "name": "owner",
      "outputs": [
        {
          "internalType": "address",
          "name": "",
          "type": "address"
        }
      ],
      "stateMutability": "view",
      "type": "function"
    },
    {
      "inputs": [],
      "name": "registry",
      "outputs": [
        {
          "internalType": "contract VenomRegistry",
          "name": "",
          "type": "address"
        }
      ],
      "stateMutability": "view",
      "type": "function"
    },
    {
      "inputs": [],
      "name": "renounceOwnership",
      "outputs": [],
      "stateMutability": "nonpayable",
      "type": "function"
    },
    {
      "inputs": [
        {
          "internalType": "address",
          "name": "newOwner",
          "type": "address"
        }
      ],
      "name": "transferOwnership",
      "outputs": [],
      "stateMutability": "nonpayable",
      "type": "function"
    }
  ],
  "bytecode": "0x60c06040523480156200001157600080fd5b5060405162002662380380620026628339818101604052810190620000379190620002f8565b33600073ffffffffffffffffffffffffffffffffffffffff168173ffffffffffffffffffffffffffffffffffffffff1603620000ad5760006040517f1e4fbdf7000000000000000000000000000000000000000000000000000000008152600401620000a491906200033b565b60405180910390fd5b620000be81620001ca60201b60201c565b508073ffffffffffffffffffffffffffffffffffffffff1660808173ffffffffffffffffffffffffffffffffffffffff16815250507f8b73c3c69bb8fe3d512ecc4cf759cc79239f7b179b0ffacaa9a75d522b39400f6040518060400160405280601181526020017f56454e4f4d2050696c6f74457363726f77000000000000000000000000000000815250805190602001206040518060400160405280600181526020017f3100000000000000000000000000000000000000000000000000000000000000815250805190602001204630604051602001620001a69594939291906200038e565b6040516020818303038152906040528051906020012060a0818152505050620003eb565b60008060009054906101000a900473ffffffffffffffffffffffffffffffffffffffff169050816000806101000a81548173ffffffffffffffffffffffffffffffffffffffff021916908373ffffffffffffffffffffffffffffffffffffffff1602179055508173ffffffffffffffffffffffffffffffffffffffff168173ffffffffffffffffffffffffffffffffffffffff167f8be0079c531659141344cd1fd0a4f28419497f9722a3daafe3b4186f6b6457e060405160405180910390a35050565b600080fd5b600073ffffffffffffffffffffffffffffffffffffffff82169050919050565b6000620002c08262000293565b9050919050565b620002d281620002b3565b8114620002de57600080fd5b50565b600081519050620002f281620002c7565b92915050565b6000602082840312156200031157620003106200028e565b5b60006200032184828501620002e1565b91505092915050565b6200033581620002b3565b82525050565b60006020820190506200035260008301846200032a565b92915050565b6000819050919050565b6200036d8162000358565b82525050565b6000819050919050565b620003888162000373565b82525050565b600060a082019050620003a5600083018862000362565b620003b4602083018762000362565b620003c3604083018662000362565b620003d260608301856200037d565b620003e160808301846200032a565b9695505050505050565b60805160a05161223c620004266000396000818161038b01526110f50152600081816103c8015281816107d50152610a5e015261223c6000f3fe6080604052600436106100e85760003560e01c8063944303a81161008a578063b6ab805f11610059578063b6ab805f146102c7578063bc9d87f3146102f0578063f2fde38b1461030c578063ffa1ad7414610335576100e8565b8063944303a8146102065780639eca2f1e14610231578063a3f4df7e14610271578063b05f233a1461029c576100e8565b80635201ae29116100c65780635201ae291461016e578063715018a6146101995780637b103999146101b05780638da5cb5b146101db576100e8565b806320606b70146100ed57806333f78d59146101185780633644e51514610143575b600080fd5b3480156100f957600080fd5b50610102610360565b60405161010f919061149b565b60405180910390f35b34801561012457600080fd5b5061012d610384565b60405161013a91906114cf565b60405180910390f35b34801561014f57600080fd5b50610158610389565b604051610165919061149b565b60405180910390f35b34801561017a57600080fd5b506101836103ad565b60405161019091906114cf565b60405180910390f35b3480156101a557600080fd5b506101ae6103b2565b005b3480156101bc57600080fd5b506101c56103c6565b6040516101d29190611569565b60405180910390f35b3480156101e757600080fd5b506101f06103ea565b6040516101fd91906115a5565b60405180910390f35b34801561021257600080fd5b5061021b610413565b604051610228919061149b565b60405180910390f35b34801561023d57600080fd5b50610258600480360381019061025391906115f6565b610437565b604051610268949392919061163e565b60405180910390f35b34801561027d57600080fd5b50610286610494565b6040516102939190611713565b60405180910390f35b3480156102a857600080fd5b506102b16104cd565b6040516102be91906114cf565b60405180910390f35b3480156102d357600080fd5b506102ee60048036038101906102e99190611848565b6104d2565b005b61030a600480360381019061030591906115f6565b610c92565b005b34801561031857600080fd5b50610333600480360381019061032e9190611917565b610e97565b005b34801561034157600080fd5b5061034a610f1d565b6040516103579190611713565b60405180910390f35b7f8b73c3c69bb8fe3d512ecc4cf759cc79239f7b179b0ffacaa9a75d522b39400f81565b603c81565b7f000000000000000000000000000000000000000000000000000000000000000081565b600581565b6103ba610f56565b6103c46000610fdd565b565b7f000000000000000000000000000000000000000000000000000000000000000081565b60008060009054906101000a900473ffffffffffffffffffffffffffffffffffffffff16905090565b7f8268c934b1199325bd73b5a56815a80f530848c86aa4a1f743ed9ad6d89cc08f81565b60016020528060005260406000206000915090508060000160009054906101000a900473ffffffffffffffffffffffffffffffffffffffff16908060010154908060020160009054906101000a900460ff16908060030154905084565b6040518060400160405280601181526020017f56454e4f4d2050696c6f74457363726f7700000000000000000000000000000081525081565b601981565b6000600160008a815260200190815260200160002090508060020160009054906101000a900460ff161561053b576040517f08c379a000000000000000000000000000000000000000000000000000000000815260040161053290611990565b60405180910390fd5b600073ffffffffffffffffffffffffffffffffffffffff168160000160009054906101000a900473ffffffffffffffffffffffffffffffffffffffff1673ffffffffffffffffffffffffffffffffffffffff16036105ce576040517f08c379a00000000000000000000000000000000000000000000000000000000081526004016105c5906119fc565b60405180910390fd5b828290508585905014610616576040517f08c379a000000000000000000000000000000000000000000000000000000000815260040161060d90611a68565b60405180910390fd5b600585859050101561065d576040517f08c379a000000000000000000000000000000000000000000000000000000000815260040161065490611ad4565b60405180910390fd5b6000808686905067ffffffffffffffff81111561067d5761067c611af4565b5b6040519080825280602002602001820160405280156106ab5781602001602082028036833780820191505090505b50905060008787905067ffffffffffffffff8111156106cd576106cc611af4565b5b6040519080825280602002602001820160405280156106fb5781602001602082028036833780820191505090505b50905060005b8888905081101561091d5760006107998e8b8b8581811061072557610724611b23565b5b905060200201358a8a8681811061073f5761073e611b23565b5b90506020028101906107519190611b61565b8080601f016020809104026020016040519081016040528093929190818152602001838380828437600081840152601f19601f820116905080830192505050505050506110a1565b9050600073ffffffffffffffffffffffffffffffffffffffff168173ffffffffffffffffffffffffffffffffffffffff161415801561086e57507f000000000000000000000000000000000000000000000000000000000000000073ffffffffffffffffffffffffffffffffffffffff16633ae9b8f1826040518263ffffffff1660e01b815260040161082c91906115a5565b602060405180830381865afa158015610849573d6000803e3d6000fd5b505050506040513d601f19601f8201168201806040525081019061086d9190611bf0565b5b156109095789898381811061088657610885611b23565b5b905060200201358486815181106108a05761089f611b23565b5b602002602001018181525050808386815181106108c0576108bf611b23565b5b602002602001019073ffffffffffffffffffffffffffffffffffffffff16908173ffffffffffffffffffffffffffffffffffffffff1681525050848061090590611c4c565b9550505b50808061091590611c4c565b915050610701565b506005831015610962576040517f08c379a000000000000000000000000000000000000000000000000000000000815260040161095990611ce0565b60405180910390fd5b600061096e83856111e9565b9050603c8110156109b4576040517f08c379a00000000000000000000000000000000000000000000000000000000081526004016109ab90611d4c565b60405180910390fd5b60018560020160006101000a81548160ff02191690831515021790555060005b84811015610b34576000828583815181106109f2576109f1611b23565b5b602002602001015111610a2a57848281518110610a1257610a11611b23565b5b602002602001015183610a259190611d6c565b610a51565b82858381518110610a3e57610a3d611b23565b5b6020026020010151610a509190611d6c565b5b90506019811115610b20577f000000000000000000000000000000000000000000000000000000000000000073ffffffffffffffffffffffffffffffffffffffff166318dbd273858481518110610aab57610aaa611b23565b5b6020026020010151878581518110610ac657610ac5611b23565b5b6020026020010151866040518463ffffffff1660e01b8152600401610aed93929190611da0565b600060405180830381600087803b158015610b0757600080fd5b505af1158015610b1b573d6000803e3d6000fd5b505050505b508080610b2c90611c4c565b9150506109d4565b5060008560000160009054906101000a900473ffffffffffffffffffffffffffffffffffffffff1673ffffffffffffffffffffffffffffffffffffffff168660010154604051610b8390611e08565b60006040518083038185875af1925050503d8060008114610bc0576040519150601f19603f3d011682016040523d82523d6000602084013e610bc5565b606091505b5050905080610c09576040517f08c379a0000000000000000000000000000000000000000000000000000000008152600401610c0090611e69565b60405180910390fd5b8560000160009054906101000a900473ffffffffffffffffffffffffffffffffffffffff1673ffffffffffffffffffffffffffffffffffffffff168e7f52451b0c080b6bee6b75806ca36bd4cdd6dacc3c3834b1ea4962b37a24cbc18c886001015485604051610c7a929190611e89565b60405180910390a35050505050505050505050505050565b60003411610cd5576040517f08c379a0000000000000000000000000000000000000000000000000000000008152600401610ccc90611efe565b60405180910390fd5b600073ffffffffffffffffffffffffffffffffffffffff166001600083815260200190815260200160002060000160009054906101000a900473ffffffffffffffffffffffffffffffffffffffff1673ffffffffffffffffffffffffffffffffffffffff1614610d7a576040517f08c379a0000000000000000000000000000000000000000000000000000000008152600401610d7190611f6a565b60405180910390fd5b60405180608001604052803373ffffffffffffffffffffffffffffffffffffffff168152602001348152602001600015158152602001438152506001600083815260200190815260200160002060008201518160000160006101000a81548173ffffffffffffffffffffffffffffffffffffffff021916908373ffffffffffffffffffffffffffffffffffffffff1602179055506020820151816001015560408201518160020160006101000a81548160ff021916908315150217905550606082015181600301559050503373ffffffffffffffffffffffffffffffffffffffff16817ff5317246b1280f9cdfa4e36ed4cf0d02b1f02180e7ea02f9271cb356eb37469e34604051610e8c91906114cf565b60405180910390a350565b610e9f610f56565b600073ffffffffffffffffffffffffffffffffffffffff168173ffffffffffffffffffffffffffffffffffffffff1603610f115760006040517f1e4fbdf7000000000000000000000000000000000000000000000000000000008152600401610f0891906115a5565b60405180910390fd5b610f1a81610fdd565b50565b6040518060400160405280600181526020017f310000000000000000000000000000000000000000000000000000000000000081525081565b610f5e6113f6565b73ffffffffffffffffffffffffffffffffffffffff16610f7c6103ea565b73ffffffffffffffffffffffffffffffffffffffff1614610fdb57610f9f6113f6565b6040517f118cdaa7000000000000000000000000000000000000000000000000000000008152600401610fd291906115a5565b60405180910390fd5b565b60008060009054906101000a900473ffffffffffffffffffffffffffffffffffffffff169050816000806101000a81548173ffffffffffffffffffffffffffffffffffffffff021916908373ffffffffffffffffffffffffffffffffffffffff1602179055508173ffffffffffffffffffffffffffffffffffffffff168173ffffffffffffffffffffffffffffffffffffffff167f8be0079c531659141344cd1fd0a4f28419497f9722a3daafe3b4186f6b6457e060405160405180910390a35050565b6000807f8268c934b1199325bd73b5a56815a80f530848c86aa4a1f743ed9ad6d89cc08f85856040516020016110d993929190611f8a565b60405160208183030381529060405280519060200120905060007f000000000000000000000000000000000000000000000000000000000000000082604051602001611126929190612039565b604051602081830303815290604052805190602001209050600080600061114c876113fe565b9250925092507f7fffffffffffffffffffffffffffffff5d576e7357a4501ddfe92f46681b20a08260001c111561118b576000955050505050506111e2565b600184828585604051600081526020016040526040516111ae949392919061208c565b6020604051602081039080840390855afa1580156111d0573d6000803e3d6000fd5b50505060206040510351955050505050505b9392505050565b6000808267ffffffffffffffff81111561120657611205611af4565b5b6040519080825280602002602001820160405280156112345781602001602082028036833780820191505090505b50905060005b8381101561128f5784818151811061125557611254611b23565b5b60200260200101518282815181106112705761126f611b23565b5b602002602001018181525050808061128790611c4c565b91505061123a565b5060005b6001846112a09190611d6c565b8110156113c55760005b600182866112b89190611d6c565b6112c29190611d6c565b8110156113b157826001826112d791906120d1565b815181106112e8576112e7611b23565b5b602002602001015183828151811061130357611302611b23565b5b6020026020010151111561139e578260018261131f91906120d1565b815181106113305761132f611b23565b5b602002602001015183828151811061134b5761134a611b23565b5b602002602001015184838151811061136657611365611b23565b5b602002602001018560018561137b91906120d1565b8151811061138c5761138b611b23565b5b60200260200101828152508281525050505b80806113a990611c4c565b9150506112aa565b5080806113bd90611c4c565b915050611293565b50806002846113d49190612134565b815181106113e5576113e4611b23565b5b602002602001015191505092915050565b600033905090565b60008060006041845114611447576040517f08c379a000000000000000000000000000000000000000000000000000000000815260040161143e906121b1565b60405180910390fd5b6020840151925060408401519150606084015160001a9050601b8160ff16101561147b57601b8161147891906121d1565b90505b9193909250565b6000819050919050565b61149581611482565b82525050565b60006020820190506114b0600083018461148c565b92915050565b6000819050919050565b6114c9816114b6565b82525050565b60006020820190506114e460008301846114c0565b92915050565b600073ffffffffffffffffffffffffffffffffffffffff82169050919050565b6000819050919050565b600061152f61152a611525846114ea565b61150a565b6114ea565b9050919050565b600061154182611514565b9050919050565b600061155382611536565b9050919050565b61156381611548565b82525050565b600060208201905061157e600083018461155a565b92915050565b600061158f826114ea565b9050919050565b61159f81611584565b82525050565b60006020820190506115ba6000830184611596565b92915050565b600080fd5b600080fd5b6115d381611482565b81146115de57600080fd5b50565b6000813590506115f0816115ca565b92915050565b60006020828403121561160c5761160b6115c0565b5b600061161a848285016115e1565b91505092915050565b60008115159050919050565b61163881611623565b82525050565b60006080820190506116536000830187611596565b61166060208301866114c0565b61166d604083018561162f565b61167a60608301846114c0565b95945050505050565b600081519050919050565b600082825260208201905092915050565b60005b838110156116bd5780820151818401526020810190506116a2565b60008484015250505050565b6000601f19601f8301169050919050565b60006116e582611683565b6116ef818561168e565b93506116ff81856020860161169f565b611708816116c9565b840191505092915050565b6000602082019050818103600083015261172d81846116da565b905092915050565b61173e81611584565b811461174957600080fd5b50565b60008135905061175b81611735565b92915050565b61176a816114b6565b811461177557600080fd5b50565b60008135905061178781611761565b92915050565b600080fd5b600080fd5b600080fd5b60008083601f8401126117b2576117b161178d565b5b8235905067ffffffffffffffff8111156117cf576117ce611792565b5b6020830191508360208202830111156117eb576117ea611797565b5b9250929050565b60008083601f8401126118085761180761178d565b5b8235905067ffffffffffffffff81111561182557611824611792565b5b60208301915083602082028301111561184157611840611797565b5b9250929050565b60008060008060008060008060c0898b031215611868576118676115c0565b5b60006118768b828c016115e1565b98505060206118878b828c0161174c565b97505060406118988b828c01611778565b96505060606118a98b828c01611778565b955050608089013567ffffffffffffffff8111156118ca576118c96115c5565b5b6118d68b828c0161179c565b945094505060a089013567ffffffffffffffff8111156118f9576118f86115c5565b5b6119058b828c016117f2565b92509250509295985092959890939650565b60006020828403121561192d5761192c6115c0565b5b600061193b8482850161174c565b91505092915050565b7f43616d706169676e20616c726561647920636c6f736564000000000000000000600082015250565b600061197a60178361168e565b915061198582611944565b602082019050919050565b600060208201905081810360008301526119a98161196d565b9050919050565b7f43616d706169676e206e6f742066756e64656400000000000000000000000000600082015250565b60006119e660138361168e565b91506119f1826119b0565b602082019050919050565b60006020820190508181036000830152611a15816119d9565b9050919050565b7f4c656e677468206d69736d617463680000000000000000000000000000000000600082015250565b6000611a52600f8361168e565b9150611a5d82611a1c565b602082019050919050565b60006020820190508181036000830152611a8181611a45565b9050919050565b7f4e6f7420656e6f756768207375626d697373696f6e7300000000000000000000600082015250565b6000611abe60168361168e565b9150611ac982611a88565b602082019050919050565b60006020820190508181036000830152611aed81611ab1565b9050919050565b7f4e487b7100000000000000000000000000000000000000000000000000000000600052604160045260246000fd5b7f4e487b7100000000000000000000000000000000000000000000000000000000600052603260045260246000fd5b600080fd5b600080fd5b600080fd5b60008083356001602003843603038112611b7e57611b7d611b52565b5b80840192508235915067ffffffffffffffff821115611ba057611b9f611b57565b5b602083019250600182023603831315611bbc57611bbb611b5c565b5b509250929050565b611bcd81611623565b8114611bd857600080fd5b50565b600081519050611bea81611bc4565b92915050565b600060208284031215611c0657611c056115c0565b5b6000611c1484828501611bdb565b91505092915050565b7f4e487b7100000000000000000000000000000000000000000000000000000000600052601160045260246000fd5b6000611c57826114b6565b91507fffffffffffffffffffffffffffffffffffffffffffffffffffffffffffffffff8203611c8957611c88611c1d565b5b600182019050919050565b7f4e6f7420656e6f7567682076616c6964206f7261636c65730000000000000000600082015250565b6000611cca60188361168e565b9150611cd582611c94565b602082019050919050565b60006020820190508181036000830152611cf981611cbd565b9050919050565b7f4d656469616e2062656c6f77207468726573686f6c6400000000000000000000600082015250565b6000611d3660168361168e565b9150611d4182611d00565b602082019050919050565b60006020820190508181036000830152611d6581611d29565b9050919050565b6000611d77826114b6565b9150611d82836114b6565b9250828203905081811115611d9a57611d99611c1d565b5b92915050565b6000606082019050611db56000830186611596565b611dc260208301856114c0565b611dcf60408301846114c0565b949350505050565b600081905092915050565b50565b6000611df2600083611dd7565b9150611dfd82611de2565b600082019050919050565b6000611e1382611de5565b9150819050919050565b7f5472616e73666572206661696c65640000000000000000000000000000000000600082015250565b6000611e53600f8361168e565b9150611e5e82611e1d565b602082019050919050565b60006020820190508181036000830152611e8281611e46565b9050919050565b6000604082019050611e9e60008301856114c0565b611eab60208301846114c0565b9392505050565b7f426f756e7479206d757374206265203e20300000000000000000000000000000600082015250565b6000611ee860128361168e565b9150611ef382611eb2565b602082019050919050565b60006020820190508181036000830152611f1781611edb565b9050919050565b7f43616d706169676e20616c726561647920657869737473000000000000000000600082015250565b6000611f5460178361168e565b9150611f5f82611f1e565b602082019050919050565b60006020820190508181036000830152611f8381611f47565b9050919050565b6000606082019050611f9f600083018661148c565b611fac602083018561148c565b611fb960408301846114c0565b949350505050565b600081905092915050565b7f1901000000000000000000000000000000000000000000000000000000000000600082015250565b6000612002600283611fc1565b915061200d82611fcc565b600282019050919050565b6000819050919050565b61203361202e82611482565b612018565b82525050565b600061204482611ff5565b91506120508285612022565b6020820191506120608284612022565b6020820191508190509392505050565b600060ff82169050919050565b61208681612070565b82525050565b60006080820190506120a1600083018761148c565b6120ae602083018661207d565b6120bb604083018561148c565b6120c8606083018461148c565b95945050505050565b60006120dc826114b6565b91506120e7836114b6565b92508282019050808211156120ff576120fe611c1d565b5b92915050565b7f4e487b7100000000000000000000000000000000000000000000000000000000600052601260045260246000fd5b600061213f826114b6565b915061214a836114b6565b92508261215a57612159612105565b5b828204905092915050565b7f496e76616c6964207369676e6174757265206c656e6774680000000000000000600082015250565b600061219b60188361168e565b91506121a682612165565b602082019050919050565b600060208201905081810360008301526121ca8161218e565b9050919050565b60006121dc82612070565b91506121e783612070565b9250828201905060ff811115612200576121ff611c1d565b5b9291505056fea2646970667358221220cbd745a5f9896e6181734de2ef1579414ded2cec3eb9c0d9cb5443a668f1fa7f64736f6c63430008140033",
  "linkReferences": {},
  "deployedLinkReferences": {}
}