{
  "_format": "hh-sol-artifact-1",
  "contractName": "PilotEscrow",
  "sourceName": "contracts/PilotEscrow.sol",
  "abi": [
    {
      "inputs": [
        {
          "internalType": "address",
          "name": "_registry",
          "type": "address"
        }
      ],
      "stateMutability": "nonpayable",
      "type": "constructor"
    },
    {
      "inputs": [
        {
          "internalType": "address",
          "name": "owner",
          "type": "address"
        }
      ],
      "name": "OwnableInvalidOwner",
      "type": "error"
    },
    {
      "inputs": [
        {
          "internalType": "address",
          "name": "account",
          "type": "address"
        }
      ],
      "name": "OwnableUnauthorizedAccount",
      "type": "error"
    },
    {
      "anonymous": false,
      "inputs": [
        {
          "indexed": true,
          "internalType": "bytes32",
          "name": "campaignUid",
          "type": "bytes32"
        },
        {
          "indexed": true,
          "internalType": "address",
          "name": "funder",
          "type": "address"
        },
        {
          "indexed": false,
          "internalType": "uint256",
          "name": "refund",
          "type": "uint256"
        },
        {
          "indexed": false,
          "internalType": "uint256",
          "name": "fee",
          "type": "uint256"
        }
      ],
      "name": "CampaignCancelled",
      "type": "event"
    },
    {
      "anonymous": false,
      "inputs": [
        {
          "indexed": true,
          "internalType": "bytes32",
          "name": "campaignUid",
          "type": "bytes32"
        },
        {
          "indexed": true,
          "internalType": "address",
          "name": "recipient",
          "type": "address"
        },
        {
          "indexed": false,
          "internalType": "uint256",
          "name": "bounty",
          "type": "uint256"
        },
        {
          "indexed": false,
          "internalType": "uint256",
          "name": "medianScore",
          "type": "uint256"
        }
      ],
      "name": "CampaignClosed",
      "type": "event"
    },
    {
      "anonymous": false,
      "inputs": [
        {
          "indexed": true,
          "internalType": "bytes32",
          "name": "campaignUid",
          "type": "bytes32"
        },
        {
          "indexed": true,
          "internalType": "address",
          "name": "funder",
          "type": "address"
        },
        {
          "indexed": false,
          "internalType": "uint256",
          "name": "amount",
          "type": "uint256"
        }
      ],
      "name": "CampaignFunded",
      "type": "event"
    },
    {
      "anonymous": false,
      "inputs": [
        {
          "indexed": false,
          "internalType": "uint256",
          "name": "amount",
          "type": "uint256"
        },
        {
          "indexed": false,
          "internalType": "string",
          "name": "reason",
          "type": "string"
        }
      ],
      "name": "InsurancePoolDeposit",
      "type": "event"
    },
    {
      "anonymous": false,
      "inputs": [
        {
          "indexed": true,
          "internalType": "address",
          "name": "previousOwner",
          "type": "address"
        },
        {
          "indexed": true,
          "internalType": "address",
          "name": "newOwner",
          "type": "address"
        }
      ],
      "name": "OwnershipTransferred",
      "type": "event"
    },
    {
      "inputs": [],
      "name": "ABSTAIN_TYPEHASH",
      "outputs": [
        {
          "internalType": "bytes32",
          "name": "",
          "type": "bytes32"
        }
      ],
      "stateMutability": "view",
      "type": "function"
    },
    {
      "inputs": [],
      "name": "CAMPAIGN_TIMEOUT_BLOCKS",
      "outputs": [
        {
          "internalType": "uint256",
          "name": "",
          "type": "uint256"
        }
      ],
      "stateMutability": "view",
      "type": "function"
    },
    {
      "inputs": [],
      "name": "CANCEL_FEE_BPS",
      "outputs": [
        {
          "internalType": "uint256",
          "name": "",
          "type": "uint256"
        }
      ],
      "stateMutability": "view",
      "type": "function"
    },
    {
      "inputs": [],
      "name": "DOMAIN_SEPARATOR",
      "outputs": [
        {
          "internalType": "bytes32",
          "name": "",
          "type": "bytes32"
        }
      ],
      "stateMutability": "view",
      "type": "function"
    },
    {
      "inputs": [],
      "name": "DOMAIN_TYPEHASH",
      "outputs": [
        {
          "internalType": "bytes32",
          "name": "",
          "type": "bytes32"
        }
      ],
      "stateMutability": "view",
      "type": "function"
    },
    {
      "inputs": [],
      "name": "MAX_DEVIATION",
      "outputs": [
        {
          "internalType": "uint256",
          "name": "",
          "type": "uint256"
        }
      ],
      "stateMutability": "view",
      "type": "function"
    },
    {
      "inputs": [],
      "name": "NAME",
      "outputs": [
        {
          "internalType": "string",
          "name": "",
          "type": "string"
        }
      ],
      "stateMutability": "view",
      "type": "function"
    },
    {
      "inputs": [],
      "name": "PARTICIPATION_FLOOR_PCT",
      "outputs": [
        {
          "internalType": "uint256",
          "name": "",
          "type": "uint256"
        }
      ],
      "stateMutability": "view",
      "type": "function"
    },
    {
      "inputs": [],
      "name": "PASS_THRESHOLD",
      "outputs": [
        {
          "internalType": "uint256",
          "name": "",
          "type": "uint256"
        }
      ],
      "stateMutability": "view",
      "type": "function"
    },
    {
      "inputs": [],
      "name": "REQUIRED_ORACLES",
      "outputs": [
        {
          "internalType": "uint256",
          "name": "",
          "type": "uint256"
        }
      ],
      "stateMutability": "view",
      "type": "function"
    },
    {
      "inputs": [],
      "name": "SCORE_QUORUM_PCT",
      "outputs": [
        {
          "internalType": "uint256",
          "name": "",
          "type": "uint256"
        }
      ],
      "stateMutability": "view",
      "type": "function"
    },
    {
      "inputs": [],
      "name": "SCORE_TYPEHASH",
      "outputs": [
        {
          "internalType": "bytes32",
          "name": "",
          "type": "bytes32"
        }
      ],
      "stateMutability": "view",
      "type": "function"
    },
    {
      "inputs": [],
      "name": "VERSION",
      "outputs": [
        {
          "internalType": "string",
          "name": "",
          "type": "string"
        }
      ],
      "stateMutability": "view",
      "type": "function"
    },
    {
      "inputs": [
        {
          "internalType": "bytes32",
          "name": "",
          "type": "bytes32"
        }
      ],
      "name": "campaigns",
      "outputs": [
        {
          "internalType": "address",
          "name": "recipient",
          "type": "address"
        },
        {
          "internalType": "uint256",
          "name": "bounty",
          "type": "uint256"
        },
        {
          "internalType": "bool",
          "name": "closed",
          "type": "bool"
        },
        {
          "internalType": "uint256",
          "name": "fundedBlock",
          "type": "uint256"
        }
      ],
      "stateMutability": "view",
      "type": "function"
    },
    {
      "inputs": [
        {
          "internalType": "bytes32",
          "name": "campaignUid",
          "type": "bytes32"
        }
      ],
      "name": "cancelCampaign",
      "outputs": [],
      "stateMutability": "nonpayable",
      "type": "function"
    },
    {
      "inputs": [
        {
          "internalType": "bytes32",
          "name": "campaignUid",
          "type": "bytes32"
        },
        {
          "internalType": "uint256[]",
          "name": "scores",
          "type": "uint256[]"
        },
        {
          "internalType": "bytes[]",
          "name": "scoreSignatures",
          "type": "bytes[]"
        },
        {
          "internalType": "uint8[]",
          "name": "abstainReasons",
          "type": "uint8[]"
        },
        {
          "internalType": "bytes[]",
          "name": "abstainSignatures",
          "type": "bytes[]"
        }
      ],
      "name": "closeCampaign",
      "outputs": [],
      "stateMutability": "nonpayable",
      "type": "function"
    },
    {
      "inputs": [
        {
          "internalType": "bytes32",
          "name": "campaignUid",
          "type": "bytes32"
        }
      ],
      "name": "fundCampaign",
      "outputs": [],
      "stateMutability": "payable",
      "type": "function"
    },
    {
      "inputs": [],
      "name": "insurancePool",
      "outputs": [
        {
          "internalType": "uint256",
          "name": "",
          "type": "uint256"
        }
      ],
      "stateMutability": "view",
      "type": "function"
    },
    {
      "inputs": [],
      "name": "owner",
      "outputs": [
        {
          "internalType": "address",
          "name": "",
          "type": "address"
        }
      ],
      "stateMutability": "view",
      "type": "function"
    },
    {
      "inputs": [],
      "name": "registry",
      "outputs": [
        {
          "internalType": "contract VenomRegistry",
          "name": "",
          "type": "address"
        }
      ],
      "stateMutability": "view",
      "type": "function"
    },
    {
      "inputs": [],
      "name": "renounceOwnership",
      "outputs": [],
      "stateMutability": "nonpayable",
      "type": "function"
    },
    {
      "inputs": [
        {
          "internalType": "address",
          "name": "newOwner",
          "type": "address"
        }
      ],
      "name": "transferOwnership",
      "outputs": [],
      "stateMutability": "nonpayable",
      "type": "function"
    }
  ],
  "bytecode": "0x60c034620001b5576001600160401b0390601f62001b4e38819003918201601f1916830192919084841183851017620001ba578160209284926040968752833981010312620001b557516001600160a01b039081811690819003620001b55733156200019d5760008054336001600160a01b03198216811783559193167f8be0079c531659141344cd1fd0a4f28419497f9722a3daafe3b4186f6b6457e08480a3608052601160208351620000b481620001d0565b828152017056454e4f4d2050696c6f74457363726f7760781b81522091600160208251620000e281620001d0565b82815201603160f81b8152209181519260208401947f8b73c3c69bb8fe3d512ecc4cf759cc79239f7b179b0ffacaa9a75d522b39400f86528385015260608401524660808401523060a084015260a0835260c08301948386109086111762000189575083905251902060a0526119619081620001ed82396080518181816102e601528181610edc015281816113f3015261150f015260a05181818161021701526117490152f35b634e487b7160e01b81526041600452602490fd5b8251631e4fbdf760e01b815260006004820152602490fd5b600080fd5b634e487b7160e01b600052604160045260246000fd5b604081019081106001600160401b03821117620001ba5760405256fe6080604052600436101561001257600080fd5b60003560e01c8063041365461461017757806320606b701461017257806333f78d591461016d5780633644e515146101685780634e4aa858146101635780635201ae291461015e578063715018a6146101595780637b103999146101545780638da5cb5b1461014f5780639034cebf1461014a578063944303a8146101455780639eca2f1e146101405780639f5593191461013b578063a3f4df7e14610136578063aa41c3b314610131578063ab2adc001461012c578063ae5b47cb14610127578063b05f233a14610122578063bc9d87f31461011d578063df8bb14014610118578063f2fde38b146101135763ffa1ad741461010e57600080fd5b6109bf565b610934565b6107c4565b61068d565b610671565b6105e2565b610593565b610576565b610528565b61040f565b6103b4565b610379565b61033e565b610315565b6102d0565b610272565b610256565b61023a565b6101ff565b6101e3565b6101a8565b61018c565b600091031261018757565b600080fd5b3461018757600036600319011261018757602060405160648152f35b346101875760003660031901126101875760206040517f8b73c3c69bb8fe3d512ecc4cf759cc79239f7b179b0ffacaa9a75d522b39400f8152f35b34610187576000366003190112610187576020604051603c8152f35b346101875760003660031901126101875760206040517f00000000000000000000000000000000000000000000000000000000000000008152f35b3461018757600036600319011261018757602060405160328152f35b3461018757600036600319011261018757602060405160058152f35b34610187576000806003193601126102cd5761028c6109f9565b80546001600160a01b03198116825581906001600160a01b03167f8be0079c531659141344cd1fd0a4f28419497f9722a3daafe3b4186f6b6457e08280a380f35b80fd5b34610187576000366003190112610187576040517f00000000000000000000000000000000000000000000000000000000000000006001600160a01b03168152602090f35b34610187576000366003190112610187576000546040516001600160a01b039091168152602090f35b346101875760003660031901126101875760206040517fa104a56070cf2f6cab1c33c03f12fd2684ea8ac92ac84ae5a79e349b6c4034568152f35b346101875760003660031901126101875760206040517f8268c934b1199325bd73b5a56815a80f530848c86aa4a1f743ed9ad6d89cc08f8152f35b346101875760203660031901126101875760043560005260026020526080604060002060018060a01b0381541690600181015490600360ff600283015416910154916040519384526020840152151560408301526060820152f35b3461018757600036600319011261018757602060405160438152f35b634e487b7160e01b600052604160045260246000fd5b67ffffffffffffffff811161045557604052565b61042b565b6080810190811067ffffffffffffffff82111761045557604052565b6040810190811067ffffffffffffffff82111761045557604052565b90601f8019910116810190811067ffffffffffffffff82111761045557604052565b604051906104c18261045a565b565b67ffffffffffffffff811161045557601f01601f191660200190565b6020808252825181830181905290939260005b82811061051457505060409293506000838284010152601f8019910116010190565b8181018601518482016040015285016104f2565b346101875760003660031901126101875761057260405161054881610476565b601181527056454e4f4d2050696c6f74457363726f7760781b6020820152604051918291826104df565b0390f35b34610187576000366003190112610187576020604051611c208152f35b34610187576000366003190112610187576020600154604051908152f35b9181601f840112156101875782359167ffffffffffffffff8311610187576020808501948460051b01011161018757565b346101875760a03660031901126101875767ffffffffffffffff602435818111610187576106149036906004016105b1565b906044358381116101875761062d9036906004016105b1565b90606435858111610187576106469036906004016105b1565b9290916084359687116101875761066461066f9736906004016105b1565b969095600435610e57565b005b3461018757600036600319011261018757602060405160198152f35b602036600319011261018757600435341561078a5760008181526002602052604090206106d6906001600160a01b03906106cf905b546001600160a01b031690565b1615610a25565b6107596106e16104b4565b3381523460208201526000604082015243606082015261070b836000526002602052604060002090565b90606060039160018060a01b038151166bffffffffffffffffffffffff60a01b85541617845560208101516001850155600284016040820151151560ff801983541691161790550151910155565b6040513481523391907ff5317246b1280f9cdfa4e36ed4cf0d02b1f02180e7ea02f9271cb356eb37469e90602090a3005b60405162461bcd60e51b81526020600482015260126024820152710426f756e7479206d757374206265203e20360741b6044820152606490fd5b34610187576020366003190112610187576004356107ec816000526002602052604060002090565b6001600282019161080d610808610804855460ff1690565b1590565b61117a565b805461082b906001600160a01b03163390848060a01b0316146111b7565b61084361083b6003830154610cd4565b4310156111f0565b01549061087561086761086061085885610c4c565b612710900490565b8094610ddc565b825460ff1916600117909255565b61088961088483600154610cf1565b600155565b6000926108a58480808086335af161089f610de9565b50611232565b604080519283526020830184905233927f5943943aef3c1e82bac1c27b3c6c60626e71a3cd8b8f043ae90d81f9ce5620459190a3806108e2575080f35b6040805191825260208201819052600c908201526b31b0b731b2b63630ba34b7b760a11b60608201527f6e1c1ee1a957869ae438f34b318915839a2c3475e6f699881555a4140747fd7d90608090a180f35b34610187576020366003190112610187576001600160a01b0360043581811690819003610187576109636109f9565b80156109a657600080546001600160a01b03198116831782559092167f8be0079c531659141344cd1fd0a4f28419497f9722a3daafe3b4186f6b6457e08380a380f35b604051631e4fbdf760e01b815260006004820152602490fd5b34610187576000366003190112610187576105726040516109df81610476565b60018152603160f81b6020820152604051918291826104df565b6000546001600160a01b03163303610a0d57565b60405163118cdaa760e01b8152336004820152602490fd5b15610a2c57565b60405162461bcd60e51b815260206004820152601760248201527f43616d706169676e20616c7265616479206578697374730000000000000000006044820152606490fd5b15610a7857565b60405162461bcd60e51b815260206004820152601760248201527f43616d706169676e20616c726561647920636c6f7365640000000000000000006044820152606490fd5b15610ac457565b60405162461bcd60e51b815260206004820152601360248201527210d85b5c185a59db881b9bdd08199d5b991959606a1b6044820152606490fd5b15610b0657565b60405162461bcd60e51b81526020600482015260156024820152740a6c6dee4ca40d8cadccee8d040dad2e6dac2e8c6d605b1b6044820152606490fd5b15610b4a57565b60405162461bcd60e51b815260206004820152601760248201527f4162737461696e206c656e677468206d69736d617463680000000000000000006044820152606490fd5b90816020910312610187575190565b6040513d6000823e3d90fd5b15610bb157565b60405162461bcd60e51b81526020600482015260116024820152704e6f20616374697665206f7261636c657360781b6044820152606490fd5b15610bf157565b60405162461bcd60e51b815260206004820152601a60248201527f42656c6f77206162736f6c7574652073636f726520666c6f6f720000000000006044820152606490fd5b634e487b7160e01b600052601160045260246000fd5b90606482029180830460641490151715610c6257565b610c36565b90603282029180830460321490151715610c6257565b90604382029180830460431490151715610c6257565b15610c9a57565b60405162461bcd60e51b815260206004820152601260248201527142656c6f772073636f72652071756f72756d60701b6044820152606490fd5b90611c208201809211610c6257565b9060018201809211610c6257565b91908201809211610c6257565b15610d0557565b60405162461bcd60e51b815260206004820152601960248201527f42656c6f772070617274696369706174696f6e20666c6f6f72000000000000006044820152606490fd5b15610d5157565b60405162461bcd60e51b81526020600482015260166024820152751359591a585b8818995b1bddc81d1a1c995cda1bdb1960521b6044820152606490fd5b6000198114610c625760010190565b634e487b7160e01b600052603260045260246000fd5b8051821015610dc85760209160051b010190565b610d9e565b600019810191908211610c6257565b91908203918211610c6257565b3d15610e14573d90610dfa826104c3565b91610e086040519384610492565b82523d6000602084013e565b606090565b15610e2057565b60405162461bcd60e51b815260206004820152600f60248201526e151c985b9cd9995c8819985a5b1959608a1b6044820152606490fd5b9697929394919590610e73886000526002602052604060002090565b9560028701958654610e859060ff1690565b15610e8f90610a71565b87546001600160a01b039990610ea8908b161515610abd565b610eb3818414610aff565b610ebe858814610b43565b610ec8938b611359565b94819a610ed8948794968c6114ea565b90857f0000000000000000000000000000000000000000000000000000000000000000169060409889516317950d5f60e31b8152600494848287815a93602094fa90811561111e57610f839260009261113e575b50610f76610f71610f7c92610f42851515610baa565b610f4f60058c1015610bea565b610f6b610f5b8c610c4c565b610f6487610c67565b1115610c93565b8a610cf1565b610c4c565b91610c7d565b1115610cfe565b610fab610f908684611831565b96610f9e603c891015610d4a565b805460ff19166001179055565b60005b85811061104657505050505050906110417f52451b0c080b6bee6b75806ca36bd4cdd6dacc3c3834b1ea4962b37a24cbc18c9392611028611007610ffb610ffb865460018060a01b031690565b6001600160a01b031690565b936106c2600080808060018601998a54905af1611022610de9565b50610e19565b9254965196875260208701529116939081906040820190565b0390a3565b866110518285610db4565b51111561112357601961106e886110688487610db4565b51610ddc565b11611082575b61107d90610d8f565b610fae565b61109c61108f8284610db4565b516001600160a01b031690565b906110a78185610db4565b5191853b15610187578c516318dbd27360e01b81526001600160a01b039091168782019081526020810193909352604083018990529160009083908190606001038183895af191821561111e5761107d92611105575b509050611074565b8061111261111892610441565b8061017c565b386110fd565b610b9e565b60196111396111328386610db4565b5189610ddc565b61106e565b610f7c919250610f7161116a610f769260203d8111611173575b6111628183610492565b810190610b8f565b93925050610f2c565b503d611158565b1561118157565b60405162461bcd60e51b815260206004820152600e60248201526d105b1c9958591e4818db1bdcd95960921b6044820152606490fd5b156111be57565b60405162461bcd60e51b815260206004820152600a6024820152692737ba10333ab73232b960b11b6044820152606490fd5b156111f757565b60405162461bcd60e51b8152602060048201526013602482015272151a5b595bdd5d081b9bdd081c995858da1959606a1b6044820152606490fd5b1561123957565b60405162461bcd60e51b815260206004820152600d60248201526c1499599d5b990819985a5b1959609a1b6044820152606490fd5b67ffffffffffffffff81116104555760051b60200190565b906112908261126e565b61129d6040519182610492565b82815280926112ae601f199161126e565b0190602036910137565b9190811015610dc85760051b0190565b9190811015610dc85760051b81013590601e198136030182121561018757019081359167ffffffffffffffff8311610187576020018236038113610187579190565b929192611316826104c3565b916113246040519384610492565b829481845281830111610187578281602093846000960137010152565b90816020910312610187575180151581036101875790565b93929094919460009361136b87611286565b9661137581611286565b966000945b82861061138957505050505050565b9091929394966113ba61139d8986896112b8565b356113b36113ac8b89876112c8565b369161130a565b908561167e565b6001600160a01b038116156114a457604051633ae9b8f160e01b81526001600160a01b03821660048201526020908181806024810103817f00000000000000000000000000000000000000000000000000000000000000006001600160a01b03165afa91821561111e576000926114af575b5050156114a457898b611440838584611634565b6114975761148792611473858094611482948f61148d998f61146d928f611466926112b8565b3592610db4565b52610db4565b6001600160a01b039091169052565b610d8f565b97610d8f565b949392919061137a565b5050509661148d90610d8f565b509661148d90610d8f565b6114ce9250803d106114d5575b6114c68183610492565b810190611341565b388061142c565b503d6114bc565b3560ff811681036101875790565b909294969593919360009760009561150181611286565b93879860018060a01b0396877f000000000000000000000000000000000000000000000000000000000000000016935b808c1061154657505050505050505050505050565b909192939495969798999a9c61157f8e6115786113ac6115708f848861156b926112b8565b6114dc565b9287896112c8565b90876116d1565b8a81161561160c57604051633ae9b8f160e01b81526001600160a01b038216600482015260209081816024818c5afa91821561111e578f92611617575b50501561160c576115ce818a8a611634565b61160c576115dd81838c611634565b61160c57816114826115f6926114736115fc958e610db4565b9d610d8f565b9a99989796959493929190611531565b509c6115fc90610d8f565b61162d9250803d106114d5576114c68183610492565b38806115bc565b91909160005b83811061164a5750505050600090565b6001600160a01b038061165d8385610db4565b5116908416146116755761167090610d8f565b61163a565b50505050600190565b6116ce92916040519060208201927f8268c934b1199325bd73b5a56815a80f530848c86aa4a1f743ed9ad6d89cc08f845260408301526060820152606081526116c68161045a565b51902061172e565b90565b6116ce929160ff6040519160208301937fa104a56070cf2f6cab1c33c03f12fd2684ea8ac92ac84ae5a79e349b6c40345685526040840152166060820152606081526116c68161045a565b60ff601b9116019060ff8211610c6257565b604182510361182a5760405161190160f01b602082019081527f00000000000000000000000000000000000000000000000000000000000000006022830152604280830193909352918152611784606282610492565b5190209060009160208201519260606040840151930151901a90601b821061181a575b7f7fffffffffffffffffffffffffffffff5d576e7357a4501ddfe92f46681b20a08311611811576117fd600093602095604051948594859094939260ff6060936080840197845216602083015260408201520152565b838052039060015afa1561111e5760005190565b50505050600090565b906118249061171c565b906117a7565b5050600090565b61183a82611286565b9060005b83811061190d5750506000925b61185483610dcd565b8410156118fa5760005b61187061186b8686610ddc565b610dcd565b8110156118e957806118856118a39285610db4565b5161189861189283610ce3565b86610db4565b51106118a857610d8f565b61185e565b6118ba6118b482610ce3565b85610db4565b516118c58286610db4565b516118d86118d284610ce3565b87610db4565b526118e38286610db4565b52610d8f565b50926118f490610d8f565b9261184b565b92506119099160011c90610db4565b5190565b8061191b6119269284610db4565b516118e38286610db4565b61183e56fea26469706673582212200fddc852f7ebffe9dac82ba1cb0fe2e440c00bdde1ca4f51a1e44163a3e32d0664736f6c63430008140033",
  "linkReferences": {},
  "deployedLinkReferences": {}
}