{
  "_format": "hh-sol-artifact-1",
  "contractName": "PilotEscrow",
  "sourceName": "contracts/PilotEscrow.sol",
  "abi": [
    {
      "inputs": [
        {
          "internalType": "address",
          "name": "_registry",
          "type": "address"
        }
      ],
      "stateMutability": "nonpayable",
      "type": "constructor"
    },
    {
      "inputs": [
        {
          "internalType": "address",
          "name": "owner",
          "type": "address"
        }
      ],
      "name": "OwnableInvalidOwner",
      "type": "error"
    },
    {
      "inputs": [
        {
          "internalType": "address",
          "name": "account",
          "type": "address"
        }
      ],
      "name": "OwnableUnauthorizedAccount",
      "type": "error"
    },
    {
      "anonymous": false,
      "inputs": [
        {
          "indexed": true,
          "internalType": "bytes32",
          "name": "campaignUid",
          "type": "bytes32"
        },
        {
          "indexed": true,
          "internalType": "address",
          "name": "funder",
          "type": "address"
        },
        {
          "indexed": false,
          "internalType": "uint256",
          "name": "refund",
          "type": "uint256"
        },
        {
          "indexed": false,
          "internalType": "uint256",
          "name": "fee",
          "type": "uint256"
        }
      ],
      "name": "CampaignCancelled",
      "type": "event"
    },
    {
      "anonymous": false,
      "inputs": [
        {
          "indexed": true,
          "internalType": "bytes32",
          "name": "campaignUid",
          "type": "bytes32"
        },
        {
          "indexed": true,
          "internalType": "address",
          "name": "recipient",
          "type": "address"
        },
        {
          "indexed": false,
          "internalType": "uint256",
          "name": "bounty",
          "type": "uint256"
        },
        {
          "indexed": false,
          "internalType": "uint256",
          "name": "medianScore",
          "type": "uint256"
        }
      ],
      "name": "CampaignClosed",
      "type": "event"
    },
    {
      "anonymous": false,
      "inputs": [
        {
          "indexed": true,
          "internalType": "bytes32",
          "name": "campaignUid",
          "type": "bytes32"
        },
        {
          "indexed": true,
          "internalType": "address",
          "name": "funder",
          "type": "address"
        },
        {
          "indexed": false,
          "internalType": "uint256",
          "name": "amount",
          "type": "uint256"
        }
      ],
      "name": "CampaignFunded",
      "type": "event"
    },
    {
      "anonymous": false,
      "inputs": [
        {
          "indexed": false,
          "internalType": "uint256",
          "name": "amount",
          "type": "uint256"
        },
        {
          "indexed": false,
          "internalType": "string",
          "name": "reason",
          "type": "string"
        }
      ],
      "name": "InsurancePoolDeposit",
      "type": "event"
    },
    {
      "anonymous": false,
      "inputs": [
        {
          "indexed": true,
          "internalType": "address",
          "name": "previousOwner",
          "type": "address"
        },
        {
          "indexed": true,
          "internalType": "address",
          "name": "newOwner",
          "type": "address"
        }
      ],
      "name": "OwnershipTransferred",
      "type": "event"
    },
    {
      "inputs": [],
      "name": "ABSTAIN_TYPEHASH",
      "outputs": [
        {
          "internalType": "bytes32",
          "name": "",
          "type": "bytes32"
        }
      ],
      "stateMutability": "view",
      "type": "function"
    },
    {
      "inputs": [],
      "name": "CAMPAIGN_TIMEOUT_BLOCKS",
      "outputs": [
        {
          "internalType": "uint256",
          "name": "",
          "type": "uint256"
        }
      ],
      "stateMutability": "view",
      "type": "function"
    },
    {
      "inputs": [],
      "name": "CANCEL_FEE_BPS",
      "outputs": [
        {
          "internalType": "uint256",
          "name": "",
          "type": "uint256"
        }
      ],
      "stateMutability": "view",
      "type": "function"
    },
    {
      "inputs": [],
      "name": "DOMAIN_SEPARATOR",
      "outputs": [
        {
          "internalType": "bytes32",
          "name": "",
          "type": "bytes32"
        }
      ],
      "stateMutability": "view",
      "type": "function"
    },
    {
      "inputs": [],
      "name": "DOMAIN_TYPEHASH",
      "outputs": [
        {
          "internalType": "bytes32",
          "name": "",
          "type": "bytes32"
        }
      ],
      "stateMutability": "view",
      "type": "function"
    },
    {
      "inputs": [],
      "name": "NAME",
      "outputs": [
        {
          "internalType": "string",
          "name": "",
          "type": "string"
        }
      ],
      "stateMutability": "view",
      "type": "function"
    },
    {
      "inputs": [],
      "name": "PARTICIPATION_FLOOR_PCT",
      "outputs": [
        {
          "internalType": "uint256",
          "name": "",
          "type": "uint256"
        }
      ],
      "stateMutability": "view",
      "type": "function"
    },
    {
      "inputs": [],
      "name": "PASS_THRESHOLD",
      "outputs": [
        {
          "internalType": "uint256",
          "name": "",
          "type": "uint256"
        }
      ],
      "stateMutability": "view",
      "type": "function"
    },
    {
      "inputs": [],
      "name": "REQUIRED_ORACLES",
      "outputs": [
        {
          "internalType": "uint256",
          "name": "",
          "type": "uint256"
        }
      ],
      "stateMutability": "view",
      "type": "function"
    },
    {
      "inputs": [],
      "name": "SCORE_QUORUM_PCT",
      "outputs": [
        {
          "internalType": "uint256",
          "name": "",
          "type": "uint256"
        }
      ],
      "stateMutability": "view",
      "type": "function"
    },
    {
      "inputs": [],
      "name": "SCORE_TYPEHASH",
      "outputs": [
        {
          "internalType": "bytes32",
          "name": "",
          "type": "bytes32"
        }
      ],
      "stateMutability": "view",
      "type": "function"
    },
    {
      "inputs": [],
      "name": "VERSION",
      "outputs": [
        {
          "internalType": "string",
          "name": "",
          "type": "string"
        }
      ],
      "stateMutability": "view",
      "type": "function"
    },
    {
      "inputs": [
        {
          "internalType": "bytes32",
          "name": "",
          "type": "bytes32"
        }
      ],
      "name": "campaigns",
      "outputs": [
        {
          "internalType": "address",
          "name": "recipient",
          "type": "address"
        },
        {
          "internalType": "uint256",
          "name": "bounty",
          "type": "uint256"
        },
        {
          "internalType": "bool",
          "name": "closed",
          "type": "bool"
        },
        {
          "internalType": "uint256",
          "name": "fundedBlock",
          "type": "uint256"
        }
      ],
      "stateMutability": "view",
      "type": "function"
    },
    {
      "inputs": [
        {
          "internalType": "bytes32",
          "name": "campaignUid",
          "type": "bytes32"
        }
      ],
      "name": "cancelCampaign",
      "outputs": [],
      "stateMutability": "nonpayable",
      "type": "function"
    },
    {
      "inputs": [
        {
          "internalType": "bytes32",
          "name": "campaignUid",
          "type": "bytes32"
        },
        {
          "internalType": "uint256[]",
          "name": "scores",
          "type": "uint256[]"
        },
        {
          "internalType": "bytes[]",
          "name": "scoreSignatures",
          "type": "bytes[]"
        },
        {
          "internalType": "uint8[]",
          "name": "abstainReasons",
          "type": "uint8[]"
        },
        {
          "internalType": "bytes[]",
          "name": "abstainSignatures",
          "type": "bytes[]"
        }
      ],
      "name": "closeCampaign",
      "outputs": [],
      "stateMutability": "nonpayable",
      "type": "function"
    },
    {
      "inputs": [
        {
          "internalType": "bytes32",
          "name": "campaignUid",
          "type": "bytes32"
        }
      ],
      "name": "fundCampaign",
      "outputs": [],
      "stateMutability": "payable",
      "type": "function"
    },
    {
      "inputs": [],
      "name": "insurancePool",
      "outputs": [
        {
          "internalType": "uint256",
          "name": "",
          "type": "uint256"
        }
      ],
      "stateMutability": "view",
      "type": "function"
    },
    {
      "inputs": [],
      "name": "owner",
      "outputs": [
        {
          "internalType": "address",
          "name": "",
          "type": "address"
        }
      ],
      "stateMutability": "view",
      "type": "function"
    },
    {
      "inputs": [],
      "name": "registry",
      "outputs": [
        {
          "internalType": "contract VenomRegistry",
          "name": "",
          "type": "address"
        }
      ],
      "stateMutability": "view",
      "type": "function"
    },
    {
      "inputs": [],
      "name": "renounceOwnership",
      "outputs": [],
      "stateMutability": "nonpayable",
      "type": "function"
    },
    {
      "inputs": [
        {
          "internalType": "address",
          "name": "newOwner",
          "type": "address"
        }
      ],
      "name": "transferOwnership",
      "outputs": [],
      "stateMutability": "nonpayable",
      "type": "function"
    }
  ],
  "bytecode": "0x60c034620001b5576001600160401b0390601f62001b6138819003918201601f1916830192919084841183851017620001ba578160209284926040968752833981010312620001b557516001600160a01b039081811690819003620001b55733156200019d5760008054336001600160a01b03198216811783559193167f8be0079c531659141344cd1fd0a4f28419497f9722a3daafe3b4186f6b6457e08480a3608052601160208351620000b481620001d0565b828152017056454e4f4d2050696c6f74457363726f7760781b81522091600160208251620000e281620001d0565b82815201603160f81b8152209181519260208401947f8b73c3c69bb8fe3d512ecc4cf759cc79239f7b179b0ffacaa9a75d522b39400f86528385015260608401524660808401523060a084015260a0835260c08301948386109086111762000189575083905251902060a0526119749081620001ed82396080518181816102d601528181610eb0015281816114060152611522015260a051818181610207015261175c0152f35b634e487b7160e01b81526041600452602490fd5b8251631e4fbdf760e01b815260006004820152602490fd5b600080fd5b634e487b7160e01b600052604160045260246000fd5b604081019081106001600160401b03821117620001ba5760405256fe6080604052600436101561001257600080fd5b60003560e01c8063041365461461016757806320606b701461016257806333f78d591461015d5780633644e515146101585780634e4aa858146101535780635201ae291461014e578063715018a6146101495780637b103999146101445780638da5cb5b1461013f5780639034cebf1461013a578063944303a8146101355780639eca2f1e146101305780639f5593191461012b578063a3f4df7e14610126578063aa41c3b314610121578063ab2adc001461011c578063ae5b47cb14610117578063bc9d87f314610112578063df8bb1401461010d578063f2fde38b146101085763ffa1ad741461010357600080fd5b610993565b610908565b610798565b610661565b6105d2565b610583565b610566565b610518565b6103ff565b6103a4565b610369565b61032e565b610305565b6102c0565b610262565b610246565b61022a565b6101ef565b6101d3565b610198565b61017c565b600091031261017757565b600080fd5b3461017757600036600319011261017757602060405160648152f35b346101775760003660031901126101775760206040517f8b73c3c69bb8fe3d512ecc4cf759cc79239f7b179b0ffacaa9a75d522b39400f8152f35b34610177576000366003190112610177576020604051603c8152f35b346101775760003660031901126101775760206040517f00000000000000000000000000000000000000000000000000000000000000008152f35b3461017757600036600319011261017757602060405160328152f35b3461017757600036600319011261017757602060405160058152f35b34610177576000806003193601126102bd5761027c6109cd565b80546001600160a01b03198116825581906001600160a01b03167f8be0079c531659141344cd1fd0a4f28419497f9722a3daafe3b4186f6b6457e08280a380f35b80fd5b34610177576000366003190112610177576040517f00000000000000000000000000000000000000000000000000000000000000006001600160a01b03168152602090f35b34610177576000366003190112610177576000546040516001600160a01b039091168152602090f35b346101775760003660031901126101775760206040517fa104a56070cf2f6cab1c33c03f12fd2684ea8ac92ac84ae5a79e349b6c4034568152f35b346101775760003660031901126101775760206040517f8268c934b1199325bd73b5a56815a80f530848c86aa4a1f743ed9ad6d89cc08f8152f35b346101775760203660031901126101775760043560005260026020526080604060002060018060a01b0381541690600181015490600360ff600283015416910154916040519384526020840152151560408301526060820152f35b3461017757600036600319011261017757602060405160438152f35b634e487b7160e01b600052604160045260246000fd5b67ffffffffffffffff811161044557604052565b61041b565b6080810190811067ffffffffffffffff82111761044557604052565b6040810190811067ffffffffffffffff82111761044557604052565b90601f8019910116810190811067ffffffffffffffff82111761044557604052565b604051906104b18261044a565b565b67ffffffffffffffff811161044557601f01601f191660200190565b6020808252825181830181905290939260005b82811061050457505060409293506000838284010152601f8019910116010190565b8181018601518482016040015285016104e2565b346101775760003660031901126101775761056260405161053881610466565b601181527056454e4f4d2050696c6f74457363726f7760781b6020820152604051918291826104cf565b0390f35b34610177576000366003190112610177576020604051611c208152f35b34610177576000366003190112610177576020600154604051908152f35b9181601f840112156101775782359167ffffffffffffffff8311610177576020808501948460051b01011161017757565b346101775760a03660031901126101775767ffffffffffffffff602435818111610177576106049036906004016105a1565b906044358381116101775761061d9036906004016105a1565b90606435858111610177576106369036906004016105a1565b9290916084359687116101775761065461065f9736906004016105a1565b969095600435610e2b565b005b602036600319011261017757600435341561075e5760008181526002602052604090206106aa906001600160a01b03906106a3905b546001600160a01b031690565b16156109f9565b61072d6106b56104a4565b338152346020820152600060408201524360608201526106df836000526002602052604060002090565b90606060039160018060a01b038151166bffffffffffffffffffffffff60a01b85541617845560208101516001850155600284016040820151151560ff801983541691161790550151910155565b6040513481523391907ff5317246b1280f9cdfa4e36ed4cf0d02b1f02180e7ea02f9271cb356eb37469e90602090a3005b60405162461bcd60e51b81526020600482015260126024820152710426f756e7479206d757374206265203e20360741b6044820152606490fd5b34610177576020366003190112610177576004356107c0816000526002602052604060002090565b600160028201916107e16107dc6107d8855460ff1690565b1590565b61118d565b80546107ff906001600160a01b03163390848060a01b0316146111ca565b61081761080f6003830154610ca8565b431015611203565b01549061084961083b61083461082c85610c20565b612710900490565b8094610db0565b825460ff1916600117909255565b61085d61085883600154610cc5565b600155565b6000926108798480808086335af1610873610dbd565b50611245565b604080519283526020830184905233927f5943943aef3c1e82bac1c27b3c6c60626e71a3cd8b8f043ae90d81f9ce5620459190a3806108b6575080f35b6040805191825260208201819052600c908201526b31b0b731b2b63630ba34b7b760a11b60608201527f6e1c1ee1a957869ae438f34b318915839a2c3475e6f699881555a4140747fd7d90608090a180f35b34610177576020366003190112610177576001600160a01b0360043581811690819003610177576109376109cd565b801561097a57600080546001600160a01b03198116831782559092167f8be0079c531659141344cd1fd0a4f28419497f9722a3daafe3b4186f6b6457e08380a380f35b604051631e4fbdf760e01b815260006004820152602490fd5b34610177576000366003190112610177576105626040516109b381610466565b60018152603160f81b6020820152604051918291826104cf565b6000546001600160a01b031633036109e157565b60405163118cdaa760e01b8152336004820152602490fd5b15610a0057565b60405162461bcd60e51b815260206004820152601760248201527f43616d706169676e20616c7265616479206578697374730000000000000000006044820152606490fd5b15610a4c57565b60405162461bcd60e51b815260206004820152601760248201527f43616d706169676e20616c726561647920636c6f7365640000000000000000006044820152606490fd5b15610a9857565b60405162461bcd60e51b815260206004820152601360248201527210d85b5c185a59db881b9bdd08199d5b991959606a1b6044820152606490fd5b15610ada57565b60405162461bcd60e51b81526020600482015260156024820152740a6c6dee4ca40d8cadccee8d040dad2e6dac2e8c6d605b1b6044820152606490fd5b15610b1e57565b60405162461bcd60e51b815260206004820152601760248201527f4162737461696e206c656e677468206d69736d617463680000000000000000006044820152606490fd5b90816020910312610177575190565b6040513d6000823e3d90fd5b15610b8557565b60405162461bcd60e51b81526020600482015260116024820152704e6f20616374697665206f7261636c657360781b6044820152606490fd5b15610bc557565b60405162461bcd60e51b815260206004820152601a60248201527f42656c6f77206162736f6c7574652073636f726520666c6f6f720000000000006044820152606490fd5b634e487b7160e01b600052601160045260246000fd5b90606482029180830460641490151715610c3657565b610c0a565b90603282029180830460321490151715610c3657565b90604382029180830460431490151715610c3657565b15610c6e57565b60405162461bcd60e51b815260206004820152601260248201527142656c6f772073636f72652071756f72756d60701b6044820152606490fd5b90611c208201809211610c3657565b9060018201809211610c3657565b91908201809211610c3657565b15610cd957565b60405162461bcd60e51b815260206004820152601960248201527f42656c6f772070617274696369706174696f6e20666c6f6f72000000000000006044820152606490fd5b15610d2557565b60405162461bcd60e51b81526020600482015260166024820152751359591a585b8818995b1bddc81d1a1c995cda1bdb1960521b6044820152606490fd5b6000198114610c365760010190565b634e487b7160e01b600052603260045260246000fd5b8051821015610d9c5760209160051b010190565b610d72565b600019810191908211610c3657565b91908203918211610c3657565b3d15610de8573d90610dce826104b3565b91610ddc6040519384610482565b82523d6000602084013e565b606090565b15610df457565b60405162461bcd60e51b815260206004820152600f60248201526e151c985b9cd9995c8819985a5b1959608a1b6044820152606490fd5b9697929394919590610e47886000526002602052604060002090565b9560028701958654610e599060ff1690565b15610e6390610a45565b87546001600160a01b039990610e7c908b161515610a91565b610e87818414610ad3565b610e92858814610b17565b610e9c938b61136c565b94819a610eac948794968c6114fd565b90857f0000000000000000000000000000000000000000000000000000000000000000169060409889516317950d5f60e31b815260209060049582828881895afa90811561111657610f5792600092611162575b50610f4a610f45610f5092610f16851515610b7e565b610f2360058d1015610bbe565b610f3f610f2f8d610c20565b610f3887610c3b565b1115610c67565b8b610cc5565b610c20565b91610c51565b1115610cd2565b610f7f610f648785611844565b97610f72603c8a1015610d1e565b805460ff19166001179055565b8a5163582f919d60e11b815281818781885afa91821561111657600092611135575b505060005b86811061103f57505050505050509061103a7f52451b0c080b6bee6b75806ca36bd4cdd6dacc3c3834b1ea4962b37a24cbc18c9392611021611000610ff4610ff4865460018060a01b031690565b6001600160a01b031690565b93610696600080808060018601998a54905af161101b610dbd565b50610ded565b9254965196875260208701529116939081906040820190565b0390a3565b8761104a8286610d88565b51111561111b5781611066896110608488610d88565b51610db0565b1161107a575b61107590610d63565b610fa6565b6110946110878285610d88565b516001600160a01b031690565b9061109f8186610d88565b5191863b15610177578d516318dbd27360e01b81526001600160a01b039091168882019081526020810193909352604083018a905291600090839081906060010381838a5af191821561111657611075926110fd575b50905061106c565b8061110a61111092610431565b8061016c565b386110f5565b610b72565b816111306111298387610d88565b518a610db0565b611066565b6111549250803d1061115b575b61114c8183610482565b810190610b63565b3880610fa1565b503d611142565b610f50919250610f45611184610f4a92873d891161115b5761114c8183610482565b93925050610f00565b1561119457565b60405162461bcd60e51b815260206004820152600e60248201526d105b1c9958591e4818db1bdcd95960921b6044820152606490fd5b156111d157565b60405162461bcd60e51b815260206004820152600a6024820152692737ba10333ab73232b960b11b6044820152606490fd5b1561120a57565b60405162461bcd60e51b8152602060048201526013602482015272151a5b595bdd5d081b9bdd081c995858da1959606a1b6044820152606490fd5b1561124c57565b60405162461bcd60e51b815260206004820152600d60248201526c1499599d5b990819985a5b1959609a1b6044820152606490fd5b67ffffffffffffffff81116104455760051b60200190565b906112a382611281565b6112b06040519182610482565b82815280926112c1601f1991611281565b0190602036910137565b9190811015610d9c5760051b0190565b9190811015610d9c5760051b81013590601e198136030182121561017757019081359167ffffffffffffffff8311610177576020018236038113610177579190565b929192611329826104b3565b916113376040519384610482565b829481845281830111610177578281602093846000960137010152565b90816020910312610177575180151581036101775790565b93929094919460009361137e87611299565b9661138881611299565b966000945b82861061139c57505050505050565b9091929394966113cd6113b08986896112cb565b356113c66113bf8b89876112db565b369161131d565b9085611691565b6001600160a01b038116156114b757604051633ae9b8f160e01b81526001600160a01b03821660048201526020908181806024810103817f00000000000000000000000000000000000000000000000000000000000000006001600160a01b03165afa918215611116576000926114c2575b5050156114b757898b611453838584611647565b6114aa5761149a92611486858094611495948f6114a0998f611480928f611479926112cb565b3592610d88565b52610d88565b6001600160a01b039091169052565b610d63565b97610d63565b949392919061138d565b505050966114a090610d63565b50966114a090610d63565b6114e19250803d106114e8575b6114d98183610482565b810190611354565b388061143f565b503d6114cf565b3560ff811681036101775790565b909294969593919360009760009561151481611299565b93879860018060a01b0396877f000000000000000000000000000000000000000000000000000000000000000016935b808c1061155957505050505050505050505050565b909192939495969798999a9c6115928e61158b6113bf6115838f848861157e926112cb565b6114ef565b9287896112db565b90876116e4565b8a81161561161f57604051633ae9b8f160e01b81526001600160a01b038216600482015260209081816024818c5afa918215611116578f9261162a575b50501561161f576115e1818a8a611647565b61161f576115f081838c611647565b61161f57816114956116099261148661160f958e610d88565b9d610d63565b9a99989796959493929190611544565b509c61160f90610d63565b6116409250803d106114e8576114d98183610482565b38806115cf565b91909160005b83811061165d5750505050600090565b6001600160a01b03806116708385610d88565b5116908416146116885761168390610d63565b61164d565b50505050600190565b6116e192916040519060208201927f8268c934b1199325bd73b5a56815a80f530848c86aa4a1f743ed9ad6d89cc08f845260408301526060820152606081526116d98161044a565b519020611741565b90565b6116e1929160ff6040519160208301937fa104a56070cf2f6cab1c33c03f12fd2684ea8ac92ac84ae5a79e349b6c40345685526040840152166060820152606081526116d98161044a565b60ff601b9116019060ff8211610c3657565b604182510361183d5760405161190160f01b602082019081527f00000000000000000000000000000000000000000000000000000000000000006022830152604280830193909352918152611797606282610482565b5190209060009160208201519260606040840151930151901a90601b821061182d575b7f7fffffffffffffffffffffffffffffff5d576e7357a4501ddfe92f46681b20a0831161182457611810600093602095604051948594859094939260ff6060936080840197845216602083015260408201520152565b838052039060015afa156111165760005190565b50505050600090565b906118379061172f565b906117ba565b5050600090565b61184d82611299565b9060005b8381106119205750506000925b61186783610da1565b84101561190d5760005b61188361187e8686610db0565b610da1565b8110156118fc57806118986118b69285610d88565b516118ab6118a583610cb7565b86610d88565b51106118bb57610d63565b611871565b6118cd6118c782610cb7565b85610d88565b516118d88286610d88565b516118eb6118e584610cb7565b87610d88565b526118f68286610d88565b52610d63565b509261190790610d63565b9261185e565b925061191c9160011c90610d88565b5190565b8061192e6119399284610d88565b516118f68286610d88565b61185156fea2646970667358221220f6db43ac88ed05291ad457a60b0340ac9037ae11ae20887387fe885e293c9a6264736f6c63430008140033",
  "linkReferences": {},
  "deployedLinkReferences": {}
}